{
  "_format": "hh-sol-artifact-1",
  "contractName": "BondPayoutToken",
  "sourceName": "contracts/BondPayoutToken.sol",
  "abi": [
    {
      "inputs": [
        {
          "internalType": "string",
          "name": "_tokenName",
          "type": "string"
        },
        {
          "internalType": "string",
          "name": "_tokenSymbol",
          "type": "string"
        }
      ],
      "stateMutability": "nonpayable",
      "type": "constructor"
    },
    {
      "anonymous": false,
      "inputs": [
        {
          "indexed": true,
          "internalType": "address",
          "name": "owner",
          "type": "address"
        },
        {
          "indexed": true,
          "internalType": "address",
          "name": "spender",
          "type": "address"
        },
        {
          "indexed": false,
          "internalType": "uint256",
          "name": "value",
          "type": "uint256"
        }
      ],
      "name": "Approval",
      "type": "event"
    },
    {
      "anonymous": false,
      "inputs": [
        {
          "indexed": true,
          "internalType": "address",
          "name": "previousOwner",
          "type": "address"
        },
        {
          "indexed": true,
          "internalType": "address",
          "name": "newOwner",
          "type": "address"
        }
      ],
      "name": "OwnershipTransferred",
      "type": "event"
    },
    {
      "anonymous": false,
      "inputs": [
        {
          "indexed": true,
          "internalType": "address",
          "name": "from",
          "type": "address"
        },
        {
          "indexed": true,
          "internalType": "address",
          "name": "to",
          "type": "address"
        },
        {
          "indexed": false,
          "internalType": "uint256",
          "name": "value",
          "type": "uint256"
        }
      ],
      "name": "Transfer",
      "type": "event"
    },
    {
      "inputs": [
        {
          "internalType": "address",
          "name": "owner",
          "type": "address"
        },
        {
          "internalType": "address",
          "name": "spender",
          "type": "address"
        }
      ],
      "name": "allowance",
      "outputs": [
        {
          "internalType": "uint256",
          "name": "",
          "type": "uint256"
        }
      ],
      "stateMutability": "view",
      "type": "function"
    },
    {
      "inputs": [
        {
          "internalType": "address",
          "name": "spender",
          "type": "address"
        },
        {
          "internalType": "uint256",
          "name": "amount",
          "type": "uint256"
        }
      ],
      "name": "approve",
      "outputs": [
        {
          "internalType": "bool",
          "name": "",
          "type": "bool"
        }
      ],
      "stateMutability": "nonpayable",
      "type": "function"
    },
    {
      "inputs": [
        {
          "internalType": "address",
          "name": "account",
          "type": "address"
        }
      ],
      "name": "balanceOf",
      "outputs": [
        {
          "internalType": "uint256",
          "name": "",
          "type": "uint256"
        }
      ],
      "stateMutability": "view",
      "type": "function"
    },
    {
      "inputs": [],
      "name": "decimals",
      "outputs": [
        {
          "internalType": "uint8",
          "name": "",
          "type": "uint8"
        }
      ],
      "stateMutability": "view",
      "type": "function"
    },
    {
      "inputs": [
        {
          "internalType": "address",
          "name": "spender",
          "type": "address"
        },
        {
          "internalType": "uint256",
          "name": "subtractedValue",
          "type": "uint256"
        }
      ],
      "name": "decreaseAllowance",
      "outputs": [
        {
          "internalType": "bool",
          "name": "",
          "type": "bool"
        }
      ],
      "stateMutability": "nonpayable",
      "type": "function"
    },
    {
      "inputs": [
        {
          "internalType": "address",
          "name": "spender",
          "type": "address"
        },
        {
          "internalType": "uint256",
          "name": "addedValue",
          "type": "uint256"
        }
      ],
      "name": "increaseAllowance",
      "outputs": [
        {
          "internalType": "bool",
          "name": "",
          "type": "bool"
        }
      ],
      "stateMutability": "nonpayable",
      "type": "function"
    },
    {
      "inputs": [],
      "name": "maxTotalSupply",
      "outputs": [
        {
          "internalType": "uint256",
          "name": "",
          "type": "uint256"
        }
      ],
      "stateMutability": "view",
      "type": "function"
    },
    {
      "inputs": [
        {
          "internalType": "uint256",
          "name": "_amount",
          "type": "uint256"
        }
      ],
      "name": "mint",
      "outputs": [],
      "stateMutability": "nonpayable",
      "type": "function"
    },
    {
      "inputs": [],
      "name": "name",
      "outputs": [
        {
          "internalType": "string",
          "name": "",
          "type": "string"
        }
      ],
      "stateMutability": "view",
      "type": "function"
    },
    {
      "inputs": [],
      "name": "owner",
      "outputs": [
        {
          "internalType": "address",
          "name": "",
          "type": "address"
        }
      ],
      "stateMutability": "view",
      "type": "function"
    },
    {
      "inputs": [],
      "name": "renounceOwnership",
      "outputs": [],
      "stateMutability": "nonpayable",
      "type": "function"
    },
    {
      "inputs": [],
      "name": "symbol",
      "outputs": [
        {
          "internalType": "string",
          "name": "",
          "type": "string"
        }
      ],
      "stateMutability": "view",
      "type": "function"
    },
    {
      "inputs": [],
      "name": "totalSupply",
      "outputs": [
        {
          "internalType": "uint256",
          "name": "",
          "type": "uint256"
        }
      ],
      "stateMutability": "view",
      "type": "function"
    },
    {
      "inputs": [
        {
          "internalType": "address",
          "name": "to",
          "type": "address"
        },
        {
          "internalType": "uint256",
          "name": "amount",
          "type": "uint256"
        }
      ],
      "name": "transfer",
      "outputs": [
        {
          "internalType": "bool",
          "name": "",
          "type": "bool"
        }
      ],
      "stateMutability": "nonpayable",
      "type": "function"
    },
    {
      "inputs": [
        {
          "internalType": "address",
          "name": "from",
          "type": "address"
        },
        {
          "internalType": "address",
          "name": "to",
          "type": "address"
        },
        {
          "internalType": "uint256",
          "name": "amount",
          "type": "uint256"
        }
      ],
      "name": "transferFrom",
      "outputs": [
        {
          "internalType": "bool",
          "name": "",
          "type": "bool"
        }
      ],
      "stateMutability": "nonpayable",
      "type": "function"
    },
    {
      "inputs": [
        {
          "internalType": "address",
          "name": "newOwner",
          "type": "address"
        }
      ],
      "name": "transferOwnership",
      "outputs": [],
      "stateMutability": "nonpayable",
      "type": "function"
    }
  ],
  "bytecode": "0x60806040523480156200001157600080fd5b50604051620020103803806200201083398181016040528101906200003791906200054f565b818181600390805190602001906200005192919062000302565b5080600490805190602001906200006a92919062000302565b5050506200008d62000081620000b160201b60201c565b620000b960201b60201c565b620000a93369021e19e0c9bab24000006200017f60201b60201c565b505062000780565b600033905090565b6000600560009054906101000a900473ffffffffffffffffffffffffffffffffffffffff16905081600560006101000a81548173ffffffffffffffffffffffffffffffffffffffff021916908373ffffffffffffffffffffffffffffffffffffffff1602179055508173ffffffffffffffffffffffffffffffffffffffff168173ffffffffffffffffffffffffffffffffffffffff167f8be0079c531659141344cd1fd0a4f28419497f9722a3daafe3b4186f6b6457e060405160405180910390a35050565b600073ffffffffffffffffffffffffffffffffffffffff168273ffffffffffffffffffffffffffffffffffffffff161415620001f2576040517f08c379a0000000000000000000000000000000000000000000000000000000008152600401620001e99062000635565b60405180910390fd5b6200020660008383620002f860201b60201c565b80600260008282546200021a919062000690565b92505081905550806000808473ffffffffffffffffffffffffffffffffffffffff1673ffffffffffffffffffffffffffffffffffffffff168152602001908152602001600020600082825462000271919062000690565b925050819055508173ffffffffffffffffffffffffffffffffffffffff16600073ffffffffffffffffffffffffffffffffffffffff167fddf252ad1be2c89b69c2b068fc378daa952ba7f163c4a11628f55a4df523b3ef83604051620002d89190620006fe565b60405180910390a3620002f460008383620002fd60201b60201c565b5050565b505050565b505050565b82805462000310906200074a565b90600052602060002090601f01602090048101928262000334576000855562000380565b82601f106200034f57805160ff191683800117855562000380565b8280016001018555821562000380579182015b828111156200037f57825182559160200191906001019062000362565b5b5090506200038f919062000393565b5090565b5b80821115620003ae57600081600090555060010162000394565b5090565b6000604051905090565b600080fd5b600080fd5b600080fd5b600080fd5b6000601f19601f8301169050919050565b7f4e487b7100000000000000000000000000000000000000000000000000000000600052604160045260246000fd5b6200041b82620003d0565b810181811067ffffffffffffffff821117156200043d576200043c620003e1565b5b80604052505050565b600062000452620003b2565b905062000460828262000410565b919050565b600067ffffffffffffffff821115620004835762000482620003e1565b5b6200048e82620003d0565b9050602081019050919050565b60005b83811015620004bb5780820151818401526020810190506200049e565b83811115620004cb576000848401525b50505050565b6000620004e8620004e28462000465565b62000446565b905082815260208101848484011115620005075762000506620003cb565b5b620005148482856200049b565b509392505050565b600082601f830112620005345762000533620003c6565b5b815162000546848260208601620004d1565b91505092915050565b60008060408385031215620005695762000568620003bc565b5b600083015167ffffffffffffffff8111156200058a5762000589620003c1565b5b62000598858286016200051c565b925050602083015167ffffffffffffffff811115620005bc57620005bb620003c1565b5b620005ca858286016200051c565b9150509250929050565b600082825260208201905092915050565b7f45524332303a206d696e7420746f20746865207a65726f206164647265737300600082015250565b60006200061d601f83620005d4565b91506200062a82620005e5565b602082019050919050565b6000602082019050818103600083015262000650816200060e565b9050919050565b6000819050919050565b7f4e487b7100000000000000000000000000000000000000000000000000000000600052601160045260246000fd5b60006200069d8262000657565b9150620006aa8362000657565b9250827fffffffffffffffffffffffffffffffffffffffffffffffffffffffffffffffff03821115620006e257620006e162000661565b5b828201905092915050565b620006f88162000657565b82525050565b6000602082019050620007156000830184620006ed565b92915050565b7f4e487b7100000000000000000000000000000000000000000000000000000000600052602260045260246000fd5b600060028204905060018216806200076357607f821691505b602082108114156200077a57620007796200071b565b5b50919050565b61188080620007906000396000f3fe608060405234801561001057600080fd5b50600436106101005760003560e01c8063715018a611610097578063a457c2d711610066578063a457c2d71461029f578063a9059cbb146102cf578063dd62ed3e146102ff578063f2fde38b1461032f57610100565b8063715018a61461023d5780638da5cb5b1461024757806395d89b4114610265578063a0712d681461028357610100565b80632ab4d052116100d35780632ab4d052146101a1578063313ce567146101bf57806339509351146101dd57806370a082311461020d57610100565b806306fdde0314610105578063095ea7b31461012357806318160ddd1461015357806323b872dd14610171575b600080fd5b61010d61034b565b60405161011a9190610f79565b60405180910390f35b61013d60048036038101906101389190611034565b6103dd565b60405161014a919061108f565b60405180910390f35b61015b610400565b60405161016891906110b9565b60405180910390f35b61018b600480360381019061018691906110d4565b61040a565b604051610198919061108f565b60405180910390f35b6101a9610439565b6040516101b691906110b9565b60405180910390f35b6101c7610448565b6040516101d49190611143565b60405180910390f35b6101f760048036038101906101f29190611034565b610451565b604051610204919061108f565b60405180910390f35b6102276004803603810190610222919061115e565b610488565b60405161023491906110b9565b60405180910390f35b6102456104d0565b005b61024f6104e4565b60405161025c919061119a565b60405180910390f35b61026d61050e565b60405161027a9190610f79565b60405180910390f35b61029d600480360381019061029891906111b5565b6105a0565b005b6102b960048036038101906102b49190611034565b6105ad565b6040516102c6919061108f565b60405180910390f35b6102e960048036038101906102e49190611034565b610624565b6040516102f6919061108f565b60405180910390f35b610319600480360381019061031491906111e2565b610647565b60405161032691906110b9565b60405180910390f35b6103496004803603810190610344919061115e565b6106ce565b005b60606003805461035a90611251565b80601f016020809104026020016040519081016040528092919081815260200182805461038690611251565b80156103d35780601f106103a8576101008083540402835291602001916103d3565b820191906000526020600020905b8154815290600101906020018083116103b657829003601f168201915b5050505050905090565b6000806103e8610752565b90506103f581858561075a565b600191505092915050565b6000600254905090565b600080610415610752565b9050610422858285610925565b61042d8585856109b1565b60019150509392505050565b6a084595161401484a00000081565b60006012905090565b60008061045c610752565b905061047d81858561046e8589610647565b61047891906112b2565b61075a565b600191505092915050565b60008060008373ffffffffffffffffffffffffffffffffffffffff1673ffffffffffffffffffffffffffffffffffffffff168152602001908152602001600020549050919050565b6104d8610c32565b6104e26000610cb0565b565b6000600560009054906101000a900473ffffffffffffffffffffffffffffffffffffffff16905090565b60606004805461051d90611251565b80601f016020809104026020016040519081016040528092919081815260200182805461054990611251565b80156105965780601f1061056b57610100808354040283529160200191610596565b820191906000526020600020905b81548152906001019060200180831161057957829003601f168201915b5050505050905090565b6105aa3382610d76565b50565b6000806105b8610752565b905060006105c68286610647565b90508381101561060b576040517f08c379a00000000000000000000000000000000000000000000000000000000081526004016106029061137a565b60405180910390fd5b610618828686840361075a565b60019250505092915050565b60008061062f610752565b905061063c8185856109b1565b600191505092915050565b6000600160008473ffffffffffffffffffffffffffffffffffffffff1673ffffffffffffffffffffffffffffffffffffffff16815260200190815260200160002060008373ffffffffffffffffffffffffffffffffffffffff1673ffffffffffffffffffffffffffffffffffffffff16815260200190815260200160002054905092915050565b6106d6610c32565b600073ffffffffffffffffffffffffffffffffffffffff168173ffffffffffffffffffffffffffffffffffffffff161415610746576040517f08c379a000000000000000000000000000000000000000000000000000000000815260040161073d9061140c565b60405180910390fd5b61074f81610cb0565b50565b600033905090565b600073ffffffffffffffffffffffffffffffffffffffff168373ffffffffffffffffffffffffffffffffffffffff1614156107ca576040517f08c379a00000000000000000000000000000000000000000000000000000000081526004016107c19061149e565b60405180910390fd5b600073ffffffffffffffffffffffffffffffffffffffff168273ffffffffffffffffffffffffffffffffffffffff16141561083a576040517f08c379a000000000000000000000000000000000000000000000000000000000815260040161083190611530565b60405180910390fd5b80600160008573ffffffffffffffffffffffffffffffffffffffff1673ffffffffffffffffffffffffffffffffffffffff16815260200190815260200160002060008473ffffffffffffffffffffffffffffffffffffffff1673ffffffffffffffffffffffffffffffffffffffff168152602001908152602001600020819055508173ffffffffffffffffffffffffffffffffffffffff168373ffffffffffffffffffffffffffffffffffffffff167f8c5be1e5ebec7d5bd14f71427d1e84f3dd0314c0f7b2291e5b200ac8c7c3b9258360405161091891906110b9565b60405180910390a3505050565b60006109318484610647565b90507fffffffffffffffffffffffffffffffffffffffffffffffffffffffffffffffff81146109ab578181101561099d576040517f08c379a00000000000000000000000000000000000000000000000000000000081526004016109949061159c565b60405180910390fd5b6109aa848484840361075a565b5b50505050565b600073ffffffffffffffffffffffffffffffffffffffff168373ffffffffffffffffffffffffffffffffffffffff161415610a21576040517f08c379a0000000000000000000000000000000000000000000000000000000008152600401610a189061162e565b60405180910390fd5b600073ffffffffffffffffffffffffffffffffffffffff168273ffffffffffffffffffffffffffffffffffffffff161415610a91576040517f08c379a0000000000000000000000000000000000000000000000000000000008152600401610a88906116c0565b60405180910390fd5b610a9c838383610ed6565b60008060008573ffffffffffffffffffffffffffffffffffffffff1673ffffffffffffffffffffffffffffffffffffffff16815260200190815260200160002054905081811015610b22576040517f08c379a0000000000000000000000000000000000000000000000000000000008152600401610b1990611752565b60405180910390fd5b8181036000808673ffffffffffffffffffffffffffffffffffffffff1673ffffffffffffffffffffffffffffffffffffffff16815260200190815260200160002081905550816000808573ffffffffffffffffffffffffffffffffffffffff1673ffffffffffffffffffffffffffffffffffffffff1681526020019081526020016000206000828254610bb591906112b2565b925050819055508273ffffffffffffffffffffffffffffffffffffffff168473ffffffffffffffffffffffffffffffffffffffff167fddf252ad1be2c89b69c2b068fc378daa952ba7f163c4a11628f55a4df523b3ef84604051610c1991906110b9565b60405180910390a3610c2c848484610edb565b50505050565b610c3a610752565b73ffffffffffffffffffffffffffffffffffffffff16610c586104e4565b73ffffffffffffffffffffffffffffffffffffffff1614610cae576040517f08c379a0000000000000000000000000000000000000000000000000000000008152600401610ca5906117be565b60405180910390fd5b565b6000600560009054906101000a900473ffffffffffffffffffffffffffffffffffffffff16905081600560006101000a81548173ffffffffffffffffffffffffffffffffffffffff021916908373ffffffffffffffffffffffffffffffffffffffff1602179055508173ffffffffffffffffffffffffffffffffffffffff168173ffffffffffffffffffffffffffffffffffffffff167f8be0079c531659141344cd1fd0a4f28419497f9722a3daafe3b4186f6b6457e060405160405180910390a35050565b600073ffffffffffffffffffffffffffffffffffffffff168273ffffffffffffffffffffffffffffffffffffffff161415610de6576040517f08c379a0000000000000000000000000000000000000000000000000000000008152600401610ddd9061182a565b60405180910390fd5b610df260008383610ed6565b8060026000828254610e0491906112b2565b92505081905550806000808473ffffffffffffffffffffffffffffffffffffffff1673ffffffffffffffffffffffffffffffffffffffff1681526020019081526020016000206000828254610e5991906112b2565b925050819055508173ffffffffffffffffffffffffffffffffffffffff16600073ffffffffffffffffffffffffffffffffffffffff167fddf252ad1be2c89b69c2b068fc378daa952ba7f163c4a11628f55a4df523b3ef83604051610ebe91906110b9565b60405180910390a3610ed260008383610edb565b5050565b505050565b505050565b600081519050919050565b600082825260208201905092915050565b60005b83811015610f1a578082015181840152602081019050610eff565b83811115610f29576000848401525b50505050565b6000601f19601f8301169050919050565b6000610f4b82610ee0565b610f558185610eeb565b9350610f65818560208601610efc565b610f6e81610f2f565b840191505092915050565b60006020820190508181036000830152610f938184610f40565b905092915050565b600080fd5b600073ffffffffffffffffffffffffffffffffffffffff82169050919050565b6000610fcb82610fa0565b9050919050565b610fdb81610fc0565b8114610fe657600080fd5b50565b600081359050610ff881610fd2565b92915050565b6000819050919050565b61101181610ffe565b811461101c57600080fd5b50565b60008135905061102e81611008565b92915050565b6000806040838503121561104b5761104a610f9b565b5b600061105985828601610fe9565b925050602061106a8582860161101f565b9150509250929050565b60008115159050919050565b61108981611074565b82525050565b60006020820190506110a46000830184611080565b92915050565b6110b381610ffe565b82525050565b60006020820190506110ce60008301846110aa565b92915050565b6000806000606084860312156110ed576110ec610f9b565b5b60006110fb86828701610fe9565b935050602061110c86828701610fe9565b925050604061111d8682870161101f565b9150509250925092565b600060ff82169050919050565b61113d81611127565b82525050565b60006020820190506111586000830184611134565b92915050565b60006020828403121561117457611173610f9b565b5b600061118284828501610fe9565b91505092915050565b61119481610fc0565b82525050565b60006020820190506111af600083018461118b565b92915050565b6000602082840312156111cb576111ca610f9b565b5b60006111d98482850161101f565b91505092915050565b600080604083850312156111f9576111f8610f9b565b5b600061120785828601610fe9565b925050602061121885828601610fe9565b9150509250929050565b7f4e487b7100000000000000000000000000000000000000000000000000000000600052602260045260246000fd5b6000600282049050600182168061126957607f821691505b6020821081141561127d5761127c611222565b5b50919050565b7f4e487b7100000000000000000000000000000000000000000000000000000000600052601160045260246000fd5b60006112bd82610ffe565b91506112c883610ffe565b9250827fffffffffffffffffffffffffffffffffffffffffffffffffffffffffffffffff038211156112fd576112fc611283565b5b828201905092915050565b7f45524332303a2064656372656173656420616c6c6f77616e63652062656c6f7760008201527f207a65726f000000000000000000000000000000000000000000000000000000602082015250565b6000611364602583610eeb565b915061136f82611308565b604082019050919050565b6000602082019050818103600083015261139381611357565b9050919050565b7f4f776e61626c653a206e6577206f776e657220697320746865207a65726f206160008201527f6464726573730000000000000000000000000000000000000000000000000000602082015250565b60006113f6602683610eeb565b91506114018261139a565b604082019050919050565b60006020820190508181036000830152611425816113e9565b9050919050565b7f45524332303a20617070726f76652066726f6d20746865207a65726f2061646460008201527f7265737300000000000000000000000000000000000000000000000000000000602082015250565b6000611488602483610eeb565b91506114938261142c565b604082019050919050565b600060208201905081810360008301526114b78161147b565b9050919050565b7f45524332303a20617070726f766520746f20746865207a65726f20616464726560008201527f7373000000000000000000000000000000000000000000000000000000000000602082015250565b600061151a602283610eeb565b9150611525826114be565b604082019050919050565b600060208201905081810360008301526115498161150d565b9050919050565b7f45524332303a20696e73756666696369656e7420616c6c6f77616e6365000000600082015250565b6000611586601d83610eeb565b915061159182611550565b602082019050919050565b600060208201905081810360008301526115b581611579565b9050919050565b7f45524332303a207472616e736665722066726f6d20746865207a65726f20616460008201527f6472657373000000000000000000000000000000000000000000000000000000602082015250565b6000611618602583610eeb565b9150611623826115bc565b604082019050919050565b600060208201905081810360008301526116478161160b565b9050919050565b7f45524332303a207472616e7366657220746f20746865207a65726f206164647260008201527f6573730000000000000000000000000000000000000000000000000000000000602082015250565b60006116aa602383610eeb565b91506116b58261164e565b604082019050919050565b600060208201905081810360008301526116d98161169d565b9050919050565b7f45524332303a207472616e7366657220616d6f756e742065786365656473206260008201527f616c616e63650000000000000000000000000000000000000000000000000000602082015250565b600061173c602683610eeb565b9150611747826116e0565b604082019050919050565b6000602082019050818103600083015261176b8161172f565b9050919050565b7f4f776e61626c653a2063616c6c6572206973206e6f7420746865206f776e6572600082015250565b60006117a8602083610eeb565b91506117b382611772565b602082019050919050565b600060208201905081810360008301526117d78161179b565b9050919050565b7f45524332303a206d696e7420746f20746865207a65726f206164647265737300600082015250565b6000611814601f83610eeb565b915061181f826117de565b602082019050919050565b6000602082019050818103600083015261184381611807565b905091905056fea264697066735822122082d179e5d63f7a05e9f719fd298d46079d93b171c846a0b2400394abc95a350664736f6c63430008090033",
  "linkReferences": {},
  "deployedLinkReferences": {}
}