{
  "_format": "hh-sol-artifact-1",
  "contractName": "BondPayoutToken",
  "sourceName": "contracts/mocks/BondPayoutToken.sol",
  "abi": [
    {
      "inputs": [
        {
          "internalType": "string",
          "name": "_tokenName",
          "type": "string"
        },
        {
          "internalType": "string",
          "name": "_tokenSymbol",
          "type": "string"
        }
      ],
      "stateMutability": "nonpayable",
      "type": "constructor"
    },
    {
      "anonymous": false,
      "inputs": [
        {
          "indexed": true,
          "internalType": "address",
          "name": "owner",
          "type": "address"
        },
        {
          "indexed": true,
          "internalType": "address",
          "name": "spender",
          "type": "address"
        },
        {
          "indexed": false,
          "internalType": "uint256",
          "name": "value",
          "type": "uint256"
        }
      ],
      "name": "Approval",
      "type": "event"
    },
    {
      "anonymous": false,
      "inputs": [
        {
          "indexed": true,
          "internalType": "address",
          "name": "previousOwner",
          "type": "address"
        },
        {
          "indexed": true,
          "internalType": "address",
          "name": "newOwner",
          "type": "address"
        }
      ],
      "name": "OwnershipTransferred",
      "type": "event"
    },
    {
      "anonymous": false,
      "inputs": [
        {
          "indexed": true,
          "internalType": "address",
          "name": "from",
          "type": "address"
        },
        {
          "indexed": true,
          "internalType": "address",
          "name": "to",
          "type": "address"
        },
        {
          "indexed": false,
          "internalType": "uint256",
          "name": "value",
          "type": "uint256"
        }
      ],
      "name": "Transfer",
      "type": "event"
    },
    {
      "inputs": [
        {
          "internalType": "address",
          "name": "owner",
          "type": "address"
        },
        {
          "internalType": "address",
          "name": "spender",
          "type": "address"
        }
      ],
      "name": "allowance",
      "outputs": [
        {
          "internalType": "uint256",
          "name": "",
          "type": "uint256"
        }
      ],
      "stateMutability": "view",
      "type": "function"
    },
    {
      "inputs": [
        {
          "internalType": "address",
          "name": "spender",
          "type": "address"
        },
        {
          "internalType": "uint256",
          "name": "amount",
          "type": "uint256"
        }
      ],
      "name": "approve",
      "outputs": [
        {
          "internalType": "bool",
          "name": "",
          "type": "bool"
        }
      ],
      "stateMutability": "nonpayable",
      "type": "function"
    },
    {
      "inputs": [
        {
          "internalType": "address",
          "name": "account",
          "type": "address"
        }
      ],
      "name": "balanceOf",
      "outputs": [
        {
          "internalType": "uint256",
          "name": "",
          "type": "uint256"
        }
      ],
      "stateMutability": "view",
      "type": "function"
    },
    {
      "inputs": [],
      "name": "decimals",
      "outputs": [
        {
          "internalType": "uint8",
          "name": "",
          "type": "uint8"
        }
      ],
      "stateMutability": "view",
      "type": "function"
    },
    {
      "inputs": [
        {
          "internalType": "address",
          "name": "spender",
          "type": "address"
        },
        {
          "internalType": "uint256",
          "name": "subtractedValue",
          "type": "uint256"
        }
      ],
      "name": "decreaseAllowance",
      "outputs": [
        {
          "internalType": "bool",
          "name": "",
          "type": "bool"
        }
      ],
      "stateMutability": "nonpayable",
      "type": "function"
    },
    {
      "inputs": [
        {
          "internalType": "address",
          "name": "spender",
          "type": "address"
        },
        {
          "internalType": "uint256",
          "name": "addedValue",
          "type": "uint256"
        }
      ],
      "name": "increaseAllowance",
      "outputs": [
        {
          "internalType": "bool",
          "name": "",
          "type": "bool"
        }
      ],
      "stateMutability": "nonpayable",
      "type": "function"
    },
    {
      "inputs": [],
      "name": "maxTotalSupply",
      "outputs": [
        {
          "internalType": "uint256",
          "name": "",
          "type": "uint256"
        }
      ],
      "stateMutability": "view",
      "type": "function"
    },
    {
      "inputs": [
        {
          "internalType": "uint256",
          "name": "_amount",
          "type": "uint256"
        }
      ],
      "name": "mint",
      "outputs": [],
      "stateMutability": "nonpayable",
      "type": "function"
    },
    {
      "inputs": [],
      "name": "name",
      "outputs": [
        {
          "internalType": "string",
          "name": "",
          "type": "string"
        }
      ],
      "stateMutability": "view",
      "type": "function"
    },
    {
      "inputs": [],
      "name": "owner",
      "outputs": [
        {
          "internalType": "address",
          "name": "",
          "type": "address"
        }
      ],
      "stateMutability": "view",
      "type": "function"
    },
    {
      "inputs": [],
      "name": "renounceOwnership",
      "outputs": [],
      "stateMutability": "nonpayable",
      "type": "function"
    },
    {
      "inputs": [],
      "name": "symbol",
      "outputs": [
        {
          "internalType": "string",
          "name": "",
          "type": "string"
        }
      ],
      "stateMutability": "view",
      "type": "function"
    },
    {
      "inputs": [],
      "name": "totalSupply",
      "outputs": [
        {
          "internalType": "uint256",
          "name": "",
          "type": "uint256"
        }
      ],
      "stateMutability": "view",
      "type": "function"
    },
    {
      "inputs": [
        {
          "internalType": "address",
          "name": "to",
          "type": "address"
        },
        {
          "internalType": "uint256",
          "name": "amount",
          "type": "uint256"
        }
      ],
      "name": "transfer",
      "outputs": [
        {
          "internalType": "bool",
          "name": "",
          "type": "bool"
        }
      ],
      "stateMutability": "nonpayable",
      "type": "function"
    },
    {
      "inputs": [
        {
          "internalType": "address",
          "name": "from",
          "type": "address"
        },
        {
          "internalType": "address",
          "name": "to",
          "type": "address"
        },
        {
          "internalType": "uint256",
          "name": "amount",
          "type": "uint256"
        }
      ],
      "name": "transferFrom",
      "outputs": [
        {
          "internalType": "bool",
          "name": "",
          "type": "bool"
        }
      ],
      "stateMutability": "nonpayable",
      "type": "function"
    },
    {
      "inputs": [
        {
          "internalType": "address",
          "name": "newOwner",
          "type": "address"
        }
      ],
      "name": "transferOwnership",
      "outputs": [],
      "stateMutability": "nonpayable",
      "type": "function"
    }
  ],
  "bytecode": "0x60806040523480156200001157600080fd5b5060405162000fee38038062000fee833981016040819052620000349162000350565b8151829082906200004d906003906020850190620001dd565b50805162000063906004906020840190620001dd565b505050620000806200007a6200009f60201b60201c565b620000a3565b62000097336a084595161401484a000000620000f5565b50506200041e565b3390565b600580546001600160a01b038381166001600160a01b0319831681179093556040519116919082907f8be0079c531659141344cd1fd0a4f28419497f9722a3daafe3b4186f6b6457e090600090a35050565b6001600160a01b038216620001505760405162461bcd60e51b815260206004820152601f60248201527f45524332303a206d696e7420746f20746865207a65726f206164647265737300604482015260640160405180910390fd5b8060026000828254620001649190620003ba565b90915550506001600160a01b0382166000908152602081905260408120805483929062000193908490620003ba565b90915550506040518181526001600160a01b038316906000907fddf252ad1be2c89b69c2b068fc378daa952ba7f163c4a11628f55a4df523b3ef9060200160405180910390a35050565b828054620001eb90620003e1565b90600052602060002090601f0160209004810192826200020f57600085556200025a565b82601f106200022a57805160ff19168380011785556200025a565b828001600101855582156200025a579182015b828111156200025a5782518255916020019190600101906200023d565b50620002689291506200026c565b5090565b5b808211156200026857600081556001016200026d565b634e487b7160e01b600052604160045260246000fd5b600082601f830112620002ab57600080fd5b81516001600160401b0380821115620002c857620002c862000283565b604051601f8301601f19908116603f01168101908282118183101715620002f357620002f362000283565b816040528381526020925086838588010111156200031057600080fd5b600091505b8382101562000334578582018301518183018401529082019062000315565b83821115620003465760008385830101525b9695505050505050565b600080604083850312156200036457600080fd5b82516001600160401b03808211156200037c57600080fd5b6200038a8683870162000299565b93506020850151915080821115620003a157600080fd5b50620003b08582860162000299565b9150509250929050565b60008219821115620003dc57634e487b7160e01b600052601160045260246000fd5b500190565b600181811c90821680620003f657607f821691505b602082108114156200041857634e487b7160e01b600052602260045260246000fd5b50919050565b610bc0806200042e6000396000f3fe608060405234801561001057600080fd5b50600436106101005760003560e01c8063715018a611610097578063a457c2d711610066578063a457c2d714610208578063a9059cbb1461021b578063dd62ed3e1461022e578063f2fde38b1461024157600080fd5b8063715018a6146101c85780638da5cb5b146101d257806395d89b41146101ed578063a0712d68146101f557600080fd5b80632ab4d052116100d35780632ab4d0521461016b578063313ce5671461017d578063395093511461018c57806370a082311461019f57600080fd5b806306fdde0314610105578063095ea7b31461012357806318160ddd1461014657806323b872dd14610158575b600080fd5b61010d610254565b60405161011a91906109e4565b60405180910390f35b610136610131366004610a55565b6102e6565b604051901515815260200161011a565b6002545b60405190815260200161011a565b610136610166366004610a7f565b6102fe565b61014a6a52b7d2dcc80cd2e400000081565b6040516012815260200161011a565b61013661019a366004610a55565b610322565b61014a6101ad366004610abb565b6001600160a01b031660009081526020819052604090205490565b6101d0610344565b005b6005546040516001600160a01b03909116815260200161011a565b61010d6103af565b6101d0610203366004610add565b6103be565b610136610216366004610a55565b6103cb565b610136610229366004610a55565b610446565b61014a61023c366004610af6565b610454565b6101d061024f366004610abb565b61047f565b60606003805461026390610b29565b80601f016020809104026020016040519081016040528092919081815260200182805461028f90610b29565b80156102dc5780601f106102b1576101008083540402835291602001916102dc565b820191906000526020600020905b8154815290600101906020018083116102bf57829003601f168201915b5050505050905090565b6000336102f4818585610547565b5060019392505050565b60003361030c85828561066b565b6103178585856106e5565b506001949350505050565b6000336102f48185856103358383610454565b61033f9190610b64565b610547565b6005546001600160a01b031633146103a35760405162461bcd60e51b815260206004820181905260248201527f4f776e61626c653a2063616c6c6572206973206e6f7420746865206f776e657260448201526064015b60405180910390fd5b6103ad60006108b3565b565b60606004805461026390610b29565b6103c83382610905565b50565b600033816103d98286610454565b9050838110156104395760405162461bcd60e51b815260206004820152602560248201527f45524332303a2064656372656173656420616c6c6f77616e63652062656c6f77604482015264207a65726f60d81b606482015260840161039a565b6103178286868403610547565b6000336102f48185856106e5565b6001600160a01b03918216600090815260016020908152604080832093909416825291909152205490565b6005546001600160a01b031633146104d95760405162461bcd60e51b815260206004820181905260248201527f4f776e61626c653a2063616c6c6572206973206e6f7420746865206f776e6572604482015260640161039a565b6001600160a01b03811661053e5760405162461bcd60e51b815260206004820152602660248201527f4f776e61626c653a206e6577206f776e657220697320746865207a65726f206160448201526564647265737360d01b606482015260840161039a565b6103c8816108b3565b6001600160a01b0383166105a95760405162461bcd60e51b8152602060048201526024808201527f45524332303a20617070726f76652066726f6d20746865207a65726f206164646044820152637265737360e01b606482015260840161039a565b6001600160a01b03821661060a5760405162461bcd60e51b815260206004820152602260248201527f45524332303a20617070726f766520746f20746865207a65726f206164647265604482015261737360f01b606482015260840161039a565b6001600160a01b0383811660008181526001602090815260408083209487168084529482529182902085905590518481527f8c5be1e5ebec7d5bd14f71427d1e84f3dd0314c0f7b2291e5b200ac8c7c3b925910160405180910390a3505050565b60006106778484610454565b905060001981146106df57818110156106d25760405162461bcd60e51b815260206004820152601d60248201527f45524332303a20696e73756666696369656e7420616c6c6f77616e6365000000604482015260640161039a565b6106df8484848403610547565b50505050565b6001600160a01b0383166107495760405162461bcd60e51b815260206004820152602560248201527f45524332303a207472616e736665722066726f6d20746865207a65726f206164604482015264647265737360d81b606482015260840161039a565b6001600160a01b0382166107ab5760405162461bcd60e51b815260206004820152602360248201527f45524332303a207472616e7366657220746f20746865207a65726f206164647260448201526265737360e81b606482015260840161039a565b6001600160a01b038316600090815260208190526040902054818110156108235760405162461bcd60e51b815260206004820152602660248201527f45524332303a207472616e7366657220616d6f756e7420657863656564732062604482015265616c616e636560d01b606482015260840161039a565b6001600160a01b0380851660009081526020819052604080822085850390559185168152908120805484929061085a908490610b64565b92505081905550826001600160a01b0316846001600160a01b03167fddf252ad1be2c89b69c2b068fc378daa952ba7f163c4a11628f55a4df523b3ef846040516108a691815260200190565b60405180910390a36106df565b600580546001600160a01b038381166001600160a01b0319831681179093556040519116919082907f8be0079c531659141344cd1fd0a4f28419497f9722a3daafe3b4186f6b6457e090600090a35050565b6001600160a01b03821661095b5760405162461bcd60e51b815260206004820152601f60248201527f45524332303a206d696e7420746f20746865207a65726f206164647265737300604482015260640161039a565b806002600082825461096d9190610b64565b90915550506001600160a01b0382166000908152602081905260408120805483929061099a908490610b64565b90915550506040518181526001600160a01b038316906000907fddf252ad1be2c89b69c2b068fc378daa952ba7f163c4a11628f55a4df523b3ef9060200160405180910390a35050565b600060208083528351808285015260005b81811015610a11578581018301518582016040015282016109f5565b81811115610a23576000604083870101525b50601f01601f1916929092016040019392505050565b80356001600160a01b0381168114610a5057600080fd5b919050565b60008060408385031215610a6857600080fd5b610a7183610a39565b946020939093013593505050565b600080600060608486031215610a9457600080fd5b610a9d84610a39565b9250610aab60208501610a39565b9150604084013590509250925092565b600060208284031215610acd57600080fd5b610ad682610a39565b9392505050565b600060208284031215610aef57600080fd5b5035919050565b60008060408385031215610b0957600080fd5b610b1283610a39565b9150610b2060208401610a39565b90509250929050565b600181811c90821680610b3d57607f821691505b60208210811415610b5e57634e487b7160e01b600052602260045260246000fd5b50919050565b60008219821115610b8557634e487b7160e01b600052601160045260246000fd5b50019056fea26469706673582212205aeadc455285fa32c145018822d5022ddad523c63f7f74e54d4461ad6ffcd5a564736f6c63430008090033",
  "linkReferences": {},
  "deployedLinkReferences": {}
}