{
  "_format": "hh-sol-artifact-1",
  "contractName": "CustomBond",
  "sourceName": "contracts/OlympusProCustomBond.sol",
  "abi": [
    {
      "inputs": [
        {
          "internalType": "address",
          "name": "_customTreasury",
          "type": "address"
        },
        {
          "internalType": "address",
          "name": "_principalToken",
          "type": "address"
        },
        {
          "internalType": "address",
          "name": "_olympusTreasury",
          "type": "address"
        },
        {
          "internalType": "address",
          "name": "_subsidyRouter",
          "type": "address"
        },
        {
          "internalType": "address",
          "name": "_initialOwner",
          "type": "address"
        },
        {
          "internalType": "address",
          "name": "_olympusDAO",
          "type": "address"
        },
        {
          "internalType": "uint256[]",
          "name": "_tierCeilings",
          "type": "uint256[]"
        },
        {
          "internalType": "uint256[]",
          "name": "_fees",
          "type": "uint256[]"
        },
        {
          "internalType": "bool",
          "name": "_feeInPayout",
          "type": "bool"
        }
      ],
      "stateMutability": "nonpayable",
      "type": "constructor"
    },
    {
      "anonymous": false,
      "inputs": [
        {
          "indexed": false,
          "internalType": "uint256",
          "name": "deposit",
          "type": "uint256"
        },
        {
          "indexed": false,
          "internalType": "uint256",
          "name": "payout",
          "type": "uint256"
        },
        {
          "indexed": false,
          "internalType": "uint256",
          "name": "expires",
          "type": "uint256"
        }
      ],
      "name": "BondCreated",
      "type": "event"
    },
    {
      "anonymous": false,
      "inputs": [
        {
          "indexed": false,
          "internalType": "uint256",
          "name": "internalPrice",
          "type": "uint256"
        },
        {
          "indexed": false,
          "internalType": "uint256",
          "name": "debtRatio",
          "type": "uint256"
        }
      ],
      "name": "BondPriceChanged",
      "type": "event"
    },
    {
      "anonymous": false,
      "inputs": [
        {
          "indexed": false,
          "internalType": "address",
          "name": "recipient",
          "type": "address"
        },
        {
          "indexed": false,
          "internalType": "uint256",
          "name": "payout",
          "type": "uint256"
        },
        {
          "indexed": false,
          "internalType": "uint256",
          "name": "remaining",
          "type": "uint256"
        }
      ],
      "name": "BondRedeemed",
      "type": "event"
    },
    {
      "anonymous": false,
      "inputs": [
        {
          "indexed": false,
          "internalType": "uint256",
          "name": "initialBCV",
          "type": "uint256"
        },
        {
          "indexed": false,
          "internalType": "uint256",
          "name": "newBCV",
          "type": "uint256"
        },
        {
          "indexed": false,
          "internalType": "uint256",
          "name": "adjustment",
          "type": "uint256"
        },
        {
          "indexed": false,
          "internalType": "bool",
          "name": "addition",
          "type": "bool"
        }
      ],
      "name": "ControlVariableAdjustment",
      "type": "event"
    },
    {
      "inputs": [],
      "name": "adjustment",
      "outputs": [
        {
          "internalType": "bool",
          "name": "add",
          "type": "bool"
        },
        {
          "internalType": "uint256",
          "name": "rate",
          "type": "uint256"
        },
        {
          "internalType": "uint256",
          "name": "target",
          "type": "uint256"
        },
        {
          "internalType": "uint256",
          "name": "buffer",
          "type": "uint256"
        },
        {
          "internalType": "uint256",
          "name": "lastBlock",
          "type": "uint256"
        }
      ],
      "stateMutability": "view",
      "type": "function"
    },
    {
      "inputs": [
        {
          "internalType": "address",
          "name": "",
          "type": "address"
        }
      ],
      "name": "bondInfo",
      "outputs": [
        {
          "internalType": "uint256",
          "name": "payout",
          "type": "uint256"
        },
        {
          "internalType": "uint256",
          "name": "vesting",
          "type": "uint256"
        },
        {
          "internalType": "uint256",
          "name": "lastBlock",
          "type": "uint256"
        },
        {
          "internalType": "uint256",
          "name": "truePricePaid",
          "type": "uint256"
        }
      ],
      "stateMutability": "view",
      "type": "function"
    },
    {
      "inputs": [],
      "name": "bondPrice",
      "outputs": [
        {
          "internalType": "uint256",
          "name": "price_",
          "type": "uint256"
        }
      ],
      "stateMutability": "view",
      "type": "function"
    },
    {
      "inputs": [
        {
          "internalType": "address",
          "name": "_olympusTreasury",
          "type": "address"
        }
      ],
      "name": "changeOlympusTreasury",
      "outputs": [],
      "stateMutability": "nonpayable",
      "type": "function"
    },
    {
      "inputs": [],
      "name": "currentDebt",
      "outputs": [
        {
          "internalType": "uint256",
          "name": "",
          "type": "uint256"
        }
      ],
      "stateMutability": "view",
      "type": "function"
    },
    {
      "inputs": [],
      "name": "currentOlympusFee",
      "outputs": [
        {
          "internalType": "uint256",
          "name": "currentFee_",
          "type": "uint256"
        }
      ],
      "stateMutability": "view",
      "type": "function"
    },
    {
      "inputs": [],
      "name": "debtDecay",
      "outputs": [
        {
          "internalType": "uint256",
          "name": "decay_",
          "type": "uint256"
        }
      ],
      "stateMutability": "view",
      "type": "function"
    },
    {
      "inputs": [],
      "name": "debtRatio",
      "outputs": [
        {
          "internalType": "uint256",
          "name": "debtRatio_",
          "type": "uint256"
        }
      ],
      "stateMutability": "view",
      "type": "function"
    },
    {
      "inputs": [
        {
          "internalType": "uint256",
          "name": "_amount",
          "type": "uint256"
        },
        {
          "internalType": "uint256",
          "name": "_maxPrice",
          "type": "uint256"
        },
        {
          "internalType": "address",
          "name": "_depositor",
          "type": "address"
        }
      ],
      "name": "deposit",
      "outputs": [
        {
          "internalType": "uint256",
          "name": "",
          "type": "uint256"
        }
      ],
      "stateMutability": "nonpayable",
      "type": "function"
    },
    {
      "inputs": [
        {
          "internalType": "uint256",
          "name": "_controlVariable",
          "type": "uint256"
        },
        {
          "internalType": "uint256",
          "name": "_vestingTerm",
          "type": "uint256"
        },
        {
          "internalType": "uint256",
          "name": "_minimumPrice",
          "type": "uint256"
        },
        {
          "internalType": "uint256",
          "name": "_maxPayout",
          "type": "uint256"
        },
        {
          "internalType": "uint256",
          "name": "_maxDebt",
          "type": "uint256"
        },
        {
          "internalType": "uint256",
          "name": "_initialDebt",
          "type": "uint256"
        }
      ],
      "name": "initializeBond",
      "outputs": [],
      "stateMutability": "nonpayable",
      "type": "function"
    },
    {
      "inputs": [],
      "name": "lastDecay",
      "outputs": [
        {
          "internalType": "uint256",
          "name": "",
          "type": "uint256"
        }
      ],
      "stateMutability": "view",
      "type": "function"
    },
    {
      "inputs": [],
      "name": "maxPayout",
      "outputs": [
        {
          "internalType": "uint256",
          "name": "",
          "type": "uint256"
        }
      ],
      "stateMutability": "view",
      "type": "function"
    },
    {
      "inputs": [],
      "name": "paySubsidy",
      "outputs": [
        {
          "internalType": "uint256",
          "name": "payoutSinceLastSubsidy_",
          "type": "uint256"
        }
      ],
      "stateMutability": "nonpayable",
      "type": "function"
    },
    {
      "inputs": [
        {
          "internalType": "uint256",
          "name": "_value",
          "type": "uint256"
        }
      ],
      "name": "payoutFor",
      "outputs": [
        {
          "internalType": "uint256",
          "name": "_payout",
          "type": "uint256"
        },
        {
          "internalType": "uint256",
          "name": "_fee",
          "type": "uint256"
        }
      ],
      "stateMutability": "view",
      "type": "function"
    },
    {
      "inputs": [
        {
          "internalType": "address",
          "name": "_depositor",
          "type": "address"
        }
      ],
      "name": "pendingPayoutFor",
      "outputs": [
        {
          "internalType": "uint256",
          "name": "pendingPayout_",
          "type": "uint256"
        }
      ],
      "stateMutability": "view",
      "type": "function"
    },
    {
      "inputs": [
        {
          "internalType": "address",
          "name": "_depositor",
          "type": "address"
        }
      ],
      "name": "percentVestedFor",
      "outputs": [
        {
          "internalType": "uint256",
          "name": "percentVested_",
          "type": "uint256"
        }
      ],
      "stateMutability": "view",
      "type": "function"
    },
    {
      "inputs": [],
      "name": "policy",
      "outputs": [
        {
          "internalType": "address",
          "name": "",
          "type": "address"
        }
      ],
      "stateMutability": "view",
      "type": "function"
    },
    {
      "inputs": [
        {
          "internalType": "address",
          "name": "_depositor",
          "type": "address"
        }
      ],
      "name": "redeem",
      "outputs": [
        {
          "internalType": "uint256",
          "name": "",
          "type": "uint256"
        }
      ],
      "stateMutability": "nonpayable",
      "type": "function"
    },
    {
      "inputs": [
        {
          "internalType": "bool",
          "name": "_addition",
          "type": "bool"
        },
        {
          "internalType": "uint256",
          "name": "_increment",
          "type": "uint256"
        },
        {
          "internalType": "uint256",
          "name": "_target",
          "type": "uint256"
        },
        {
          "internalType": "uint256",
          "name": "_buffer",
          "type": "uint256"
        }
      ],
      "name": "setAdjustment",
      "outputs": [],
      "stateMutability": "nonpayable",
      "type": "function"
    },
    {
      "inputs": [
        {
          "internalType": "enum CustomBond.PARAMETER",
          "name": "_parameter",
          "type": "uint8"
        },
        {
          "internalType": "uint256",
          "name": "_input",
          "type": "uint256"
        }
      ],
      "name": "setBondTerms",
      "outputs": [],
      "stateMutability": "nonpayable",
      "type": "function"
    },
    {
      "inputs": [],
      "name": "terms",
      "outputs": [
        {
          "internalType": "uint256",
          "name": "controlVariable",
          "type": "uint256"
        },
        {
          "internalType": "uint256",
          "name": "vestingTerm",
          "type": "uint256"
        },
        {
          "internalType": "uint256",
          "name": "minimumPrice",
          "type": "uint256"
        },
        {
          "internalType": "uint256",
          "name": "maxPayout",
          "type": "uint256"
        },
        {
          "internalType": "uint256",
          "name": "maxDebt",
          "type": "uint256"
        }
      ],
      "stateMutability": "view",
      "type": "function"
    },
    {
      "inputs": [],
      "name": "totalDebt",
      "outputs": [
        {
          "internalType": "uint256",
          "name": "",
          "type": "uint256"
        }
      ],
      "stateMutability": "view",
      "type": "function"
    },
    {
      "inputs": [],
      "name": "totalPayoutGiven",
      "outputs": [
        {
          "internalType": "uint256",
          "name": "",
          "type": "uint256"
        }
      ],
      "stateMutability": "view",
      "type": "function"
    },
    {
      "inputs": [],
      "name": "totalPrincipalBonded",
      "outputs": [
        {
          "internalType": "uint256",
          "name": "",
          "type": "uint256"
        }
      ],
      "stateMutability": "view",
      "type": "function"
    },
    {
      "inputs": [
        {
          "internalType": "address",
          "name": "_newOwner",
          "type": "address"
        }
      ],
      "name": "transferManagment",
      "outputs": [],
      "stateMutability": "nonpayable",
      "type": "function"
    },
    {
      "inputs": [],
      "name": "trueBondPrice",
      "outputs": [
        {
          "internalType": "uint256",
          "name": "price_",
          "type": "uint256"
        }
      ],
      "stateMutability": "view",
      "type": "function"
    }
  ],
  "bytecode": "0x6101206040523480156200001257600080fd5b5060405162003da038038062003da083398181016040526101208110156200003957600080fd5b81019080805190602001909291908051906020019092919080519060200190929190805190602001909291908051906020019092919080519060200190929190805160405193929190846401000000008211156200009657600080fd5b83820191506020820185811115620000ad57600080fd5b8251866020820283011164010000000082111715620000cb57600080fd5b8083526020830192505050908051906020019060200280838360005b8381101562000104578082015181840152602081019050620000e7565b50505050905001604052602001805160405193929190846401000000008211156200012e57600080fd5b838201915060208201858111156200014557600080fd5b82518660208202830111640100000000821117156200016357600080fd5b8083526020830192505050908051906020019060200280838360005b838110156200019c5780820151818401526020810190506200017f565b5050505090500160405260200180519060200190929190505050336000806101000a81548173ffffffffffffffffffffffffffffffffffffffff021916908373ffffffffffffffffffffffffffffffffffffffff160217905550600073ffffffffffffffffffffffffffffffffffffffff168973ffffffffffffffffffffffffffffffffffffffff1614156200023157600080fd5b8873ffffffffffffffffffffffffffffffffffffffff1660c08173ffffffffffffffffffffffffffffffffffffffff1660601b815250508873ffffffffffffffffffffffffffffffffffffffff16634efa82b66040518163ffffffff1660e01b815260040160206040518083038186803b158015620002af57600080fd5b505afa158015620002c4573d6000803e3d6000fd5b505050506040513d6020811015620002db57600080fd5b810190808051906020019092919050505073ffffffffffffffffffffffffffffffffffffffff1660808173ffffffffffffffffffffffffffffffffffffffff1660601b81525050600073ffffffffffffffffffffffffffffffffffffffff168873ffffffffffffffffffffffffffffffffffffffff1614156200035d57600080fd5b8773ffffffffffffffffffffffffffffffffffffffff1660a08173ffffffffffffffffffffffffffffffffffffffff1660601b81525050600073ffffffffffffffffffffffffffffffffffffffff168773ffffffffffffffffffffffffffffffffffffffff161415620003cf57600080fd5b86600160006101000a81548173ffffffffffffffffffffffffffffffffffffffff021916908373ffffffffffffffffffffffffffffffffffffffff160217905550600073ffffffffffffffffffffffffffffffffffffffff168673ffffffffffffffffffffffffffffffffffffffff1614156200044b57600080fd5b8573ffffffffffffffffffffffffffffffffffffffff166101008173ffffffffffffffffffffffffffffffffffffffff1660601b81525050600073ffffffffffffffffffffffffffffffffffffffff168573ffffffffffffffffffffffffffffffffffffffff161415620004be57600080fd5b846000806101000a81548173ffffffffffffffffffffffffffffffffffffffff021916908373ffffffffffffffffffffffffffffffffffffffff160217905550600073ffffffffffffffffffffffffffffffffffffffff168473ffffffffffffffffffffffffffffffffffffffff1614156200053957600080fd5b8373ffffffffffffffffffffffffffffffffffffffff1660e08173ffffffffffffffffffffffffffffffffffffffff1660601b815250508151835114620005cc576040517f08c379a000000000000000000000000000000000000000000000000000000000815260040180806020018281038252602781526020018062003d796027913960400191505060405180910390fd5b60005b83518110156200066557600e6040518060400160405280868481518110620005f357fe5b602002602001015181526020018584815181106200060d57fe5b60200260200101518152509080600181540180825580915050600190039060005260206000209060020201600090919091909150600082015181600001556020820151816001015550508080600101915050620005cf565b5080600f60006101000a81548160ff02191690831515021790555050505050505050505060805160601c60a05160601c60c05160601c60e05160601c6101005160601c61365662000723600039806120c6525080610d94525080611131528061136e528061183a52806119525280611a5a52508061116d52806113aa5280611a0d5280611a7c5250806114b152806119065280611ce55280611edd52806121de528061229b528061238752806124965280612c1752506136566000f3fe608060405234801561001057600080fd5b506004361061018e5760003560e01c80637cbe044c116100de578063cea55f5711610097578063e0176de811610071578063e0176de8146106c8578063e392a262146106e6578063f5c2ab5b14610704578063fc7b9c18146107225761018e565b8063cea55f5714610652578063d502562514610670578063d7ccfb0b146106aa5761018e565b80637cbe044c146104855780638dbdbe6d146104a357806395a2251f1461050f578063a50603b214610567578063a9bc6b71146105c7578063cd1234b3146105e55761018e565b80633bfdd7de1161014b5780634799afda116101255780634799afda146103a8578063507930ec146103c6578063759076e51461041e5780637927ebf81461043c5761018e565b80633bfdd7de146102e45780633f0fb92f14610328578063451ee4a11461036c5761018e565b806301b88ee8146101935780630505c8c9146101eb5780630a7484891461021f5780631a3d00681461023d5780631e321a0f1461028b5780632bab6bde146102c6575b600080fd5b6101d5600480360360208110156101a957600080fd5b81019080803573ffffffffffffffffffffffffffffffffffffffff169060200190929190505050610740565b6040518082815260200191505060405180910390f35b6101f36107d7565b604051808273ffffffffffffffffffffffffffffffffffffffff16815260200191505060405180910390f35b6102276107fb565b6040518082815260200191505060405180910390f35b6102896004803603608081101561025357600080fd5b81019080803515159060200190929190803590602001909291908035906020019092919080359060200190929190505050610851565b005b6102c4600480360360408110156102a157600080fd5b81019080803560ff16906020019092919080359060200190929190505050610a30565b005b6102ce610c4e565b6040518082815260200191505060405180910390f35b610326600480360360208110156102fa57600080fd5b81019080803573ffffffffffffffffffffffffffffffffffffffff169060200190929190505050610c54565b005b61036a6004803603602081101561033e57600080fd5b81019080803573ffffffffffffffffffffffffffffffffffffffff169060200190929190505050610d92565b005b610374610e97565b6040518086151581526020018581526020018481526020018381526020018281526020019550505050505060405180910390f35b6103b0610ec8565b6040518082815260200191505060405180910390f35b610408600480360360208110156103dc57600080fd5b81019080803573ffffffffffffffffffffffffffffffffffffffff169060200190929190505050610f4e565b6040518082815260200191505060405180910390f35b610426611034565b6040518082815260200191505060405180910390f35b6104686004803603602081101561045257600080fd5b8101908080359060200190929190505050611057565b604051808381526020018281526020019250505060405180910390f35b61048d611253565b6040518082815260200191505060405180910390f35b6104f9600480360360608110156104b957600080fd5b810190808035906020019092919080359060200190929190803573ffffffffffffffffffffffffffffffffffffffff169060200190929190505050611259565b6040518082815260200191505060405180910390f35b6105516004803603602081101561052557600080fd5b81019080803573ffffffffffffffffffffffffffffffffffffffff169060200190929190505050611b82565b6040518082815260200191505060405180910390f35b6105c5600480360360c081101561057d57600080fd5b81019080803590602001909291908035906020019092919080359060200190929190803590602001909291908035906020019092919080359060200190929190505050611f2d565b005b6105cf6120c2565b6040518082815260200191505060405180910390f35b610627600480360360208110156105fb57600080fd5b81019080803573ffffffffffffffffffffffffffffffffffffffff169060200190929190505050612195565b6040518085815260200184815260200183815260200182815260200194505050505060405180910390f35b61065a6121c5565b6040518082815260200191505060405180910390f35b610678612357565b604051808681526020018581526020018481526020018381526020018281526020019550505050505060405180910390f35b6106b261237b565b6040518082815260200191505060405180910390f35b6106d0612482565b6040518082815260200191505060405180910390f35b6106ee612556565b6040518082815260200191505060405180910390f35b61070c6125b2565b6040518082815260200191505060405180910390f35b61072a6125b8565b6040518082815260200191505060405180910390f35b60008061074c83610f4e565b90506000601060008573ffffffffffffffffffffffffffffffffffffffff1673ffffffffffffffffffffffffffffffffffffffff16815260200190815260200160002060000154905061271082106107a6578092506107d0565b6107cd6127106107bf84846125be90919063ffffffff16565b61264490919063ffffffff16565b92505b5050919050565b60008054906101000a900473ffffffffffffffffffffffffffffffffffffffff1681565b600061084c610836620f4240610828610812610ec8565b61081a61237b565b6125be90919063ffffffff16565b61264490919063ffffffff16565b61083e61237b565b61268e90919063ffffffff16565b905090565b3373ffffffffffffffffffffffffffffffffffffffff1660008054906101000a900473ffffffffffffffffffffffffffffffffffffffff1673ffffffffffffffffffffffffffffffffffffffff1614610912576040517f08c379a00000000000000000000000000000000000000000000000000000000081526004018080602001828103825260208152602001807f4f776e61626c653a2063616c6c6572206973206e6f7420746865206f776e657281525060200191505060405180910390fd5b61093f6103e8610931601e6004600001546125be90919063ffffffff16565b61264490919063ffffffff16565b8311156109b4576040517f08c379a00000000000000000000000000000000000000000000000000000000081526004018080602001828103825260138152602001807f496e6372656d656e7420746f6f206c617267650000000000000000000000000081525060200191505060405180910390fd5b6040518060a00160405280851515815260200184815260200183815260200182815260200143815250600960008201518160000160006101000a81548160ff0219169083151502179055506020820151816001015560408201518160020155606082015181600301556080820151816004015590505050505050565b3373ffffffffffffffffffffffffffffffffffffffff1660008054906101000a900473ffffffffffffffffffffffffffffffffffffffff1673ffffffffffffffffffffffffffffffffffffffff1614610af1576040517f08c379a00000000000000000000000000000000000000000000000000000000081526004018080602001828103825260208152602001807f4f776e61626c653a2063616c6c6572206973206e6f7420746865206f776e657281525060200191505060405180910390fd5b60006002811115610afe57fe5b826002811115610b0a57fe5b1415610b7a57612710811015610b6b576040517f08c379a00000000000000000000000000000000000000000000000000000000081526004018080602001828103825260248152602001806135d36024913960400191505060405180910390fd5b80600460010181905550610c4a565b60016002811115610b8757fe5b826002811115610b9357fe5b1415610c20576103e8811115610c11576040517f08c379a00000000000000000000000000000000000000000000000000000000081526004018080602001828103825260208152602001807f5061796f75742063616e6e6f742062652061626f766520312070657263656e7481525060200191505060405180910390fd5b80600460030181905550610c49565b600280811115610c2c57fe5b826002811115610c3857fe5b1415610c48578060048001819055505b5b5b5050565b60035481565b3373ffffffffffffffffffffffffffffffffffffffff1660008054906101000a900473ffffffffffffffffffffffffffffffffffffffff1673ffffffffffffffffffffffffffffffffffffffff1614610d15576040517f08c379a00000000000000000000000000000000000000000000000000000000081526004018080602001828103825260208152602001807f4f776e61626c653a2063616c6c6572206973206e6f7420746865206f776e657281525060200191505060405180910390fd5b600073ffffffffffffffffffffffffffffffffffffffff168173ffffffffffffffffffffffffffffffffffffffff161415610d4f57600080fd5b806000806101000a81548173ffffffffffffffffffffffffffffffffffffffff021916908373ffffffffffffffffffffffffffffffffffffffff16021790555050565b7f000000000000000000000000000000000000000000000000000000000000000073ffffffffffffffffffffffffffffffffffffffff163373ffffffffffffffffffffffffffffffffffffffff1614610e53576040517f08c379a00000000000000000000000000000000000000000000000000000000081526004018080602001828103825260108152602001807f4f6e6c79204f6c796d7075732044414f0000000000000000000000000000000081525060200191505060405180910390fd5b80600160006101000a81548173ffffffffffffffffffffffffffffffffffffffff021916908373ffffffffffffffffffffffffffffffffffffffff16021790555050565b60098060000160009054906101000a900460ff16908060010154908060020154908060030154908060040154905085565b600080600e80549050905060005b81811015610f4857600e8181548110610eeb57fe5b9060005260206000209060020201600001546002541080610f0e57506001820381145b15610f3b57600e8181548110610f2057fe5b90600052602060002090600202016001015492505050610f4b565b8080600101915050610ed6565b50505b90565b6000610f586134ee565b601060008473ffffffffffffffffffffffffffffffffffffffff1673ffffffffffffffffffffffffffffffffffffffff16815260200190815260200160002060405180608001604052908160008201548152602001600182015481526020016002820154815260200160038201548152505090506000610fe582604001514361271690919063ffffffff16565b905060008260200151905060008111156110275761102081611012612710856125be90919063ffffffff16565b61264490919063ffffffff16565b935061102c565b600093505b505050919050565b6000611052611041612556565b60115461271690919063ffffffff16565b905090565b600080600f60009054906101000a900460ff16156110ef5760006110a164174876e80061109361108e8761108961237b565b612760565b612a41565b61264490919063ffffffff16565b90506110d2620f42406110c46110b5610ec8565b846125be90919063ffffffff16565b61264490919063ffffffff16565b91506110e7828261271690919063ffffffff16565b92505061124e565b61111e620f4240611110611101610ec8565b866125be90919063ffffffff16565b61264490919063ffffffff16565b905061124b64174876e80061123d6112387f000000000000000000000000000000000000000000000000000000000000000073ffffffffffffffffffffffffffffffffffffffff1663d1b317e57f000000000000000000000000000000000000000000000000000000000000000061119f888b61271690919063ffffffff16565b6040518363ffffffff1660e01b8152600401808373ffffffffffffffffffffffffffffffffffffffff1681526020018281526020019250505060206040518083038186803b1580156111f057600080fd5b505afa158015611204573d6000803e3d6000fd5b505050506040513d602081101561121a57600080fd5b810190808051906020019092919050505061123361237b565b612760565b612a41565b61264490919063ffffffff16565b91505b915091565b60025481565b60008073ffffffffffffffffffffffffffffffffffffffff168273ffffffffffffffffffffffffffffffffffffffff1614156112fd576040517f08c379a000000000000000000000000000000000000000000000000000000000815260040180806020018281038252600f8152602001807f496e76616c69642061646472657373000000000000000000000000000000000081525060200191505060405180910390fd5b611305612a7d565b600061130f6107fb565b90508084101561136a576040517f08c379a00000000000000000000000000000000000000000000000000000000081526004018080602001828103825260238152602001806135b06023913960400191505060405180910390fd5b60007f000000000000000000000000000000000000000000000000000000000000000073ffffffffffffffffffffffffffffffffffffffff1663d1b317e57f0000000000000000000000000000000000000000000000000000000000000000886040518363ffffffff1660e01b8152600401808373ffffffffffffffffffffffffffffffffffffffff1681526020018281526020019250505060206040518083038186803b15801561141b57600080fd5b505afa15801561142f573d6000803e3d6000fd5b505050506040513d602081101561144557600080fd5b81019080805190602001909291905050509050600080600f60009054906101000a900460ff16156114865761147983611057565b80925081935050506114ad565b61148f88611057565b80925081935050506114aa818961271690919063ffffffff16565b97505b60647f000000000000000000000000000000000000000000000000000000000000000073ffffffffffffffffffffffffffffffffffffffff1663313ce5676040518163ffffffff1660e01b815260040160206040518083038186803b15801561151557600080fd5b505afa158015611529573d6000803e3d6000fd5b505050506040513d602081101561153f57600080fd5b810190808051906020019092919050505060ff16600a0a8161155d57fe5b048210156115d3576040517f08c379a000000000000000000000000000000000000000000000000000000000815260040180806020018281038252600e8152602001807f426f6e6420746f6f20736d616c6c00000000000000000000000000000000000081525060200191505060405180910390fd5b6115db612482565b821115611650576040517f08c379a000000000000000000000000000000000000000000000000000000000815260040180806020018281038252600e8152602001807f426f6e6420746f6f206c6172676500000000000000000000000000000000000081525060200191505060405180910390fd5b6116658360115461268e90919063ffffffff16565b601181905550600480015460115411156116e7576040517f08c379a00000000000000000000000000000000000000000000000000000000081526004018080602001828103825260148152602001807f4d6178206361706163697479207265616368656400000000000000000000000081525060200191505060405180910390fd5b604051806080016040528061174784601060008b73ffffffffffffffffffffffffffffffffffffffff1673ffffffffffffffffffffffffffffffffffffffff1681526020019081526020016000206000015461268e90919063ffffffff16565b815260200160046001015481526020014381526020016117656107fb565b815250601060008873ffffffffffffffffffffffffffffffffffffffff1673ffffffffffffffffffffffffffffffffffffffff168152602001908152602001600020600082015181600001556020820151816001015560408201518160020155606082015181600301559050506117e78860025461268e90919063ffffffff16565b6002819055506118028260035461268e90919063ffffffff16565b60038190555061181d8260135461268e90919063ffffffff16565b601381905550600f60009054906101000a900460ff1615611950577f000000000000000000000000000000000000000000000000000000000000000073ffffffffffffffffffffffffffffffffffffffff16630b04f918611887838561268e90919063ffffffff16565b6040518263ffffffff1660e01b815260040180828152602001915050600060405180830381600087803b1580156118bd57600080fd5b505af11580156118d1573d6000803e3d6000fd5b505050506000811461194b5761194a600160009054906101000a900473ffffffffffffffffffffffffffffffffffffffff16827f000000000000000000000000000000000000000000000000000000000000000073ffffffffffffffffffffffffffffffffffffffff16612aa89092919063ffffffff16565b5b611a54565b7f000000000000000000000000000000000000000000000000000000000000000073ffffffffffffffffffffffffffffffffffffffff16630b04f918836040518263ffffffff1660e01b815260040180828152602001915050600060405180830381600087803b1580156119c357600080fd5b505af11580156119d7573d6000803e3d6000fd5b5050505060008114611a5357611a5233600160009054906101000a900473ffffffffffffffffffffffffffffffffffffffff16837f000000000000000000000000000000000000000000000000000000000000000073ffffffffffffffffffffffffffffffffffffffff16612b4a909392919063ffffffff16565b5b5b611ac1337f00000000000000000000000000000000000000000000000000000000000000008a7f000000000000000000000000000000000000000000000000000000000000000073ffffffffffffffffffffffffffffffffffffffff16612b4a909392919063ffffffff16565b7fb7ce5a2d90f1705ca02547b0eb827724683e0df3b809477ae4326d0eefed0bc08883611afc6004600101544361268e90919063ffffffff16565b60405180848152602001838152602001828152602001935050505060405180910390a17f2cb17bd1fd2a1fecfefae2de1e6a59194abaa62179652924ccdca01617f0bf16611b48612c0b565b611b506121c5565b604051808381526020018281526020019250505060405180910390a1611b74612d30565b819450505050509392505050565b6000611b8c6134ee565b601060008473ffffffffffffffffffffffffffffffffffffffff1673ffffffffffffffffffffffffffffffffffffffff16815260200190815260200160002060405180608001604052908160008201548152602001600182015481526020016002820154815260200160038201548152505090506000611c0b84610f4e565b90506127108110611d3757601060008573ffffffffffffffffffffffffffffffffffffffff1673ffffffffffffffffffffffffffffffffffffffff16815260200190815260200160002060008082016000905560018201600090556002820160009055600382016000905550507f51c99f515c87b0d95ba97f616edd182e8f161c4932eac17c6fefe9dab58b77b18483600001516000604051808473ffffffffffffffffffffffffffffffffffffffff168152602001838152602001828152602001935050505060405180910390a1611d298483600001517f000000000000000000000000000000000000000000000000000000000000000073ffffffffffffffffffffffffffffffffffffffff16612aa89092919063ffffffff16565b816000015192505050611f28565b6000611d64612710611d568486600001516125be90919063ffffffff16565b61264490919063ffffffff16565b90506040518060800160405280611d8883866000015161271690919063ffffffff16565b8152602001611dba611da786604001514361271690919063ffffffff16565b866020015161271690919063ffffffff16565b81526020014381526020018460600151815250601060008773ffffffffffffffffffffffffffffffffffffffff1673ffffffffffffffffffffffffffffffffffffffff168152602001908152602001600020600082015181600001556020820151816001015560408201518160020155606082015181600301559050507f51c99f515c87b0d95ba97f616edd182e8f161c4932eac17c6fefe9dab58b77b18582601060008973ffffffffffffffffffffffffffffffffffffffff1673ffffffffffffffffffffffffffffffffffffffff16815260200190815260200160002060000154604051808473ffffffffffffffffffffffffffffffffffffffff168152602001838152602001828152602001935050505060405180910390a1611f2185827f000000000000000000000000000000000000000000000000000000000000000073ffffffffffffffffffffffffffffffffffffffff16612aa89092919063ffffffff16565b8093505050505b919050565b3373ffffffffffffffffffffffffffffffffffffffff1660008054906101000a900473ffffffffffffffffffffffffffffffffffffffff1673ffffffffffffffffffffffffffffffffffffffff1614611fee576040517f08c379a00000000000000000000000000000000000000000000000000000000081526004018080602001828103825260208152602001807f4f776e61626c653a2063616c6c6572206973206e6f7420746865206f776e657281525060200191505060405180910390fd5b6000611ff8611034565b1461204e576040517f08c379a000000000000000000000000000000000000000000000000000000000815260040180806020018281038252602181526020018061356e6021913960400191505060405180910390fd5b6040518060a0016040528087815260200186815260200185815260200184815260200183815250600460008201518160000155602082015181600101556040820151816002015560608201518160030155608082015181600401559050508060118190555043601281905550505050505050565b60007f000000000000000000000000000000000000000000000000000000000000000073ffffffffffffffffffffffffffffffffffffffff163373ffffffffffffffffffffffffffffffffffffffff1614612185576040517f08c379a00000000000000000000000000000000000000000000000000000000081526004018080602001828103825260178152602001807f4f6e6c79207375627369647920636f6e74726f6c6c657200000000000000000081525060200191505060405180910390fd5b6013549050600060138190555090565b60106020528060005260406000206000915090508060000154908060010154908060020154908060030154905084565b6000612352670de0b6b3a764000061234461233f6122997f000000000000000000000000000000000000000000000000000000000000000073ffffffffffffffffffffffffffffffffffffffff1663313ce5676040518163ffffffff1660e01b815260040160206040518083038186803b15801561224257600080fd5b505afa158015612256573d6000803e3d6000fd5b505050506040513d602081101561226c57600080fd5b810190808051906020019092919050505060ff16600a0a61228b611034565b6125be90919063ffffffff16565b7f000000000000000000000000000000000000000000000000000000000000000073ffffffffffffffffffffffffffffffffffffffff166318160ddd6040518163ffffffff1660e01b815260040160206040518083038186803b1580156122ff57600080fd5b505afa158015612313573d6000803e3d6000fd5b505050506040513d602081101561232957600080fd5b8101908080519060200190929190505050612760565b612a41565b61264490919063ffffffff16565b905090565b60048060000154908060010154908060020154908060030154908060040154905085565b600061246761243760057f000000000000000000000000000000000000000000000000000000000000000073ffffffffffffffffffffffffffffffffffffffff1663313ce5676040518163ffffffff1660e01b815260040160206040518083038186803b1580156123eb57600080fd5b505afa1580156123ff573d6000803e3d6000fd5b505050506040513d602081101561241557600080fd5b810190808051906020019092919050505060ff1661271690919063ffffffff16565b600a0a6124596124456121c5565b6004600001546125be90919063ffffffff16565b61264490919063ffffffff16565b905060046002015481101561247f5760046002015490505b90565b6000612551620186a06125436004600301547f000000000000000000000000000000000000000000000000000000000000000073ffffffffffffffffffffffffffffffffffffffff166318160ddd6040518163ffffffff1660e01b815260040160206040518083038186803b1580156124fa57600080fd5b505afa15801561250e573d6000803e3d6000fd5b505050506040513d602081101561252457600080fd5b81019080805190602001909291905050506125be90919063ffffffff16565b61264490919063ffffffff16565b905090565b60008061256e6012544361271690919063ffffffff16565b905061259c60046001015461258e836011546125be90919063ffffffff16565b61264490919063ffffffff16565b91506011548211156125ae5760115491505b5090565b60125481565b60115481565b6000808314156125d1576000905061263e565b60008284029050828482816125e257fe5b0414612639576040517f08c379a000000000000000000000000000000000000000000000000000000000815260040180806020018281038252602181526020018061358f6021913960400191505060405180910390fd5b809150505b92915050565b600061268683836040518060400160405280601a81526020017f536166654d6174683a206469766973696f6e206279207a65726f000000000000815250612e96565b905092915050565b60008082840190508381101561270c576040517f08c379a000000000000000000000000000000000000000000000000000000000815260040180806020018281038252601b8152602001807f536166654d6174683a206164646974696f6e206f766572666c6f77000000000081525060200191505060405180910390fd5b8091505092915050565b600061275883836040518060400160405280601e81526020017f536166654d6174683a207375627472616374696f6e206f766572666c6f770000815250612f5c565b905092915050565b612768613516565b600082116127c1576040517f08c379a00000000000000000000000000000000000000000000000000000000081526004018080602001828103825260268152602001806135486026913960400191505060405180910390fd5b60008314156127ff57604051806020016040528060007bffffffffffffffffffffffffffffffffffffffffffffffffffffffff168152509050612a3b565b7fffffffffffffffffffffffffffffffffffffffffffffffffffffffffffffffff71ffffffffffffffffffffffffffffffffffff16831161293857600082607060ff1685901b8161284c57fe5b0490507fffffffffffffffffffffffffffffffffffffffffffffffffffffffffffffffff7bffffffffffffffffffffffffffffffffffffffffffffffffffffffff16811115612903576040517f08c379a000000000000000000000000000000000000000000000000000000000815260040180806020018281038252601e8152602001807f4669786564506f696e743a3a6672616374696f6e3a206f766572666c6f77000081525060200191505060405180910390fd5b6040518060200160405280827bffffffffffffffffffffffffffffffffffffffffffffffffffffffff16815250915050612a3b565b6000612954846e0100000000000000000000000000008561301c565b90507fffffffffffffffffffffffffffffffffffffffffffffffffffffffffffffffff7bffffffffffffffffffffffffffffffffffffffffffffffffffffffff16811115612a0a576040517f08c379a000000000000000000000000000000000000000000000000000000000815260040180806020018281038252601e8152602001807f4669786564506f696e743a3a6672616374696f6e3a206f766572666c6f77000081525060200191505060405180910390fd5b6040518060200160405280827bffffffffffffffffffffffffffffffffffffffffffffffffffffffff168152509150505b92915050565b60006612725dd1d243ab82600001517bffffffffffffffffffffffffffffffffffffffffffffffffffffffff1681612a7557fe5b049050919050565b612a99612a88612556565b60115461271690919063ffffffff16565b60118190555043601281905550565b612b458363a9059cbb60e01b8484604051602401808373ffffffffffffffffffffffffffffffffffffffff16815260200182815260200192505050604051602081830303815290604052907bffffffffffffffffffffffffffffffffffffffffffffffffffffffff19166020820180517bffffffffffffffffffffffffffffffffffffffffffffffffffffffff83818316178352505050506130de565b505050565b612c05846323b872dd60e01b858585604051602401808473ffffffffffffffffffffffffffffffffffffffff1681526020018373ffffffffffffffffffffffffffffffffffffffff1681526020018281526020019350505050604051602081830303815290604052907bffffffffffffffffffffffffffffffffffffffffffffffffffffffff19166020820180517bffffffffffffffffffffffffffffffffffffffffffffffffffffffff83818316178352505050506130de565b50505050565b6000612cf7612cc760057f000000000000000000000000000000000000000000000000000000000000000073ffffffffffffffffffffffffffffffffffffffff1663313ce5676040518163ffffffff1660e01b815260040160206040518083038186803b158015612c7b57600080fd5b505afa158015612c8f573d6000803e3d6000fd5b505050506040513d6020811015612ca557600080fd5b810190808051906020019092919050505060ff1661271690919063ffffffff16565b600a0a612ce9612cd56121c5565b6004600001546125be90919063ffffffff16565b61264490919063ffffffff16565b9050600460020154811015612d13576004600201549050612d2d565b600060046002015414612d2c5760006004600201819055505b5b90565b6000612d4f60096003015460096004015461268e90919063ffffffff16565b9050600060096001015414158015612d675750804310155b15612e935760006004600001549050600960000160009054906101000a900460ff1615612dd657612dab60096001015460046000015461268e90919063ffffffff16565b60046000018190555060096002015460046000015410612dd15760006009600101819055505b612e1a565b612df360096001015460046000015461271690919063ffffffff16565b60046000018190555060096002015460046000015411612e195760006009600101819055505b5b436009600401819055507fb923e581a0f83128e9e1d8297aa52b18d6744310476e0b54509c054cd7a93b2a81600460000154600960010154600960000160009054906101000a900460ff1660405180858152602001848152602001838152602001821515815260200194505050505060405180910390a1505b50565b60008083118290612f42576040517f08c379a00000000000000000000000000000000000000000000000000000000081526004018080602001828103825283818151815260200191508051906020019080838360005b83811015612f07578082015181840152602081019050612eec565b50505050905090810190601f168015612f345780820380516001836020036101000a031916815260200191505b509250505060405180910390fd5b506000838581612f4e57fe5b049050809150509392505050565b6000838311158290613009576040517f08c379a00000000000000000000000000000000000000000000000000000000081526004018080602001828103825283818151815260200191508051906020019080838360005b83811015612fce578082015181840152602081019050612fb3565b50505050905090810190601f168015612ffb5780820380516001836020036101000a031916815260200191505b509250505060405180910390fd5b5060008385039050809150509392505050565b600080600061302b86866131cd565b915091506000848061303957fe5b86880990508281111561304d576001820391505b80830392508482106130c7576040517f08c379a000000000000000000000000000000000000000000000000000000000815260040180806020018281038252601a8152602001807f46756c6c4d6174683a3a6d756c4469763a206f766572666c6f7700000000000081525060200191505060405180910390fd5b6130d2838387613220565b93505050509392505050565b6060613140826040518060400160405280602081526020017f5361666545524332303a206c6f772d6c6576656c2063616c6c206661696c65648152508573ffffffffffffffffffffffffffffffffffffffff166132bd9092919063ffffffff16565b90506000815111156131c85780806020019051602081101561316157600080fd5b81019080805190602001909291905050506131c7576040517f08c379a000000000000000000000000000000000000000000000000000000000815260040180806020018281038252602a8152602001806135f7602a913960400191505060405180910390fd5b5b505050565b60008060007fffffffffffffffffffffffffffffffffffffffffffffffffffffffffffffffff806131fa57fe5b84860990508385029250828103915082811015613218576001820391505b509250929050565b600080826000038316905080838161323457fe5b04925080858161324057fe5b049450600181826000038161325157fe5b04018402850194506000600190508084026002038102905080840260020381029050808402600203810290508084026002038102905080840260020381029050808402600203810290508084026002038102905080840260020381029050808602925050509392505050565b60606132cc84846000856132d5565b90509392505050565b60606132e0856134db565b613352576040517f08c379a000000000000000000000000000000000000000000000000000000000815260040180806020018281038252601d8152602001807f416464726573733a2063616c6c20746f206e6f6e2d636f6e747261637400000081525060200191505060405180910390fd5b600060608673ffffffffffffffffffffffffffffffffffffffff1685876040518082805190602001908083835b602083106133a2578051825260208201915060208101905060208303925061337f565b6001836020036101000a03801982511681845116808217855250505050505090500191505060006040518083038185875af1925050503d8060008114613404576040519150601f19603f3d011682016040523d82523d6000602084013e613409565b606091505b5091509150811561341e5780925050506134d3565b6000815111156134315780518082602001fd5b836040517f08c379a00000000000000000000000000000000000000000000000000000000081526004018080602001828103825283818151815260200191508051906020019080838360005b8381101561349857808201518184015260208101905061347d565b50505050905090810190601f1680156134c55780820380516001836020036101000a031916815260200191505b509250505060405180910390fd5b949350505050565b600080823b905060008111915050919050565b6040518060800160405280600081526020016000815260200160008152602001600081525090565b604051806020016040528060007bffffffffffffffffffffffffffffffffffffffffffffffffffffffff168152509056fe4669786564506f696e743a3a6672616374696f6e3a206469766973696f6e206279207a65726f44656274206d757374206265203020666f7220696e697469616c697a6174696f6e536166654d6174683a206d756c7469706c69636174696f6e206f766572666c6f77536c697070616765206c696d69743a206d6f7265207468616e206d617820707269636556657374696e67206d757374206265206c6f6e676572207468616e20333620686f7572735361666545524332303a204552433230206f7065726174696f6e20646964206e6f742073756363656564a264697066735822122090fa254309a272f0bce3b5940776d91f8ba7e3d8a45416bf01068da5b80cf79064736f6c6343000705003374696572206c656e67746820616e6420666565206c656e677468206e6f74207468652073616d65",
  "linkReferences": {},
  "deployedLinkReferences": {}
}