{
  "_format": "hh-sol-artifact-1",
  "contractName": "BondiiProBond",
  "sourceName": "contracts/modules/Bond.sol",
  "abi": [
    {
      "inputs": [
        {
          "internalType": "address",
          "name": "_customTreasury",
          "type": "address"
        },
        {
          "internalType": "address",
          "name": "_initialOwner",
          "type": "address"
        }
      ],
      "stateMutability": "nonpayable",
      "type": "constructor"
    },
    {
      "anonymous": false,
      "inputs": [
        {
          "indexed": false,
          "internalType": "uint256",
          "name": "deposit",
          "type": "uint256"
        },
        {
          "indexed": false,
          "internalType": "uint256",
          "name": "payout",
          "type": "uint256"
        },
        {
          "indexed": false,
          "internalType": "uint256",
          "name": "expires",
          "type": "uint256"
        }
      ],
      "name": "BondCreated",
      "type": "event"
    },
    {
      "anonymous": false,
      "inputs": [
        {
          "indexed": false,
          "internalType": "uint256",
          "name": "internalPrice",
          "type": "uint256"
        },
        {
          "indexed": false,
          "internalType": "uint256",
          "name": "debtRatio",
          "type": "uint256"
        }
      ],
      "name": "BondPriceChanged",
      "type": "event"
    },
    {
      "anonymous": false,
      "inputs": [
        {
          "indexed": false,
          "internalType": "address",
          "name": "recipient",
          "type": "address"
        },
        {
          "indexed": false,
          "internalType": "uint256",
          "name": "payout",
          "type": "uint256"
        },
        {
          "indexed": false,
          "internalType": "uint256",
          "name": "remaining",
          "type": "uint256"
        }
      ],
      "name": "BondRedeemed",
      "type": "event"
    },
    {
      "anonymous": false,
      "inputs": [
        {
          "indexed": false,
          "internalType": "uint256",
          "name": "initialBCV",
          "type": "uint256"
        },
        {
          "indexed": false,
          "internalType": "uint256",
          "name": "newBCV",
          "type": "uint256"
        },
        {
          "indexed": false,
          "internalType": "uint256",
          "name": "adjustment",
          "type": "uint256"
        },
        {
          "indexed": false,
          "internalType": "bool",
          "name": "addition",
          "type": "bool"
        }
      ],
      "name": "ControlVariableAdjustment",
      "type": "event"
    },
    {
      "inputs": [
        {
          "internalType": "address",
          "name": "",
          "type": "address"
        },
        {
          "internalType": "uint256",
          "name": "",
          "type": "uint256"
        }
      ],
      "name": "bondInfo",
      "outputs": [
        {
          "internalType": "uint256",
          "name": "payout",
          "type": "uint256"
        },
        {
          "internalType": "uint256",
          "name": "vesting",
          "type": "uint256"
        },
        {
          "internalType": "uint256",
          "name": "lastBlock",
          "type": "uint256"
        },
        {
          "internalType": "uint256",
          "name": "truePricePaid",
          "type": "uint256"
        },
        {
          "internalType": "address",
          "name": "principalToken",
          "type": "address"
        }
      ],
      "stateMutability": "view",
      "type": "function"
    },
    {
      "inputs": [
        {
          "internalType": "address",
          "name": "_principalToken",
          "type": "address"
        }
      ],
      "name": "bondPrice",
      "outputs": [
        {
          "internalType": "uint256",
          "name": "price_",
          "type": "uint256"
        }
      ],
      "stateMutability": "view",
      "type": "function"
    },
    {
      "inputs": [
        {
          "internalType": "address",
          "name": "_principalToken",
          "type": "address"
        },
        {
          "internalType": "bool",
          "name": "_status",
          "type": "bool"
        }
      ],
      "name": "bondToggle",
      "outputs": [],
      "stateMutability": "nonpayable",
      "type": "function"
    },
    {
      "inputs": [
        {
          "internalType": "address",
          "name": "_principalToken",
          "type": "address"
        }
      ],
      "name": "currentDebt",
      "outputs": [
        {
          "internalType": "uint256",
          "name": "",
          "type": "uint256"
        }
      ],
      "stateMutability": "view",
      "type": "function"
    },
    {
      "inputs": [
        {
          "internalType": "address",
          "name": "_pricipalToken",
          "type": "address"
        }
      ],
      "name": "debtDecay",
      "outputs": [
        {
          "internalType": "uint256",
          "name": "decay_",
          "type": "uint256"
        }
      ],
      "stateMutability": "view",
      "type": "function"
    },
    {
      "inputs": [
        {
          "internalType": "address",
          "name": "_principalToken",
          "type": "address"
        }
      ],
      "name": "debtRatio",
      "outputs": [
        {
          "internalType": "uint256",
          "name": "debtRatio_",
          "type": "uint256"
        }
      ],
      "stateMutability": "view",
      "type": "function"
    },
    {
      "inputs": [
        {
          "internalType": "uint256",
          "name": "_amount",
          "type": "uint256"
        },
        {
          "internalType": "address",
          "name": "_depositor",
          "type": "address"
        },
        {
          "internalType": "address",
          "name": "_principalToken",
          "type": "address"
        }
      ],
      "name": "deposit",
      "outputs": [
        {
          "internalType": "uint256",
          "name": "",
          "type": "uint256"
        }
      ],
      "stateMutability": "nonpayable",
      "type": "function"
    },
    {
      "inputs": [
        {
          "internalType": "address",
          "name": "_depositor",
          "type": "address"
        }
      ],
      "name": "fetchUserBonds",
      "outputs": [
        {
          "components": [
            {
              "internalType": "uint256",
              "name": "payout",
              "type": "uint256"
            },
            {
              "internalType": "uint256",
              "name": "vesting",
              "type": "uint256"
            },
            {
              "internalType": "uint256",
              "name": "lastBlock",
              "type": "uint256"
            },
            {
              "internalType": "uint256",
              "name": "truePricePaid",
              "type": "uint256"
            },
            {
              "internalType": "address",
              "name": "principalToken",
              "type": "address"
            }
          ],
          "internalType": "struct BondiiProBond.Bond[]",
          "name": "",
          "type": "tuple[]"
        }
      ],
      "stateMutability": "view",
      "type": "function"
    },
    {
      "inputs": [
        {
          "internalType": "uint256",
          "name": "_controlVariable",
          "type": "uint256"
        },
        {
          "internalType": "uint256",
          "name": "_vestingTerm",
          "type": "uint256"
        },
        {
          "internalType": "uint256",
          "name": "_minimumPrice",
          "type": "uint256"
        },
        {
          "internalType": "uint256",
          "name": "_maxPayout",
          "type": "uint256"
        },
        {
          "internalType": "uint256",
          "name": "_maxDebt",
          "type": "uint256"
        },
        {
          "internalType": "uint256",
          "name": "_initialDebt",
          "type": "uint256"
        },
        {
          "internalType": "address",
          "name": "_newPrincipalToken",
          "type": "address"
        }
      ],
      "name": "initializeBond",
      "outputs": [],
      "stateMutability": "nonpayable",
      "type": "function"
    },
    {
      "inputs": [
        {
          "internalType": "address",
          "name": "_principalToken",
          "type": "address"
        }
      ],
      "name": "maxPayout",
      "outputs": [
        {
          "internalType": "uint256",
          "name": "",
          "type": "uint256"
        }
      ],
      "stateMutability": "view",
      "type": "function"
    },
    {
      "inputs": [
        {
          "internalType": "uint256",
          "name": "_value",
          "type": "uint256"
        },
        {
          "internalType": "address",
          "name": "_principalToken",
          "type": "address"
        }
      ],
      "name": "payoutFor",
      "outputs": [
        {
          "internalType": "uint256",
          "name": "_payout",
          "type": "uint256"
        },
        {
          "internalType": "uint256",
          "name": "_fee",
          "type": "uint256"
        }
      ],
      "stateMutability": "view",
      "type": "function"
    },
    {
      "inputs": [
        {
          "internalType": "address",
          "name": "_depositor",
          "type": "address"
        },
        {
          "internalType": "uint256",
          "name": "_index",
          "type": "uint256"
        }
      ],
      "name": "pendingPayoutFor",
      "outputs": [
        {
          "internalType": "uint256",
          "name": "pendingPayout_",
          "type": "uint256"
        }
      ],
      "stateMutability": "view",
      "type": "function"
    },
    {
      "inputs": [
        {
          "internalType": "address",
          "name": "_depositor",
          "type": "address"
        },
        {
          "internalType": "uint256",
          "name": "_index",
          "type": "uint256"
        }
      ],
      "name": "percentVestedFor",
      "outputs": [
        {
          "internalType": "uint256",
          "name": "percentVested_",
          "type": "uint256"
        }
      ],
      "stateMutability": "view",
      "type": "function"
    },
    {
      "inputs": [],
      "name": "policy",
      "outputs": [
        {
          "internalType": "address",
          "name": "",
          "type": "address"
        }
      ],
      "stateMutability": "view",
      "type": "function"
    },
    {
      "inputs": [
        {
          "internalType": "address",
          "name": "_depositor",
          "type": "address"
        },
        {
          "internalType": "address",
          "name": "_principalToken",
          "type": "address"
        },
        {
          "internalType": "uint256",
          "name": "_index",
          "type": "uint256"
        }
      ],
      "name": "redeem",
      "outputs": [
        {
          "internalType": "uint256",
          "name": "",
          "type": "uint256"
        }
      ],
      "stateMutability": "nonpayable",
      "type": "function"
    },
    {
      "inputs": [
        {
          "internalType": "bool",
          "name": "_addition",
          "type": "bool"
        },
        {
          "internalType": "uint256",
          "name": "_increment",
          "type": "uint256"
        },
        {
          "internalType": "uint256",
          "name": "_target",
          "type": "uint256"
        },
        {
          "internalType": "uint256",
          "name": "_buffer",
          "type": "uint256"
        },
        {
          "internalType": "address",
          "name": "_principalToken",
          "type": "address"
        }
      ],
      "name": "setAdjustment",
      "outputs": [],
      "stateMutability": "nonpayable",
      "type": "function"
    },
    {
      "inputs": [
        {
          "internalType": "enum BondiiProBond.PARAMETER",
          "name": "_parameter",
          "type": "uint8"
        },
        {
          "internalType": "uint256",
          "name": "_input",
          "type": "uint256"
        },
        {
          "internalType": "address",
          "name": "principalAddress",
          "type": "address"
        }
      ],
      "name": "setBondTerms",
      "outputs": [],
      "stateMutability": "nonpayable",
      "type": "function"
    },
    {
      "inputs": [
        {
          "internalType": "address",
          "name": "_newOwner",
          "type": "address"
        }
      ],
      "name": "transferManagment",
      "outputs": [],
      "stateMutability": "nonpayable",
      "type": "function"
    }
  ],
  "bytecode": "0x60c06040523480156200001157600080fd5b5060405162002a3738038062002a37833981016040819052620000349162000139565b600080546001600160a01b031916331790556001600160a01b0382166200005a57600080fd5b6001600160a01b03821660a0819052604080516319473d3360e21b8152905163651cf4cc91600480820192602092909190829003018186803b158015620000a057600080fd5b505afa158015620000b5573d6000803e3d6000fd5b505050506040513d601f19601f82011682018060405250810190620000db919062000171565b6001600160a01b039081166080528116620000f557600080fd5b600080546001600160a01b0319166001600160a01b03929092169190911790555062000196565b80516001600160a01b03811681146200013457600080fd5b919050565b600080604083850312156200014d57600080fd5b62000158836200011c565b915062000168602084016200011c565b90509250929050565b6000602082840312156200018457600080fd5b6200018f826200011c565b9392505050565b60805160a05161283c620001fb6000396000818161076301528181610b2e0152610b9d01526000818161047d01528181610650015281816107fa01528181610ca601528181610d510152818161121c015281816115260152611afc015261283c6000f3fe608060405234801561001057600080fd5b50600436106101165760003560e01c8063884719f2116100a2578063b11512e211610071578063b11512e214610292578063c69148a0146102a5578063de8d9708146102b8578063e300e98b146102cb578063f54fef40146102de57600080fd5b8063884719f2146102085780638ad59c701461021b5780638ae31d4c1461025f578063941b06861461027257600080fd5b80632f74f461116100e95780632f74f461146101a75780633796c67e146101ba5780633bfdd7de146101cd57806362356812146101e25780636e979c6a146101f557600080fd5b80630505c8c91461011b5780630523f1c31461014b5780630e6dfcd5146101735780632e2d298414610194575b600080fd5b60005461012e906001600160a01b031681565b6040516001600160a01b0390911681526020015b60405180910390f35b61015e6101593660046122af565b6102f1565b60408051928352602083019190915201610142565b6101866101813660046122db565b610326565b604051908152602001610142565b6101866101a2366004612317565b610688565b6101866101b5366004612353565b610c8d565b6101866101c836600461236e565b610de6565b6101e06101db366004612353565b610e62565b005b6101e06101f03660046123a9565b610ec1565b61018661020336600461236e565b610fca565b610186610216366004612353565b61108d565b61022e61022936600461236e565b6110ba565b6040805195865260208601949094529284019190915260608301526001600160a01b0316608082015260a001610142565b6101e061026d3660046123fb565b611111565b610285610280366004612353565b611166565b6040516101429190612432565b6101866102a0366004612353565b611210565b6101e06102b33660046124a9565b611333565b6101866102c6366004612353565b61144b565b6101866102d9366004612353565b6114ef565b6101e06102ec366004612505565b6115b5565b60008061031d64174876e8006103176103128761030d88611210565b61173d565b611878565b90611898565b91509250929050565b6001600160a01b03831660009081526007602052604081208054829190849081106103535761035361253e565b600091825260208083206040805160a08101825260059094029091018054845260018101549284019290925260028201549083015260038101546060830152600401546001600160a01b0316608082015291506103b08685610fca565b905061271081106104ae576001600160a01b03861660009081526007602052604090208054859081106103e5576103e561253e565b6000918252602080832060059290920290910182815560018101839055600281018390556003810183905560040180546001600160a01b03191690558351604080516001600160a01b038b168152928301919091528101919091527f51c99f515c87b0d95ba97f616edd182e8f161c4932eac17c6fefe9dab58b77b19060600160405180910390a181516104a5906001600160a01b037f0000000000000000000000000000000000000000000000000000000000000000169088906118da565b50519050610681565b81516000906104c59061271090610317908561193d565b90506040518060a001604052806104e98386600001516119bc90919063ffffffff16565b81526020016105136105088660400151436119bc90919063ffffffff16565b6020870151906119bc565b81526020014381526020018460600151815260200184608001516001600160a01b031681525060076000896001600160a01b03166001600160a01b03168152602001908152602001600020868154811061056f5761056f61253e565b60009182526020808320845160059390930201918255838101516001830155604080850151600284015560608501516003840155608090940151600490920180546001600160a01b0319166001600160a01b03938416179055908a168252600790522080547f51c99f515c87b0d95ba97f616edd182e8f161c4932eac17c6fefe9dab58b77b19189918491908990811061060b5761060b61253e565b600091825260209182902060059091020154604080516001600160a01b0390951685529184019290925282015260600160405180910390a16106776001600160a01b037f00000000000000000000000000000000000000000000000000000000000000001688836118da565b9250610681915050565b9392505050565b60006001600160a01b0383166106d75760405162461bcd60e51b815260206004820152600f60248201526e496e76616c6964206164647265737360881b60448201526064015b60405180910390fd5b6001600160a01b03821660009081526008602052604090205460ff166107315760405162461bcd60e51b815260206004820152600f60248201526e426f6e64206e6f742061637469766560881b60448201526064016106ce565b61073a826119fe565b60405163d1b317e560e01b81526001600160a01b038381166004830152602482018690526000917f00000000000000000000000000000000000000000000000000000000000000009091169063d1b317e59060440160206040518083038186803b1580156107a757600080fd5b505afa1580156107bb573d6000803e3d6000fd5b505050506040513d601f19601f820116820180604052508101906107df9190612554565b90506000806107ee83866102f1565b809250819350505060647f00000000000000000000000000000000000000000000000000000000000000006001600160a01b031663313ce5676040518163ffffffff1660e01b815260040160206040518083038186803b15801561085157600080fd5b505afa158015610865573d6000803e3d6000fd5b505050506040513d601f19601f82011682018060405250810190610889919061256d565b61089490600a612682565b61089e91906126a7565b8210156108de5760405162461bcd60e51b815260206004820152600e60248201526d109bdb99081d1bdbc81cdb585b1b60921b60448201526064016106ce565b6108e7856114ef565b8211156109275760405162461bcd60e51b815260206004820152600e60248201526d426f6e6420746f6f206c6172676560901b60448201526064016106ce565b6001600160a01b03851660009081526003602052604090205461094a9084611a53565b6001600160a01b03861660009081526003602081815260408084208590556005825290922060040154915210156109ba5760405162461bcd60e51b815260206004820152601460248201527313585e0818d85c1858da5d1e481c995858da195960621b60448201526064016106ce565b6040805160a0810182526001600160a01b0388166000908152600760205291822080548291610a05918791906109ee61253e565b600091825260209091206005909102015490611a53565b81526001600160a01b03881660009081526005602090815260409182902060010154908301524390820152606001610a3c88611210565b81526001600160a01b0388811660209283018190528a8216600090815260078452604080822080546001808201835591845286842088516005909202019081558787015181830155878301516002820155606088015160038201556080880151600490910180546001600160a01b0319169190961617909455918152919092522054909150610acb9089611a53565b6001600160a01b038716600090815260016020908152604080832093909355600290522054610afa9084611a53565b6001600160a01b03878116600090815260026020526040908190209290925590516301609f2360e31b8152600481018590527f000000000000000000000000000000000000000000000000000000000000000090911690630b04f91890602401600060405180830381600087803b158015610b7457600080fd5b505af1158015610b88573d6000803e3d6000fd5b50610bc2925050506001600160a01b038716337f00000000000000000000000000000000000000000000000000000000000000008b611ab2565b6001600160a01b0386166000908152600560205260409020600101547fb7ce5a2d90f1705ca02547b0eb827724683e0df3b809477ae4326d0eefed0bc09089908590610c0f904390611a53565b6040805193845260208401929092529082015260600160405180910390a17f2cb17bd1fd2a1fecfefae2de1e6a59194abaa62179652924ccdca01617f0bf16610c5787611af0565b610c6088610c8d565b6040805192835260208301919091520160405180910390a1610c8186611bda565b50909695505050505050565b6000610de0670de0b6b3a7640000610317610312610d4f7f00000000000000000000000000000000000000000000000000000000000000006001600160a01b031663313ce5676040518163ffffffff1660e01b815260040160206040518083038186803b158015610cfd57600080fd5b505afa158015610d11573d6000803e3d6000fd5b505050506040513d601f19601f82011682018060405250810190610d35919061256d565b610d4090600a612682565b610d498861108d565b9061193d565b7f00000000000000000000000000000000000000000000000000000000000000006001600160a01b03166318160ddd6040518163ffffffff1660e01b815260040160206040518083038186803b158015610da857600080fd5b505afa158015610dbc573d6000803e3d6000fd5b505050506040513d601f19601f8201168201806040525081019061030d9190612554565b92915050565b600080610df38484610fca565b6001600160a01b03851660009081526007602052604081208054929350909185908110610e2257610e2261253e565b90600052602060002090600502016000015490506127108210610e4757809250610e5a565b610e57612710610317838561193d565b92505b505092915050565b6000546001600160a01b03163314610e8c5760405162461bcd60e51b81526004016106ce906126c9565b6001600160a01b038116610e9f57600080fd5b600080546001600160a01b0319166001600160a01b0392909216919091179055565b6000546001600160a01b03163314610eeb5760405162461bcd60e51b81526004016106ce906126c9565b6001600160a01b038116600090815260056020526040902054610f17906103e89061031790601e61193d565b841115610f5c5760405162461bcd60e51b8152602060048201526013602482015272496e6372656d656e7420746f6f206c6172676560681b60448201526064016106ce565b6040805160a081018252951515865260208087019586528682019485526060870193845243608088019081526001600160a01b039390931660009081526006909152209451855460ff1916901515178555925160018501559051600284015551600383015551600490910155565b6001600160a01b0382166000908152600760205260408120805482919084908110610ff757610ff761253e565b600091825260208083206040805160a0810182526005909402909101805484526001810154928401929092526002820154908301819052600382015460608401526004909101546001600160a01b0316608083015290925061105a9043906119bc565b6020830151909150801561107f57611078816103178461271061193d565b9350611084565b600093505b50505092915050565b6000610de061109b8361144b565b6001600160a01b038416600090815260036020526040902054906119bc565b600760205281600052604060002081815481106110d657600080fd5b60009182526020909120600590910201805460018201546002830154600384015460049094015492955090935091906001600160a01b031685565b6000546001600160a01b0316331461113b5760405162461bcd60e51b81526004016106ce906126c9565b6001600160a01b03919091166000908152600860205260409020805460ff1916911515919091179055565b6001600160a01b0381166000908152600760209081526040808320805482518185028101850190935280835260609492939192909184015b828210156112055760008481526020908190206040805160a08101825260058602909201805483526001808201548486015260028201549284019290925260038101546060840152600401546001600160a01b03166080830152908352909201910161119e565b505050509050919050565b60006112ea6112b460057f00000000000000000000000000000000000000000000000000000000000000006001600160a01b031663313ce5676040518163ffffffff1660e01b815260040160206040518083038186803b15801561127357600080fd5b505afa158015611287573d6000803e3d6000fd5b505050506040513d601f19601f820116820180604052508101906112ab919061256d565b60ff16906119bc565b6112bf90600a6126fe565b6103176112cb85610c8d565b6001600160a01b0386166000908152600560205260409020549061193d565b6001600160a01b03831660009081526005602052604090206002015490915081101561132e57506001600160a01b0381166000908152600560205260409020600201545b919050565b6000546001600160a01b0316331461135d5760405162461bcd60e51b81526004016106ce906126c9565b6113668161108d565b156113bd5760405162461bcd60e51b815260206004820152602160248201527f44656274206d757374206265203020666f7220696e697469616c697a6174696f6044820152603760f91b60648201526084016106ce565b6040805160a081018252978852602080890197885288820196875260608901958652608089019485526001600160a01b039092166000908152600583528181209851895596516001808a01919091559551600289015593516003808901919091559251600497880155918252828520559384528083204390556008909352919020805460ff19169091179055565b6001600160a01b03811660009081526004602052604081205481906114719043906119bc565b6001600160a01b0384166000908152600560209081526040808320600101546003909252909120549192506114aa91610317908461193d565b6001600160a01b0384166000908152600360205260409020549092508211156114e9576001600160a01b03831660009081526003602052604090205491505b50919050565b6000610de0620186a061031760056000866001600160a01b03166001600160a01b03168152602001908152602001600020600301547f00000000000000000000000000000000000000000000000000000000000000006001600160a01b03166318160ddd6040518163ffffffff1660e01b815260040160206040518083038186803b15801561157d57600080fd5b505afa158015611591573d6000803e3d6000fd5b505050506040513d601f19601f82011682018060405250810190610d499190612554565b6000546001600160a01b031633146115df5760405162461bcd60e51b81526004016106ce906126c9565b60008360028111156115f3576115f361270a565b1415611675576127108210156116575760405162461bcd60e51b8152602060048201526024808201527f56657374696e67206d757374206265206c6f6e676572207468616e20333620686044820152636f75727360e01b60648201526084016106ce565b6001600160a01b031660009081526005602052604090206001015550565b60018360028111156116895761168961270a565b14156116ff576103e88211156116e15760405162461bcd60e51b815260206004820181905260248201527f5061796f75742063616e6e6f742062652061626f766520312070657263656e7460448201526064016106ce565b6001600160a01b031660009081526005602052604090206003015550565b60028360028111156117135761171361270a565b1415611738576001600160a01b03811660009081526005602052604090206004018290555b505050565b604080516020810190915260008152600082116117ab5760405162461bcd60e51b815260206004820152602660248201527f4669786564506f696e743a3a6672616374696f6e3a206469766973696f6e206260448201526579207a65726f60d01b60648201526084016106ce565b826117c55750604080516020810190915260008152610de0565b71ffffffffffffffffffffffffffffffffffff83116118675760006117ee83607086901b6126a7565b90506001600160e01b038111156118475760405162461bcd60e51b815260206004820152601e60248201527f4669786564506f696e743a3a6672616374696f6e3a206f766572666c6f77000060448201526064016106ce565b6040518060200160405280826001600160e01b0316815250915050610de0565b60006117ee84600160701b85611de9565b8051600090610de0906612725dd1d243ab906001600160e01b03166126a7565b600061068183836040518060400160405280601a81526020017f536166654d6174683a206469766973696f6e206279207a65726f000000000000815250611e98565b6040516001600160a01b03831660248201526044810182905261173890849063a9059cbb60e01b906064015b60408051601f198184030181529190526020810180516001600160e01b03166001600160e01b031990931692909217909152611ecf565b60008261194c57506000610de0565b60006119588385612720565b90508261196585836126a7565b146106815760405162461bcd60e51b815260206004820152602160248201527f536166654d6174683a206d756c7469706c69636174696f6e206f766572666c6f6044820152607760f81b60648201526084016106ce565b600061068183836040518060400160405280601e81526020017f536166654d6174683a207375627472616374696f6e206f766572666c6f770000815250611fa1565b611a29611a0a8261144b565b6001600160a01b038316600090815260036020526040902054906119bc565b6001600160a01b039091166000908152600360209081526040808320939093556004905220439055565b600080611a60838561273f565b9050838110156106815760405162461bcd60e51b815260206004820152601b60248201527f536166654d6174683a206164646974696f6e206f766572666c6f77000000000060448201526064016106ce565b6040516001600160a01b0380851660248301528316604482015260648101829052611aea9085906323b872dd60e01b90608401611906565b50505050565b6000611b536112b460057f00000000000000000000000000000000000000000000000000000000000000006001600160a01b031663313ce5676040518163ffffffff1660e01b815260040160206040518083038186803b15801561127357600080fd5b6001600160a01b038316600090815260056020526040902060020154909150811015611b9857506001600160a01b031660009081526005602052604090206002015490565b6001600160a01b0382166000908152600560205260409020600201541561132e576001600160a01b038216600090815260056020526040812060020155919050565b6001600160a01b03811660009081526006602052604081206003810154600490910154611c0691611a53565b6001600160a01b03831660009081526006602052604090206001015490915015801590611c335750804310155b15611de5576001600160a01b03821660009081526005602090815260408083205460069092529091205460ff1615611ce8576001600160a01b038316600090815260066020908152604080832060010154600590925290912054611c9691611a53565b6001600160a01b03841660009081526005602081815260408084208590556006825290922060020154915211611ce3576001600160a01b0383166000908152600660205260408120600101555b611d66565b6001600160a01b038316600090815260066020908152604080832060010154600590925290912054611d19916119bc565b6001600160a01b03841660009081526005602081815260408084208590556006825290922060020154915210611d66576001600160a01b0383166000908152600660205260408120600101555b6001600160a01b03831660009081526006602081815260408084204360048201556005835293819020549282526001840154935481518681529283019390935281019290925260ff16151560608201527fb923e581a0f83128e9e1d8297aa52b18d6744310476e0b54509c054cd7a93b2a9060800160405180910390a1505b5050565b6000806000611df88686611fd2565b9150915060008480611e0c57611e0c612691565b868809905082811115611e2757611e24600183612757565b91505b611e318184612757565b9250848210611e825760405162461bcd60e51b815260206004820152601a60248201527f46756c6c4d6174683a3a6d756c4469763a206f766572666c6f7700000000000060448201526064016106ce565b611e8d838387612014565b979650505050505050565b60008183611eb95760405162461bcd60e51b81526004016106ce919061279a565b506000611ec684866126a7565b95945050505050565b6000611f24826040518060400160405280602081526020017f5361666545524332303a206c6f772d6c6576656c2063616c6c206661696c6564815250856001600160a01b03166121959092919063ffffffff16565b8051909150156117385780806020019051810190611f4291906127cd565b6117385760405162461bcd60e51b815260206004820152602a60248201527f5361666545524332303a204552433230206f7065726174696f6e20646964206e6044820152691bdd081cdd58d8d9595960b21b60648201526084016106ce565b60008184841115611fc55760405162461bcd60e51b81526004016106ce919061279a565b506000611ec68486612757565b600080806000198486099050611fe88486612720565b9250611ff48382612757565b91508281101561200c57612009600183612757565b91505b509250929050565b60008061202383600019612757565b8316905061203181846126a7565b925061203d81866126a7565b94508061204c81600019612757565b61205691906126a7565b61206190600161273f565b61206b9085612720565b612075908661273f565b945060016120838185612720565b61208e906002612757565b6120989082612720565b90506120a48185612720565b6120af906002612757565b6120b99082612720565b90506120c58185612720565b6120d0906002612757565b6120da9082612720565b90506120e68185612720565b6120f1906002612757565b6120fb9082612720565b90506121078185612720565b612112906002612757565b61211c9082612720565b90506121288185612720565b612133906002612757565b61213d9082612720565b90506121498185612720565b612154906002612757565b61215e9082612720565b905061216a8185612720565b612175906002612757565b61217f9082612720565b905061218b8187612720565b9695505050505050565b60606121a484846000856121ac565b949350505050565b6060843b6121fc5760405162461bcd60e51b815260206004820152601d60248201527f416464726573733a2063616c6c20746f206e6f6e2d636f6e747261637400000060448201526064016106ce565b600080866001600160a01b0316858760405161221891906127ea565b60006040518083038185875af1925050503d8060008114612255576040519150601f19603f3d011682016040523d82523d6000602084013e61225a565b606091505b5091509150811561226e5791506121a49050565b80511561227e5780518082602001fd5b8360405162461bcd60e51b81526004016106ce919061279a565b80356001600160a01b038116811461132e57600080fd5b600080604083850312156122c257600080fd5b823591506122d260208401612298565b90509250929050565b6000806000606084860312156122f057600080fd5b6122f984612298565b925061230760208501612298565b9150604084013590509250925092565b60008060006060848603121561232c57600080fd5b8335925061233c60208501612298565b915061234a60408501612298565b90509250925092565b60006020828403121561236557600080fd5b61068182612298565b6000806040838503121561238157600080fd5b61238a83612298565b946020939093013593505050565b80151581146123a657600080fd5b50565b600080600080600060a086880312156123c157600080fd5b85356123cc81612398565b94506020860135935060408601359250606086013591506123ef60808701612298565b90509295509295909350565b6000806040838503121561240e57600080fd5b61241783612298565b9150602083013561242781612398565b809150509250929050565b602080825282518282018190526000919060409081850190868401855b8281101561249c5781518051855286810151878601528581015186860152606080820151908601526080908101516001600160a01b03169085015260a0909301929085019060010161244f565b5091979650505050505050565b600080600080600080600060e0888a0312156124c457600080fd5b873596506020880135955060408801359450606088013593506080880135925060a088013591506124f760c08901612298565b905092959891949750929550565b60008060006060848603121561251a57600080fd5b83356003811061252957600080fd5b92506020840135915061234a60408501612298565b634e487b7160e01b600052603260045260246000fd5b60006020828403121561256657600080fd5b5051919050565b60006020828403121561257f57600080fd5b815160ff8116811461068157600080fd5b634e487b7160e01b600052601160045260246000fd5b600181815b8085111561200c5781600019048211156125c7576125c7612590565b808516156125d457918102915b93841c93908002906125ab565b6000826125f057506001610de0565b816125fd57506000610de0565b8160018114612613576002811461261d57612639565b6001915050610de0565b60ff84111561262e5761262e612590565b50506001821b610de0565b5060208310610133831016604e8410600b841016171561265c575081810a610de0565b61266683836125a6565b806000190482111561267a5761267a612590565b029392505050565b600061068160ff8416836125e1565b634e487b7160e01b600052601260045260246000fd5b6000826126c457634e487b7160e01b600052601260045260246000fd5b500490565b6020808252818101527f4f776e61626c653a2063616c6c6572206973206e6f7420746865206f776e6572604082015260600190565b600061068183836125e1565b634e487b7160e01b600052602160045260246000fd5b600081600019048311821515161561273a5761273a612590565b500290565b6000821982111561275257612752612590565b500190565b60008282101561276957612769612590565b500390565b60005b83811015612789578181015183820152602001612771565b83811115611aea5750506000910152565b60208152600082518060208401526127b981604085016020870161276e565b601f01601f19169190910160400192915050565b6000602082840312156127df57600080fd5b815161068181612398565b600082516127fc81846020870161276e565b919091019291505056fea2646970667358221220e85f61558f227274d20df08def1d1619ba9e218b3a8ec10b1c87647baeeef45864736f6c63430008090033",
  "linkReferences": {},
  "deployedLinkReferences": {}
}