{
  "_format": "hh-sol-artifact-1",
  "contractName": "OlympusProFactoryStorage",
  "sourceName": "contracts/OlympusProFactoryStorage.sol",
  "abi": [
    {
      "anonymous": false,
      "inputs": [
        {
          "indexed": false,
          "internalType": "address",
          "name": "treasury",
          "type": "address"
        },
        {
          "indexed": false,
          "internalType": "address",
          "name": "bond",
          "type": "address"
        },
        {
          "indexed": false,
          "internalType": "address",
          "name": "staking",
          "type": "address"
        },
        {
          "indexed": false,
          "internalType": "address",
          "name": "_initialOwner",
          "type": "address"
        }
      ],
      "name": "BondCreation",
      "type": "event"
    },
    {
      "inputs": [
        {
          "internalType": "uint256",
          "name": "",
          "type": "uint256"
        }
      ],
      "name": "bondDetails",
      "outputs": [
        {
          "internalType": "address",
          "name": "_principalToken",
          "type": "address"
        },
        {
          "internalType": "address",
          "name": "_treasuryAddress",
          "type": "address"
        },
        {
          "internalType": "address",
          "name": "_bondAddress",
          "type": "address"
        },
        {
          "internalType": "address",
          "name": "_stakingAddress",
          "type": "address"
        },
        {
          "internalType": "address",
          "name": "_initialOwner",
          "type": "address"
        }
      ],
      "stateMutability": "view",
      "type": "function"
    },
    {
      "inputs": [],
      "name": "fetchBondDetails",
      "outputs": [
        {
          "components": [
            {
              "internalType": "address",
              "name": "_principalToken",
              "type": "address"
            },
            {
              "internalType": "address",
              "name": "_treasuryAddress",
              "type": "address"
            },
            {
              "internalType": "address",
              "name": "_bondAddress",
              "type": "address"
            },
            {
              "internalType": "address",
              "name": "_stakingAddress",
              "type": "address"
            },
            {
              "internalType": "address",
              "name": "_initialOwner",
              "type": "address"
            },
            {
              "internalType": "uint256[]",
              "name": "_tierCeilings",
              "type": "uint256[]"
            },
            {
              "internalType": "uint256[]",
              "name": "_fees",
              "type": "uint256[]"
            }
          ],
          "internalType": "struct OlympusProFactoryStorage.BondDetails[]",
          "name": "details",
          "type": "tuple[]"
        }
      ],
      "stateMutability": "view",
      "type": "function"
    },
    {
      "inputs": [
        {
          "internalType": "address",
          "name": "",
          "type": "address"
        }
      ],
      "name": "indexOfBond",
      "outputs": [
        {
          "internalType": "uint256",
          "name": "",
          "type": "uint256"
        }
      ],
      "stateMutability": "view",
      "type": "function"
    },
    {
      "inputs": [],
      "name": "olympusProFactory",
      "outputs": [
        {
          "internalType": "address",
          "name": "",
          "type": "address"
        }
      ],
      "stateMutability": "view",
      "type": "function"
    },
    {
      "inputs": [],
      "name": "policy",
      "outputs": [
        {
          "internalType": "address",
          "name": "",
          "type": "address"
        }
      ],
      "stateMutability": "view",
      "type": "function"
    },
    {
      "inputs": [
        {
          "internalType": "address[5]",
          "name": "addresses",
          "type": "address[5]"
        },
        {
          "internalType": "uint256[]",
          "name": "_tierCeilings",
          "type": "uint256[]"
        },
        {
          "internalType": "uint256[]",
          "name": "_fees",
          "type": "uint256[]"
        }
      ],
      "name": "pushBond",
      "outputs": [
        {
          "internalType": "address",
          "name": "_treasury",
          "type": "address"
        },
        {
          "internalType": "address",
          "name": "_bond",
          "type": "address"
        },
        {
          "internalType": "address",
          "name": "_stake",
          "type": "address"
        }
      ],
      "stateMutability": "nonpayable",
      "type": "function"
    },
    {
      "inputs": [
        {
          "internalType": "address",
          "name": "_factory",
          "type": "address"
        }
      ],
      "name": "setFactoryAddress",
      "outputs": [],
      "stateMutability": "nonpayable",
      "type": "function"
    },
    {
      "inputs": [
        {
          "internalType": "address",
          "name": "_newOwner",
          "type": "address"
        }
      ],
      "name": "transferManagment",
      "outputs": [],
      "stateMutability": "nonpayable",
      "type": "function"
    }
  ],
  "bytecode": "0x608060405234801561001057600080fd5b50336000806101000a81548173ffffffffffffffffffffffffffffffffffffffff021916908373ffffffffffffffffffffffffffffffffffffffff160217905550611404806100606000396000f3fe608060405234801561001057600080fd5b50600436106100885760003560e01c806383c17c551161005b57806383c17c5514610117578063b1770b3714610133578063c3011b2f14610167578063d8b256b41461018557610088565b80630505c8c91461008d57806321de9fb1146100ab5780633bfdd7de146100dd5780637db5a96a146100f9575b600080fd5b6100956101b5565b6040516100a29190611141565b60405180910390f35b6100c560048036038101906100c09190610e71565b6101d9565b6040516100d49392919061115c565b60405180910390f35b6100f760048036038101906100f29190610e48565b6106d2565b005b610101610810565b60405161010e9190611141565b60405180910390f35b610131600480360381019061012c9190610e48565b610836565b005b61014d60048036038101906101489190610efa565b61093b565b60405161015e9594939291906111d8565b60405180910390f35b61016f610a21565b60405161017c919061122b565b60405180910390f35b61019f600480360381019061019a9190610e48565b610cde565b6040516101ac919061126d565b60405180910390f35b60008054906101000a900473ffffffffffffffffffffffffffffffffffffffff1681565b60008060003373ffffffffffffffffffffffffffffffffffffffff16600260009054906101000a900473ffffffffffffffffffffffffffffffffffffffff1673ffffffffffffffffffffffffffffffffffffffff161461026e576040517f08c379a00000000000000000000000000000000000000000000000000000000081526004016102659061124d565b60405180910390fd5b600180549050600360008a60026005811061028557fe5b602002015173ffffffffffffffffffffffffffffffffffffffff1673ffffffffffffffffffffffffffffffffffffffff1681526020019081526020016000208190555060016040518060e001604052808a6000600581106102e257fe5b602002015173ffffffffffffffffffffffffffffffffffffffff1681526020018a60016005811061030f57fe5b602002015173ffffffffffffffffffffffffffffffffffffffff1681526020018a60026005811061033c57fe5b602002015173ffffffffffffffffffffffffffffffffffffffff1681526020018a60036005811061036957fe5b602002015173ffffffffffffffffffffffffffffffffffffffff1681526020018a60046005811061039657fe5b602002015173ffffffffffffffffffffffffffffffffffffffff168152602001898980806020026020016040519081016040528093929190818152602001838360200280828437600081840152601f19601f820116905080830192505050505050508152602001878780806020026020016040519081016040528093929190818152602001838360200280828437600081840152601f19601f82011690508083019250505050505050815250908060018154018082558091505060019003906000526020600020906007020160009091909190915060008201518160000160006101000a81548173ffffffffffffffffffffffffffffffffffffffff021916908373ffffffffffffffffffffffffffffffffffffffff16021790555060208201518160010160006101000a81548173ffffffffffffffffffffffffffffffffffffffff021916908373ffffffffffffffffffffffffffffffffffffffff16021790555060408201518160020160006101000a81548173ffffffffffffffffffffffffffffffffffffffff021916908373ffffffffffffffffffffffffffffffffffffffff16021790555060608201518160030160006101000a81548173ffffffffffffffffffffffffffffffffffffffff021916908373ffffffffffffffffffffffffffffffffffffffff16021790555060808201518160040160006101000a81548173ffffffffffffffffffffffffffffffffffffffff021916908373ffffffffffffffffffffffffffffffffffffffff16021790555060a08201518160050190805190602001906105ea929190610cf6565b5060c0820151816006019080519060200190610607929190610cf6565b5050507f527ac74bb749826337582b33265c4f156926cbe88b9368c50524abe2958fc51d8860016005811061063857fe5b60200201518960026005811061064a57fe5b60200201518a60036005811061065c57fe5b60200201518b60006005811061066e57fe5b60200201516040516106839493929190611193565b60405180910390a18760016005811061069857fe5b6020020151886002600581106106aa57fe5b6020020151896003600581106106bc57fe5b6020020151925092509250955095509592505050565b3373ffffffffffffffffffffffffffffffffffffffff1660008054906101000a900473ffffffffffffffffffffffffffffffffffffffff1673ffffffffffffffffffffffffffffffffffffffff1614610793576040517f08c379a00000000000000000000000000000000000000000000000000000000081526004018080602001828103825260208152602001807f4f776e61626c653a2063616c6c6572206973206e6f7420746865206f776e657281525060200191505060405180910390fd5b600073ffffffffffffffffffffffffffffffffffffffff168173ffffffffffffffffffffffffffffffffffffffff1614156107cd57600080fd5b806000806101000a81548173ffffffffffffffffffffffffffffffffffffffff021916908373ffffffffffffffffffffffffffffffffffffffff16021790555050565b600260009054906101000a900473ffffffffffffffffffffffffffffffffffffffff1681565b3373ffffffffffffffffffffffffffffffffffffffff1660008054906101000a900473ffffffffffffffffffffffffffffffffffffffff1673ffffffffffffffffffffffffffffffffffffffff16146108f7576040517f08c379a00000000000000000000000000000000000000000000000000000000081526004018080602001828103825260208152602001807f4f776e61626c653a2063616c6c6572206973206e6f7420746865206f776e657281525060200191505060405180910390fd5b80600260006101000a81548173ffffffffffffffffffffffffffffffffffffffff021916908373ffffffffffffffffffffffffffffffffffffffff16021790555050565b6001818154811061094b57600080fd5b90600052602060002090600702016000915090508060000160009054906101000a900473ffffffffffffffffffffffffffffffffffffffff16908060010160009054906101000a900473ffffffffffffffffffffffffffffffffffffffff16908060020160009054906101000a900473ffffffffffffffffffffffffffffffffffffffff16908060030160009054906101000a900473ffffffffffffffffffffffffffffffffffffffff16908060040160009054906101000a900473ffffffffffffffffffffffffffffffffffffffff16905085565b60606001805480602002602001604051908101604052809291908181526020016000905b82821015610cd557838290600052602060002090600702016040518060e00160405290816000820160009054906101000a900473ffffffffffffffffffffffffffffffffffffffff1673ffffffffffffffffffffffffffffffffffffffff1673ffffffffffffffffffffffffffffffffffffffff1681526020016001820160009054906101000a900473ffffffffffffffffffffffffffffffffffffffff1673ffffffffffffffffffffffffffffffffffffffff1673ffffffffffffffffffffffffffffffffffffffff1681526020016002820160009054906101000a900473ffffffffffffffffffffffffffffffffffffffff1673ffffffffffffffffffffffffffffffffffffffff1673ffffffffffffffffffffffffffffffffffffffff1681526020016003820160009054906101000a900473ffffffffffffffffffffffffffffffffffffffff1673ffffffffffffffffffffffffffffffffffffffff1673ffffffffffffffffffffffffffffffffffffffff1681526020016004820160009054906101000a900473ffffffffffffffffffffffffffffffffffffffff1673ffffffffffffffffffffffffffffffffffffffff1673ffffffffffffffffffffffffffffffffffffffff16815260200160058201805480602002602001604051908101604052809291908181526020018280548015610c6557602002820191906000526020600020905b815481526020019060010190808311610c51575b5050505050815260200160068201805480602002602001604051908101604052809291908181526020018280548015610cbd57602002820191906000526020600020905b815481526020019060010190808311610ca9575b50505050508152505081526020019060010190610a45565b50505050905090565b60036020528060005260406000206000915090505481565b828054828255906000526020600020908101928215610d32579160200282015b82811115610d31578251825591602001919060010190610d16565b5b509050610d3f9190610d43565b5090565b5b80821115610d5c576000816000905550600101610d44565b5090565b600081359050610d6f816113a0565b92915050565b600082601f830112610d8657600080fd5b6005610d99610d94826112b9565b611288565b91508183856020840282011115610daf57600080fd5b60005b83811015610ddf5781610dc58882610d60565b845260208401935060208301925050600181019050610db2565b5050505092915050565b60008083601f840112610dfb57600080fd5b8235905067ffffffffffffffff811115610e1457600080fd5b602083019150836020820283011115610e2c57600080fd5b9250929050565b600081359050610e42816113b7565b92915050565b600060208284031215610e5a57600080fd5b6000610e6884828501610d60565b91505092915050565b600080600080600060e08688031215610e8957600080fd5b6000610e9788828901610d75565b95505060a086013567ffffffffffffffff811115610eb457600080fd5b610ec088828901610de9565b945094505060c086013567ffffffffffffffff811115610edf57600080fd5b610eeb88828901610de9565b92509250509295509295909350565b600060208284031215610f0c57600080fd5b6000610f1a84828501610e33565b91505092915050565b6000610f2f8383611080565b905092915050565b6000610f438383611123565b60208301905092915050565b610f5881611362565b82525050565b610f6781611362565b82525050565b6000610f78826112ff565b610f82818561132f565b935083602082028501610f94856112df565b8060005b85811015610fd05784840389528151610fb18582610f23565b9450610fbc83611315565b925060208a01995050600181019050610f98565b50829750879550505050505092915050565b6000610fed8261130a565b610ff78185611340565b9350611002836112ef565b8060005b8381101561103357815161101a8882610f37565b975061102583611322565b925050600181019050611006565b5085935050505092915050565b600061104d601783611351565b91507f4e6f74204f6c796d7075732050726f20466163746f72790000000000000000006000830152602082019050919050565b600060e0830160008301516110986000860182610f4f565b5060208301516110ab6020860182610f4f565b5060408301516110be6040860182610f4f565b5060608301516110d16060860182610f4f565b5060808301516110e46080860182610f4f565b5060a083015184820360a08601526110fc8282610fe2565b91505060c083015184820360c08601526111168282610fe2565b9150508091505092915050565b61112c81611394565b82525050565b61113b81611394565b82525050565b60006020820190506111566000830184610f5e565b92915050565b60006060820190506111716000830186610f5e565b61117e6020830185610f5e565b61118b6040830184610f5e565b949350505050565b60006080820190506111a86000830187610f5e565b6111b56020830186610f5e565b6111c26040830185610f5e565b6111cf6060830184610f5e565b95945050505050565b600060a0820190506111ed6000830188610f5e565b6111fa6020830187610f5e565b6112076040830186610f5e565b6112146060830185610f5e565b6112216080830184610f5e565b9695505050505050565b600060208201905081810360008301526112458184610f6d565b905092915050565b6000602082019050818103600083015261126681611040565b9050919050565b60006020820190506112826000830184611132565b92915050565b6000604051905081810181811067ffffffffffffffff821117156112af576112ae61139e565b5b8060405250919050565b600067ffffffffffffffff8211156112d4576112d361139e565b5b602082029050919050565b6000819050602082019050919050565b6000819050602082019050919050565b600081519050919050565b600081519050919050565b6000602082019050919050565b6000602082019050919050565b600082825260208201905092915050565b600082825260208201905092915050565b600082825260208201905092915050565b600061136d82611374565b9050919050565b600073ffffffffffffffffffffffffffffffffffffffff82169050919050565b6000819050919050565bfe5b6113a981611362565b81146113b457600080fd5b50565b6113c081611394565b81146113cb57600080fd5b5056fea2646970667358221220794c5e39c66e4b253f207815e47210668b4ab7afd146adb633de5d6a9686093c64736f6c63430007050033",
  "linkReferences": {},
  "deployedLinkReferences": {}
}