{
  "_format": "hh-sol-artifact-1",
  "contractName": "OnBoardingFacet",
  "sourceName": "contracts/facets/OnBoardingFacet.sol",
  "abi": [
    {
      "anonymous": false,
      "inputs": [
        {
          "indexed": false,
          "internalType": "address",
          "name": "bond_addr",
          "type": "address"
        },
        {
          "indexed": false,
          "internalType": "address",
          "name": "treasury_addr",
          "type": "address"
        },
        {
          "indexed": false,
          "internalType": "uint256",
          "name": "time",
          "type": "uint256"
        }
      ],
      "name": "BondDeployed",
      "type": "event"
    },
    {
      "anonymous": false,
      "inputs": [
        {
          "indexed": false,
          "internalType": "address",
          "name": "staking_addr",
          "type": "address"
        },
        {
          "indexed": false,
          "internalType": "address",
          "name": "owner",
          "type": "address"
        },
        {
          "indexed": false,
          "internalType": "address",
          "name": "_rewardsDistribution",
          "type": "address"
        },
        {
          "indexed": false,
          "internalType": "address",
          "name": "_rewardsToken",
          "type": "address"
        },
        {
          "indexed": false,
          "internalType": "uint256",
          "name": "time",
          "type": "uint256"
        }
      ],
      "name": "StakingDeployed",
      "type": "event"
    },
    {
      "anonymous": false,
      "inputs": [
        {
          "indexed": false,
          "internalType": "address",
          "name": "treasury_addr",
          "type": "address"
        },
        {
          "indexed": false,
          "internalType": "address",
          "name": "_bondPayoutToken",
          "type": "address"
        },
        {
          "indexed": false,
          "internalType": "address",
          "name": "_stakingPayoutToken",
          "type": "address"
        },
        {
          "indexed": false,
          "internalType": "uint256",
          "name": "time",
          "type": "uint256"
        }
      ],
      "name": "TreasuryDeployed",
      "type": "event"
    },
    {
      "inputs": [
        {
          "internalType": "address",
          "name": "_addr",
          "type": "address"
        }
      ],
      "name": "change_protocol_address",
      "outputs": [],
      "stateMutability": "nonpayable",
      "type": "function"
    },
    {
      "inputs": [
        {
          "internalType": "address",
          "name": "_bondPayoutToken",
          "type": "address"
        },
        {
          "internalType": "address",
          "name": "_stakingPayoutToken",
          "type": "address"
        },
        {
          "internalType": "address",
          "name": "_rewardsDistribution",
          "type": "address"
        },
        {
          "internalType": "address",
          "name": "_rewardsToken",
          "type": "address"
        },
        {
          "internalType": "uint256",
          "name": "_rewardsDuration",
          "type": "uint256"
        },
        {
          "internalType": "address",
          "name": "_protocolAddress",
          "type": "address"
        }
      ],
      "name": "createBondTreasuryStaking",
      "outputs": [],
      "stateMutability": "nonpayable",
      "type": "function"
    }
  ],
  "bytecode": "0x608060405234801561001057600080fd5b50615240806100206000396000f3fe608060405234801561001057600080fd5b50600436106100365760003560e01c806352566d2a1461003b578063fd75d31f14610050575b600080fd5b61004e6100493660046102dd565b610080565b005b61004e61005e36600461034a565b600380546001600160a01b0319166001600160a01b0392909216919091179055565b600086866040516100909061029a565b6001600160a01b03928316815291166020820152604001604051809103906000f0801580156100c3573d6000803e3d6000fd5b509050600033868689876040516100d9906102a7565b6001600160a01b039586168152938516602085015291841660408401529092166060820152608081019190915260a001604051809103906000f080158015610125573d6000803e3d6000fd5b50905060008233604051610138906102b4565b6001600160a01b03928316815291166020820152604001604051809103906000f08015801561016b573d6000803e3d6000fd5b506001600160a01b03858116600052600560209081526040805160608082018352888516808352888616838601528686168385015283519081528f861694810194909452938d168383015242938301939093525192935090917f2f83a58cdb2eb6f7f8761331ec5c5a7dcc1ad136acc8cf56c360455a320f4a719181900360800190a1604080516001600160a01b0385811682523360208301528a8116828401528916606082015242608082015290517fed8d53bb71766bbc3888c5206fb81f9e2d031e21be056d905c8697e1d774281d9181900360a00190a1604080516001600160a01b03848116825286166020820152428183015290517ffcbee216be7251eefa0eaaf068d5f8f3a83e9e0f848dfe7737c1abfd957087519181900360600190a150505050505050505050565b610d328061036d83390190565b6117358061109f83390190565b612a37806127d483390190565b80356001600160a01b03811681146102d857600080fd5b919050565b60008060008060008060c087890312156102f657600080fd5b6102ff876102c1565b955061030d602088016102c1565b945061031b604088016102c1565b9350610329606088016102c1565b92506080870135915061033e60a088016102c1565b90509295509295509295565b60006020828403121561035c57600080fd5b610365826102c1565b939250505056fe60c060405234801561001057600080fd5b50604051610d32380380610d3283398101604081905261002f9161009b565b600080546001600160a01b031916331790556001600160a01b03821661005457600080fd5b6001600160a01b03808316608052811661006d57600080fd5b6001600160a01b031660a052506100ce565b80516001600160a01b038116811461009657600080fd5b919050565b600080604083850312156100ae57600080fd5b6100b78361007f565b91506100c56020840161007f565b90509250929050565b60805160a051610c2a610108600039600081816101e201526103ee0152600081816101640152818161027501526104e10152610c2a6000f3fe608060405234801561001057600080fd5b50600436106100a95760003560e01c8063406b704311610071578063406b70431461014c578063651cf4cc1461015f578063d1b317e514610186578063d4d99433146101a7578063da2d9740146101ca578063dc722878146101dd57600080fd5b80630505c8c9146100ae5780630b04f918146100de5780631a32666c146100f357806324705db3146101065780633bfdd7de14610139575b600080fd5b6000546100c1906001600160a01b031681565b6040516001600160a01b0390911681526020015b60405180910390f35b6100f16100ec366004610937565b610204565b005b6100f161010136600461096c565b6102d9565b61012961011436600461096c565b60016020526000908152604090205460ff1681565b60405190151581526020016100d5565b6100f161014736600461096c565b610358565b6100f161015a366004610987565b6103b7565b6100c17f000000000000000000000000000000000000000000000000000000000000000081565b610199610194366004610987565b61045b565b6040519081526020016100d5565b6101296101b536600461096c565b60026020526000908152604090205460ff1681565b6100f16101d836600461096c565b61058f565b6100c17f000000000000000000000000000000000000000000000000000000000000000081565b3360009081526001602052604090205460ff166102685760405162461bcd60e51b815260206004820152601e60248201527f61646472657373206973206e6f74206120626f6e6420636f6e7472616374000060448201526064015b60405180910390fd5b61029c6001600160a01b037f000000000000000000000000000000000000000000000000000000000000000016338361060a565b60408051338152602081018390527f8ac790455d64f91fe28be2f7719eeb64b32afce2689873f2a99ccc2f8d1f925691015b60405180910390a150565b6000546001600160a01b031633146103035760405162461bcd60e51b815260040161025f906109b1565b6001600160a01b038116600081815260016020818152604092839020805460ff191690921790915590519182527ff77a8f6961cd2a6c1a5c09f5871f9afa593a9be371e6d5db1c49c3c846f27c8e91016102ce565b6000546001600160a01b031633146103825760405162461bcd60e51b815260040161025f906109b1565b6001600160a01b03811661039557600080fd5b600080546001600160a01b0319166001600160a01b0392909216919091179055565b6000546001600160a01b031633146103e15760405162461bcd60e51b815260040161025f906109b1565b6104156001600160a01b037f000000000000000000000000000000000000000000000000000000000000000016838361060a565b604080516001600160a01b0384168152602081018390527fd0738c40db6944b0431635619e5439399d30b1c3201de82a76281ad5e589a331910160405180910390a15050565b6000610588836001600160a01b031663313ce5676040518163ffffffff1660e01b815260040160206040518083038186803b15801561049957600080fd5b505afa1580156104ad573d6000803e3d6000fd5b505050506040513d601f19601f820116820180604052508101906104d191906109e6565b6104dc90600a610b03565b6105827f00000000000000000000000000000000000000000000000000000000000000006001600160a01b031663313ce5676040518163ffffffff1660e01b815260040160206040518083038186803b15801561053857600080fd5b505afa15801561054c573d6000803e3d6000fd5b505050506040513d601f19601f8201168201806040525081019061057091906109e6565b61057b90600a610b03565b8590610661565b906106e9565b9392505050565b6000546001600160a01b031633146105b95760405162461bcd60e51b815260040161025f906109b1565b6001600160a01b038116600081815260016020908152604091829020805460ff1916905590519182527ffc70d1cccd20b1240aa868d1187dc4831d94c6a1e04ceb1875b061c53a24482e91016102ce565b604080516001600160a01b038416602482015260448082018490528251808303909101815260649091019091526020810180516001600160e01b031663a9059cbb60e01b17905261065c90849061072b565b505050565b600082610670575060006106e3565b600061067c8385610b12565b9050826106898583610b31565b146106e05760405162461bcd60e51b815260206004820152602160248201527f536166654d6174683a206d756c7469706c69636174696f6e206f766572666c6f6044820152607760f81b606482015260840161025f565b90505b92915050565b600061058883836040518060400160405280601a81526020017f536166654d6174683a206469766973696f6e206279207a65726f0000000000008152506107fd565b6000610780826040518060400160405280602081526020017f5361666545524332303a206c6f772d6c6576656c2063616c6c206661696c6564815250856001600160a01b03166108349092919063ffffffff16565b80519091501561065c578080602001905181019061079e9190610b53565b61065c5760405162461bcd60e51b815260206004820152602a60248201527f5361666545524332303a204552433230206f7065726174696f6e20646964206e6044820152691bdd081cdd58d8d9595960b21b606482015260840161025f565b6000818361081e5760405162461bcd60e51b815260040161025f9190610ba5565b50600061082b8486610b31565b95945050505050565b6060610843848460008561084b565b949350505050565b6060843b61089b5760405162461bcd60e51b815260206004820152601d60248201527f416464726573733a2063616c6c20746f206e6f6e2d636f6e7472616374000000604482015260640161025f565b600080866001600160a01b031685876040516108b79190610bd8565b60006040518083038185875af1925050503d80600081146108f4576040519150601f19603f3d011682016040523d82523d6000602084013e6108f9565b606091505b5091509150811561090d5791506108439050565b80511561091d5780518082602001fd5b8360405162461bcd60e51b815260040161025f9190610ba5565b60006020828403121561094957600080fd5b5035919050565b80356001600160a01b038116811461096757600080fd5b919050565b60006020828403121561097e57600080fd5b61058882610950565b6000806040838503121561099a57600080fd5b6109a383610950565b946020939093013593505050565b6020808252818101527f4f776e61626c653a2063616c6c6572206973206e6f7420746865206f776e6572604082015260600190565b6000602082840312156109f857600080fd5b815160ff811681146106e057600080fd5b634e487b7160e01b600052601160045260246000fd5b600181815b80851115610a5a578160001904821115610a4057610a40610a09565b80851615610a4d57918102915b93841c9390800290610a24565b509250929050565b600082610a71575060016106e3565b81610a7e575060006106e3565b8160018114610a945760028114610a9e57610aba565b60019150506106e3565b60ff841115610aaf57610aaf610a09565b50506001821b6106e3565b5060208310610133831016604e8410600b8410161715610add575081810a6106e3565b610ae78383610a1f565b8060001904821115610afb57610afb610a09565b029392505050565b600061058860ff841683610a62565b6000816000190483118215151615610b2c57610b2c610a09565b500290565b600082610b4e57634e487b7160e01b600052601260045260246000fd5b500490565b600060208284031215610b6557600080fd5b815180151581146106e057600080fd5b60005b83811015610b90578181015183820152602001610b78565b83811115610b9f576000848401525b50505050565b6020815260008251806020840152610bc4816040850160208701610b75565b601f01601f19169190910160400192915050565b60008251610bea818460208701610b75565b919091019291505056fea26469706673582212202375cfc727840ffc043cbe0ae57ef439c34c99b402a193d15084e7cd6cdeeea364736f6c634300080900336080604052600060075560006008553480156200001b57600080fd5b5060405162001735380380620017358339810160408190526200003e9162000172565b8480806001600160a01b0381166200009c5760405162461bcd60e51b815260206004820152601960248201527f4f776e657220616464726573732063616e6e6f74206265203000000000000000604482015260640160405180910390fd5b600080546001600160a01b0319166001600160a01b03831690811782556040805192835260208301919091527fb532073b38c83145e3e5135377a08bf9aab55bc0fd7c1179cd4fb995d2a5159c910160405180910390a15050600160045550600580546001600160a01b039485166001600160a01b031991821617909155600680549385169390911692909217909155600380549390921661010002610100600160a81b031990931692909217905560095550620001d9565b80516001600160a01b03811681146200016d57600080fd5b919050565b600080600080600060a086880312156200018b57600080fd5b620001968662000155565b9450620001a66020870162000155565b9350620001b66040870162000155565b9250620001c66060870162000155565b9150608086015190509295509295909350565b61154c80620001e96000396000f3fe608060405234801561001057600080fd5b50600436106101e45760003560e01c806372f702f31161010f578063a694fc3a116100a2578063d1af0c7d11610071578063d1af0c7d146103ec578063df136d65146103ff578063e9fad8ee14610408578063ebe2b12b1461041057600080fd5b8063a694fc3a146103b5578063c8f33c91146103c8578063cc1a378f146103d1578063cd3daf9d146103e457600080fd5b80638980f11f116100de5780638980f11f146103665780638b876347146103795780638da5cb5b1461039957806391b4ded9146103ac57600080fd5b806372f702f31461033a57806379ba50971461034d5780637b0a47ee1461035557806380faa57d1461035e57600080fd5b80632e1a7d4d116101875780633fc6df6e116101565780633fc6df6e146102b157806353a47bb7146102e15780635c975abb146102f457806370a082311461031157600080fd5b80632e1a7d4d1461027a578063386a95251461028d5780633c6b16ab146102965780633d18b912146102a957600080fd5b806316c38b3c116101c357806316c38b3c1461024457806318160ddd14610257578063197621431461025f5780631c1f78eb1461027257600080fd5b80628cc262146101e95780630700037d1461020f5780631627540c1461022f575b600080fd5b6101fc6101f736600461136f565b610419565b6040519081526020015b60405180910390f35b6101fc61021d36600461136f565b600d6020526000908152604090205481565b61024261023d36600461136f565b610497565b005b610242610252366004611398565b6104f4565b600e546101fc565b61024261026d36600461136f565b61056a565b6101fc61059a565b6102426102883660046113b5565b6105b8565b6101fc60095481565b6102426102a43660046113b5565b6106fb565b610242610891565b6003546102c99061010090046001600160a01b031681565b6040516001600160a01b039091168152602001610206565b6001546102c9906001600160a01b031681565b6003546103019060ff1681565b6040519015158152602001610206565b6101fc61031f36600461136f565b6001600160a01b03166000908152600f602052604090205490565b6006546102c9906001600160a01b031681565b610242610977565b6101fc60085481565b6101fc610a61565b6102426103743660046113ce565b610a6f565b6101fc61038736600461136f565b600c6020526000908152604090205481565b6000546102c9906001600160a01b031681565b6101fc60025481565b6102426103c33660046113b5565b610b38565b6101fc600a5481565b6102426103df3660046113b5565b610cde565b6101fc610db8565b6005546102c9906001600160a01b031681565b6101fc600b5481565b610242610e04565b6101fc60075481565b6001600160a01b0381166000908152600d6020908152604080832054600c909252822054610491919061048b90670de0b6b3a7640000906104859061046690610460610db8565b90610e25565b6001600160a01b0388166000908152600f602052604090205490610e6e565b90610eed565b90610f2f565b92915050565b61049f610f8e565b600180546001600160a01b0319166001600160a01b0383169081179091556040519081527f906a1c6bd7e3091ea86693dd029a831c19049ce77f1dce2ce0bab1cacbabce22906020015b60405180910390a150565b6104fc610f8e565b60035460ff16151581151514156105105750565b6003805460ff191682151590811790915560ff161561052e57426002555b60035460405160ff909116151581527f8fb6c181ee25a520cf3dd6565006ef91229fcfe5a989566c2a3b8c115570cec5906020016104e9565b50565b610572610f8e565b600380546001600160a01b0390921661010002610100600160a81b0319909216919091179055565b60006105b3600954600854610e6e90919063ffffffff16565b905090565b6105c0611000565b336105c9610db8565b600b556105d4610a61565b600a556001600160a01b0381161561061b576105ef81610419565b6001600160a01b0382166000908152600d6020908152604080832093909355600b54600c909152919020555b600082116106645760405162461bcd60e51b8152602060048201526011602482015270043616e6e6f74207769746864726177203607c1b60448201526064015b60405180910390fd5b600e546106719083610e25565b600e55336000908152600f602052604090205461068e9083610e25565b336000818152600f60205260409020919091556006546106ba916001600160a01b03909116908461105a565b60405182815233907f7084f5476618d8e60b11ef0d7d3f06914655adb8793e28ff7f018d4c76d505d5906020015b60405180910390a2506105676001600455565b60035461010090046001600160a01b0316331461076d5760405162461bcd60e51b815260206004820152602a60248201527f43616c6c6572206973206e6f742052657761726473446973747269627574696f6044820152691b8818dbdb9d1c9858dd60b21b606482015260840161065b565b6000610777610db8565b600b55610782610a61565b600a556001600160a01b038116156107c95761079d81610419565b6001600160a01b0382166000908152600d6020908152604080832093909355600b54600c909152919020555b6005546107e1906001600160a01b03163330856110c2565b6007544210610800576009546107f8908390610eed565b600855610843565b6007546000906108109042610e25565b9050600061082960085483610e6e90919063ffffffff16565b60095490915061083d906104858684610f2f565b60085550505b42600a8190556009546108569190610f2f565b6007556040518281527fde88a922e0d3b88b24e9623efeb464919c6bf9f66857a65e2bfcf2ce87a9433d906020015b60405180910390a15050565b610899611000565b336108a2610db8565b600b556108ad610a61565b600a556001600160a01b038116156108f4576108c881610419565b6001600160a01b0382166000908152600d6020908152604080832093909355600b54600c909152919020555b336000908152600d6020526040902054801561096957336000818152600d6020526040812055600554610933916001600160a01b03909116908361105a565b60405181815233907fe2403640ba68fed3a2f88b7557551d1993f84b99bb10ff833f0cf8db0c5e04869060200160405180910390a25b50506109756001600455565b565b6001546001600160a01b031633146109ef5760405162461bcd60e51b815260206004820152603560248201527f596f75206d757374206265206e6f6d696e61746564206265666f726520796f7560448201527402063616e20616363657074206f776e65727368697605c1b606482015260840161065b565b600054600154604080516001600160a01b0393841681529290911660208301527fb532073b38c83145e3e5135377a08bf9aab55bc0fd7c1179cd4fb995d2a5159c910160405180910390a160018054600080546001600160a01b03199081166001600160a01b03841617909155169055565b60006105b342600754611100565b610a77610f8e565b6006546001600160a01b0383811691161415610adf5760405162461bcd60e51b815260206004820152602160248201527f43616e6e6f7420776974686472617720746865207374616b696e6720746f6b656044820152603760f91b606482015260840161065b565b600054610af9906001600160a01b0384811691168361105a565b604080516001600160a01b0384168152602081018390527f8c1256b8896378cd5044f80c202f9772b9d77dc85c8a6eb51967210b09bfaa289101610885565b610b40611000565b60035460ff1615610bb95760405162461bcd60e51b815260206004820152603c60248201527f5468697320616374696f6e2063616e6e6f7420626520706572666f726d65642060448201527f7768696c652074686520636f6e74726163742069732070617573656400000000606482015260840161065b565b33610bc2610db8565b600b55610bcd610a61565b600a556001600160a01b03811615610c1457610be881610419565b6001600160a01b0382166000908152600d6020908152604080832093909355600b54600c909152919020555b60008211610c555760405162461bcd60e51b815260206004820152600e60248201526d043616e6e6f74207374616b6520360941b604482015260640161065b565b600e54610c629083610f2f565b600e55336000908152600f6020526040902054610c7f9083610f2f565b336000818152600f6020526040902091909155600654610cac916001600160a01b039091169030856110c2565b60405182815233907f9e71bc8eea02a63969f509818f2dafb9254532904319f9dbda79b67bd34a5f3d906020016106e8565b610ce6610f8e565b6007544211610d835760405162461bcd60e51b815260206004820152605860248201527f50726576696f7573207265776172647320706572696f64206d7573742062652060448201527f636f6d706c657465206265666f7265206368616e67696e67207468652064757260648201527f6174696f6e20666f7220746865206e657720706572696f640000000000000000608482015260a40161065b565b60098190556040518181527ffb46ca5a5e06d4540d6387b930a7c978bce0db5f449ec6b3f5d07c6e1d44f2d3906020016104e9565b6000600e5460001415610dcc5750600b5490565b6105b3610dfb600e54610485670de0b6b3a7640000610df5600854610df5600a54610460610a61565b90610e6e565b600b5490610f2f565b336000908152600f6020526040902054610e1d906105b8565b610975610891565b6000610e6783836040518060400160405280601e81526020017f536166654d6174683a207375627472616374696f6e206f766572666c6f770000815250611116565b9392505050565b600082610e7d57506000610491565b6000610e89838561140e565b905082610e96858361142d565b14610e675760405162461bcd60e51b815260206004820152602160248201527f536166654d6174683a206d756c7469706c69636174696f6e206f766572666c6f6044820152607760f81b606482015260840161065b565b6000610e6783836040518060400160405280601a81526020017f536166654d6174683a206469766973696f6e206279207a65726f000000000000815250611150565b600080610f3c838561144f565b905083811015610e675760405162461bcd60e51b815260206004820152601b60248201527f536166654d6174683a206164646974696f6e206f766572666c6f770000000000604482015260640161065b565b6000546001600160a01b031633146109755760405162461bcd60e51b815260206004820152602f60248201527f4f6e6c792074686520636f6e7472616374206f776e6572206d6179207065726660448201526e37b936903a3434b99030b1ba34b7b760891b606482015260840161065b565b600260045414156110535760405162461bcd60e51b815260206004820152601f60248201527f5265656e7472616e637947756172643a207265656e7472616e742063616c6c00604482015260640161065b565b6002600455565b6040516001600160a01b0383166024820152604481018290526110bd90849063a9059cbb60e01b906064015b60408051601f198184030181529190526020810180516001600160e01b03166001600160e01b03199093169290921790915261117e565b505050565b6040516001600160a01b03808516602483015283166044820152606481018290526110fa9085906323b872dd60e01b90608401611086565b50505050565b600081831061110f5781610e67565b5090919050565b6000818484111561113a5760405162461bcd60e51b815260040161065b9190611493565b50600061114784866114c6565b95945050505050565b600081836111715760405162461bcd60e51b815260040161065b9190611493565b506000611147848661142d565b60006111d3826040518060400160405280602081526020017f5361666545524332303a206c6f772d6c6576656c2063616c6c206661696c6564815250856001600160a01b03166112509092919063ffffffff16565b8051909150156110bd57808060200190518101906111f191906114dd565b6110bd5760405162461bcd60e51b815260206004820152602a60248201527f5361666545524332303a204552433230206f7065726174696f6e20646964206e6044820152691bdd081cdd58d8d9595960b21b606482015260840161065b565b606061125f8484600085611267565b949350505050565b6060843b6112b75760405162461bcd60e51b815260206004820152601d60248201527f416464726573733a2063616c6c20746f206e6f6e2d636f6e7472616374000000604482015260640161065b565b600080866001600160a01b031685876040516112d391906114fa565b60006040518083038185875af1925050503d8060008114611310576040519150601f19603f3d011682016040523d82523d6000602084013e611315565b606091505b5091509150811561132957915061125f9050565b8051156113395780518082602001fd5b8360405162461bcd60e51b815260040161065b9190611493565b80356001600160a01b038116811461136a57600080fd5b919050565b60006020828403121561138157600080fd5b610e6782611353565b801515811461056757600080fd5b6000602082840312156113aa57600080fd5b8135610e678161138a565b6000602082840312156113c757600080fd5b5035919050565b600080604083850312156113e157600080fd5b6113ea83611353565b946020939093013593505050565b634e487b7160e01b600052601160045260246000fd5b6000816000190483118215151615611428576114286113f8565b500290565b60008261144a57634e487b7160e01b600052601260045260246000fd5b500490565b60008219821115611462576114626113f8565b500190565b60005b8381101561148257818101518382015260200161146a565b838111156110fa5750506000910152565b60208152600082518060208401526114b2816040850160208701611467565b601f01601f19169190910160400192915050565b6000828210156114d8576114d86113f8565b500390565b6000602082840312156114ef57600080fd5b8151610e678161138a565b6000825161150c818460208701611467565b919091019291505056fea2646970667358221220cbe0a78af14b947236ca160b862112b764970597f5e7fee4b17dc945e95a3fe964736f6c6343000809003360c06040523480156200001157600080fd5b5060405162002a3738038062002a37833981016040819052620000349162000139565b600080546001600160a01b031916331790556001600160a01b0382166200005a57600080fd5b6001600160a01b03821660a0819052604080516319473d3360e21b8152905163651cf4cc91600480820192602092909190829003018186803b158015620000a057600080fd5b505afa158015620000b5573d6000803e3d6000fd5b505050506040513d601f19601f82011682018060405250810190620000db919062000171565b6001600160a01b039081166080528116620000f557600080fd5b600080546001600160a01b0319166001600160a01b03929092169190911790555062000196565b80516001600160a01b03811681146200013457600080fd5b919050565b600080604083850312156200014d57600080fd5b62000158836200011c565b915062000168602084016200011c565b90509250929050565b6000602082840312156200018457600080fd5b6200018f826200011c565b9392505050565b60805160a05161283c620001fb6000396000818161076301528181610b2e0152610b9d01526000818161047d01528181610650015281816107fa01528181610ca601528181610d510152818161121c015281816115260152611afc015261283c6000f3fe608060405234801561001057600080fd5b50600436106101165760003560e01c8063884719f2116100a2578063b11512e211610071578063b11512e214610292578063c69148a0146102a5578063de8d9708146102b8578063e300e98b146102cb578063f54fef40146102de57600080fd5b8063884719f2146102085780638ad59c701461021b5780638ae31d4c1461025f578063941b06861461027257600080fd5b80632f74f461116100e95780632f74f461146101a75780633796c67e146101ba5780633bfdd7de146101cd57806362356812146101e25780636e979c6a146101f557600080fd5b80630505c8c91461011b5780630523f1c31461014b5780630e6dfcd5146101735780632e2d298414610194575b600080fd5b60005461012e906001600160a01b031681565b6040516001600160a01b0390911681526020015b60405180910390f35b61015e6101593660046122af565b6102f1565b60408051928352602083019190915201610142565b6101866101813660046122db565b610326565b604051908152602001610142565b6101866101a2366004612317565b610688565b6101866101b5366004612353565b610c8d565b6101866101c836600461236e565b610de6565b6101e06101db366004612353565b610e62565b005b6101e06101f03660046123a9565b610ec1565b61018661020336600461236e565b610fca565b610186610216366004612353565b61108d565b61022e61022936600461236e565b6110ba565b6040805195865260208601949094529284019190915260608301526001600160a01b0316608082015260a001610142565b6101e061026d3660046123fb565b611111565b610285610280366004612353565b611166565b6040516101429190612432565b6101866102a0366004612353565b611210565b6101e06102b33660046124a9565b611333565b6101866102c6366004612353565b61144b565b6101866102d9366004612353565b6114ef565b6101e06102ec366004612505565b6115b5565b60008061031d64174876e8006103176103128761030d88611210565b61173d565b611878565b90611898565b91509250929050565b6001600160a01b03831660009081526007602052604081208054829190849081106103535761035361253e565b600091825260208083206040805160a08101825260059094029091018054845260018101549284019290925260028201549083015260038101546060830152600401546001600160a01b0316608082015291506103b08685610fca565b905061271081106104ae576001600160a01b03861660009081526007602052604090208054859081106103e5576103e561253e565b6000918252602080832060059290920290910182815560018101839055600281018390556003810183905560040180546001600160a01b03191690558351604080516001600160a01b038b168152928301919091528101919091527f51c99f515c87b0d95ba97f616edd182e8f161c4932eac17c6fefe9dab58b77b19060600160405180910390a181516104a5906001600160a01b037f0000000000000000000000000000000000000000000000000000000000000000169088906118da565b50519050610681565b81516000906104c59061271090610317908561193d565b90506040518060a001604052806104e98386600001516119bc90919063ffffffff16565b81526020016105136105088660400151436119bc90919063ffffffff16565b6020870151906119bc565b81526020014381526020018460600151815260200184608001516001600160a01b031681525060076000896001600160a01b03166001600160a01b03168152602001908152602001600020868154811061056f5761056f61253e565b60009182526020808320845160059390930201918255838101516001830155604080850151600284015560608501516003840155608090940151600490920180546001600160a01b0319166001600160a01b03938416179055908a168252600790522080547f51c99f515c87b0d95ba97f616edd182e8f161c4932eac17c6fefe9dab58b77b19189918491908990811061060b5761060b61253e565b600091825260209182902060059091020154604080516001600160a01b0390951685529184019290925282015260600160405180910390a16106776001600160a01b037f00000000000000000000000000000000000000000000000000000000000000001688836118da565b9250610681915050565b9392505050565b60006001600160a01b0383166106d75760405162461bcd60e51b815260206004820152600f60248201526e496e76616c6964206164647265737360881b60448201526064015b60405180910390fd5b6001600160a01b03821660009081526008602052604090205460ff166107315760405162461bcd60e51b815260206004820152600f60248201526e426f6e64206e6f742061637469766560881b60448201526064016106ce565b61073a826119fe565b60405163d1b317e560e01b81526001600160a01b038381166004830152602482018690526000917f00000000000000000000000000000000000000000000000000000000000000009091169063d1b317e59060440160206040518083038186803b1580156107a757600080fd5b505afa1580156107bb573d6000803e3d6000fd5b505050506040513d601f19601f820116820180604052508101906107df9190612554565b90506000806107ee83866102f1565b809250819350505060647f00000000000000000000000000000000000000000000000000000000000000006001600160a01b031663313ce5676040518163ffffffff1660e01b815260040160206040518083038186803b15801561085157600080fd5b505afa158015610865573d6000803e3d6000fd5b505050506040513d601f19601f82011682018060405250810190610889919061256d565b61089490600a612682565b61089e91906126a7565b8210156108de5760405162461bcd60e51b815260206004820152600e60248201526d109bdb99081d1bdbc81cdb585b1b60921b60448201526064016106ce565b6108e7856114ef565b8211156109275760405162461bcd60e51b815260206004820152600e60248201526d426f6e6420746f6f206c6172676560901b60448201526064016106ce565b6001600160a01b03851660009081526003602052604090205461094a9084611a53565b6001600160a01b03861660009081526003602081815260408084208590556005825290922060040154915210156109ba5760405162461bcd60e51b815260206004820152601460248201527313585e0818d85c1858da5d1e481c995858da195960621b60448201526064016106ce565b6040805160a0810182526001600160a01b0388166000908152600760205291822080548291610a05918791906109ee61253e565b600091825260209091206005909102015490611a53565b81526001600160a01b03881660009081526005602090815260409182902060010154908301524390820152606001610a3c88611210565b81526001600160a01b0388811660209283018190528a8216600090815260078452604080822080546001808201835591845286842088516005909202019081558787015181830155878301516002820155606088015160038201556080880151600490910180546001600160a01b0319169190961617909455918152919092522054909150610acb9089611a53565b6001600160a01b038716600090815260016020908152604080832093909355600290522054610afa9084611a53565b6001600160a01b03878116600090815260026020526040908190209290925590516301609f2360e31b8152600481018590527f000000000000000000000000000000000000000000000000000000000000000090911690630b04f91890602401600060405180830381600087803b158015610b7457600080fd5b505af1158015610b88573d6000803e3d6000fd5b50610bc2925050506001600160a01b038716337f00000000000000000000000000000000000000000000000000000000000000008b611ab2565b6001600160a01b0386166000908152600560205260409020600101547fb7ce5a2d90f1705ca02547b0eb827724683e0df3b809477ae4326d0eefed0bc09089908590610c0f904390611a53565b6040805193845260208401929092529082015260600160405180910390a17f2cb17bd1fd2a1fecfefae2de1e6a59194abaa62179652924ccdca01617f0bf16610c5787611af0565b610c6088610c8d565b6040805192835260208301919091520160405180910390a1610c8186611bda565b50909695505050505050565b6000610de0670de0b6b3a7640000610317610312610d4f7f00000000000000000000000000000000000000000000000000000000000000006001600160a01b031663313ce5676040518163ffffffff1660e01b815260040160206040518083038186803b158015610cfd57600080fd5b505afa158015610d11573d6000803e3d6000fd5b505050506040513d601f19601f82011682018060405250810190610d35919061256d565b610d4090600a612682565b610d498861108d565b9061193d565b7f00000000000000000000000000000000000000000000000000000000000000006001600160a01b03166318160ddd6040518163ffffffff1660e01b815260040160206040518083038186803b158015610da857600080fd5b505afa158015610dbc573d6000803e3d6000fd5b505050506040513d601f19601f8201168201806040525081019061030d9190612554565b92915050565b600080610df38484610fca565b6001600160a01b03851660009081526007602052604081208054929350909185908110610e2257610e2261253e565b90600052602060002090600502016000015490506127108210610e4757809250610e5a565b610e57612710610317838561193d565b92505b505092915050565b6000546001600160a01b03163314610e8c5760405162461bcd60e51b81526004016106ce906126c9565b6001600160a01b038116610e9f57600080fd5b600080546001600160a01b0319166001600160a01b0392909216919091179055565b6000546001600160a01b03163314610eeb5760405162461bcd60e51b81526004016106ce906126c9565b6001600160a01b038116600090815260056020526040902054610f17906103e89061031790601e61193d565b841115610f5c5760405162461bcd60e51b8152602060048201526013602482015272496e6372656d656e7420746f6f206c6172676560681b60448201526064016106ce565b6040805160a081018252951515865260208087019586528682019485526060870193845243608088019081526001600160a01b039390931660009081526006909152209451855460ff1916901515178555925160018501559051600284015551600383015551600490910155565b6001600160a01b0382166000908152600760205260408120805482919084908110610ff757610ff761253e565b600091825260208083206040805160a0810182526005909402909101805484526001810154928401929092526002820154908301819052600382015460608401526004909101546001600160a01b0316608083015290925061105a9043906119bc565b6020830151909150801561107f57611078816103178461271061193d565b9350611084565b600093505b50505092915050565b6000610de061109b8361144b565b6001600160a01b038416600090815260036020526040902054906119bc565b600760205281600052604060002081815481106110d657600080fd5b60009182526020909120600590910201805460018201546002830154600384015460049094015492955090935091906001600160a01b031685565b6000546001600160a01b0316331461113b5760405162461bcd60e51b81526004016106ce906126c9565b6001600160a01b03919091166000908152600860205260409020805460ff1916911515919091179055565b6001600160a01b0381166000908152600760209081526040808320805482518185028101850190935280835260609492939192909184015b828210156112055760008481526020908190206040805160a08101825260058602909201805483526001808201548486015260028201549284019290925260038101546060840152600401546001600160a01b03166080830152908352909201910161119e565b505050509050919050565b60006112ea6112b460057f00000000000000000000000000000000000000000000000000000000000000006001600160a01b031663313ce5676040518163ffffffff1660e01b815260040160206040518083038186803b15801561127357600080fd5b505afa158015611287573d6000803e3d6000fd5b505050506040513d601f19601f820116820180604052508101906112ab919061256d565b60ff16906119bc565b6112bf90600a6126fe565b6103176112cb85610c8d565b6001600160a01b0386166000908152600560205260409020549061193d565b6001600160a01b03831660009081526005602052604090206002015490915081101561132e57506001600160a01b0381166000908152600560205260409020600201545b919050565b6000546001600160a01b0316331461135d5760405162461bcd60e51b81526004016106ce906126c9565b6113668161108d565b156113bd5760405162461bcd60e51b815260206004820152602160248201527f44656274206d757374206265203020666f7220696e697469616c697a6174696f6044820152603760f91b60648201526084016106ce565b6040805160a081018252978852602080890197885288820196875260608901958652608089019485526001600160a01b039092166000908152600583528181209851895596516001808a01919091559551600289015593516003808901919091559251600497880155918252828520559384528083204390556008909352919020805460ff19169091179055565b6001600160a01b03811660009081526004602052604081205481906114719043906119bc565b6001600160a01b0384166000908152600560209081526040808320600101546003909252909120549192506114aa91610317908461193d565b6001600160a01b0384166000908152600360205260409020549092508211156114e9576001600160a01b03831660009081526003602052604090205491505b50919050565b6000610de0620186a061031760056000866001600160a01b03166001600160a01b03168152602001908152602001600020600301547f00000000000000000000000000000000000000000000000000000000000000006001600160a01b03166318160ddd6040518163ffffffff1660e01b815260040160206040518083038186803b15801561157d57600080fd5b505afa158015611591573d6000803e3d6000fd5b505050506040513d601f19601f82011682018060405250810190610d499190612554565b6000546001600160a01b031633146115df5760405162461bcd60e51b81526004016106ce906126c9565b60008360028111156115f3576115f361270a565b1415611675576127108210156116575760405162461bcd60e51b8152602060048201526024808201527f56657374696e67206d757374206265206c6f6e676572207468616e20333620686044820152636f75727360e01b60648201526084016106ce565b6001600160a01b031660009081526005602052604090206001015550565b60018360028111156116895761168961270a565b14156116ff576103e88211156116e15760405162461bcd60e51b815260206004820181905260248201527f5061796f75742063616e6e6f742062652061626f766520312070657263656e7460448201526064016106ce565b6001600160a01b031660009081526005602052604090206003015550565b60028360028111156117135761171361270a565b1415611738576001600160a01b03811660009081526005602052604090206004018290555b505050565b604080516020810190915260008152600082116117ab5760405162461bcd60e51b815260206004820152602660248201527f4669786564506f696e743a3a6672616374696f6e3a206469766973696f6e206260448201526579207a65726f60d01b60648201526084016106ce565b826117c55750604080516020810190915260008152610de0565b71ffffffffffffffffffffffffffffffffffff83116118675760006117ee83607086901b6126a7565b90506001600160e01b038111156118475760405162461bcd60e51b815260206004820152601e60248201527f4669786564506f696e743a3a6672616374696f6e3a206f766572666c6f77000060448201526064016106ce565b6040518060200160405280826001600160e01b0316815250915050610de0565b60006117ee84600160701b85611de9565b8051600090610de0906612725dd1d243ab906001600160e01b03166126a7565b600061068183836040518060400160405280601a81526020017f536166654d6174683a206469766973696f6e206279207a65726f000000000000815250611e98565b6040516001600160a01b03831660248201526044810182905261173890849063a9059cbb60e01b906064015b60408051601f198184030181529190526020810180516001600160e01b03166001600160e01b031990931692909217909152611ecf565b60008261194c57506000610de0565b60006119588385612720565b90508261196585836126a7565b146106815760405162461bcd60e51b815260206004820152602160248201527f536166654d6174683a206d756c7469706c69636174696f6e206f766572666c6f6044820152607760f81b60648201526084016106ce565b600061068183836040518060400160405280601e81526020017f536166654d6174683a207375627472616374696f6e206f766572666c6f770000815250611fa1565b611a29611a0a8261144b565b6001600160a01b038316600090815260036020526040902054906119bc565b6001600160a01b039091166000908152600360209081526040808320939093556004905220439055565b600080611a60838561273f565b9050838110156106815760405162461bcd60e51b815260206004820152601b60248201527f536166654d6174683a206164646974696f6e206f766572666c6f77000000000060448201526064016106ce565b6040516001600160a01b0380851660248301528316604482015260648101829052611aea9085906323b872dd60e01b90608401611906565b50505050565b6000611b536112b460057f00000000000000000000000000000000000000000000000000000000000000006001600160a01b031663313ce5676040518163ffffffff1660e01b815260040160206040518083038186803b15801561127357600080fd5b6001600160a01b038316600090815260056020526040902060020154909150811015611b9857506001600160a01b031660009081526005602052604090206002015490565b6001600160a01b0382166000908152600560205260409020600201541561132e576001600160a01b038216600090815260056020526040812060020155919050565b6001600160a01b03811660009081526006602052604081206003810154600490910154611c0691611a53565b6001600160a01b03831660009081526006602052604090206001015490915015801590611c335750804310155b15611de5576001600160a01b03821660009081526005602090815260408083205460069092529091205460ff1615611ce8576001600160a01b038316600090815260066020908152604080832060010154600590925290912054611c9691611a53565b6001600160a01b03841660009081526005602081815260408084208590556006825290922060020154915211611ce3576001600160a01b0383166000908152600660205260408120600101555b611d66565b6001600160a01b038316600090815260066020908152604080832060010154600590925290912054611d19916119bc565b6001600160a01b03841660009081526005602081815260408084208590556006825290922060020154915210611d66576001600160a01b0383166000908152600660205260408120600101555b6001600160a01b03831660009081526006602081815260408084204360048201556005835293819020549282526001840154935481518681529283019390935281019290925260ff16151560608201527fb923e581a0f83128e9e1d8297aa52b18d6744310476e0b54509c054cd7a93b2a9060800160405180910390a1505b5050565b6000806000611df88686611fd2565b9150915060008480611e0c57611e0c612691565b868809905082811115611e2757611e24600183612757565b91505b611e318184612757565b9250848210611e825760405162461bcd60e51b815260206004820152601a60248201527f46756c6c4d6174683a3a6d756c4469763a206f766572666c6f7700000000000060448201526064016106ce565b611e8d838387612014565b979650505050505050565b60008183611eb95760405162461bcd60e51b81526004016106ce919061279a565b506000611ec684866126a7565b95945050505050565b6000611f24826040518060400160405280602081526020017f5361666545524332303a206c6f772d6c6576656c2063616c6c206661696c6564815250856001600160a01b03166121959092919063ffffffff16565b8051909150156117385780806020019051810190611f4291906127cd565b6117385760405162461bcd60e51b815260206004820152602a60248201527f5361666545524332303a204552433230206f7065726174696f6e20646964206e6044820152691bdd081cdd58d8d9595960b21b60648201526084016106ce565b60008184841115611fc55760405162461bcd60e51b81526004016106ce919061279a565b506000611ec68486612757565b600080806000198486099050611fe88486612720565b9250611ff48382612757565b91508281101561200c57612009600183612757565b91505b509250929050565b60008061202383600019612757565b8316905061203181846126a7565b925061203d81866126a7565b94508061204c81600019612757565b61205691906126a7565b61206190600161273f565b61206b9085612720565b612075908661273f565b945060016120838185612720565b61208e906002612757565b6120989082612720565b90506120a48185612720565b6120af906002612757565b6120b99082612720565b90506120c58185612720565b6120d0906002612757565b6120da9082612720565b90506120e68185612720565b6120f1906002612757565b6120fb9082612720565b90506121078185612720565b612112906002612757565b61211c9082612720565b90506121288185612720565b612133906002612757565b61213d9082612720565b90506121498185612720565b612154906002612757565b61215e9082612720565b905061216a8185612720565b612175906002612757565b61217f9082612720565b905061218b8187612720565b9695505050505050565b60606121a484846000856121ac565b949350505050565b6060843b6121fc5760405162461bcd60e51b815260206004820152601d60248201527f416464726573733a2063616c6c20746f206e6f6e2d636f6e747261637400000060448201526064016106ce565b600080866001600160a01b0316858760405161221891906127ea565b60006040518083038185875af1925050503d8060008114612255576040519150601f19603f3d011682016040523d82523d6000602084013e61225a565b606091505b5091509150811561226e5791506121a49050565b80511561227e5780518082602001fd5b8360405162461bcd60e51b81526004016106ce919061279a565b80356001600160a01b038116811461132e57600080fd5b600080604083850312156122c257600080fd5b823591506122d260208401612298565b90509250929050565b6000806000606084860312156122f057600080fd5b6122f984612298565b925061230760208501612298565b9150604084013590509250925092565b60008060006060848603121561232c57600080fd5b8335925061233c60208501612298565b915061234a60408501612298565b90509250925092565b60006020828403121561236557600080fd5b61068182612298565b6000806040838503121561238157600080fd5b61238a83612298565b946020939093013593505050565b80151581146123a657600080fd5b50565b600080600080600060a086880312156123c157600080fd5b85356123cc81612398565b94506020860135935060408601359250606086013591506123ef60808701612298565b90509295509295909350565b6000806040838503121561240e57600080fd5b61241783612298565b9150602083013561242781612398565b809150509250929050565b602080825282518282018190526000919060409081850190868401855b8281101561249c5781518051855286810151878601528581015186860152606080820151908601526080908101516001600160a01b03169085015260a0909301929085019060010161244f565b5091979650505050505050565b600080600080600080600060e0888a0312156124c457600080fd5b873596506020880135955060408801359450606088013593506080880135925060a088013591506124f760c08901612298565b905092959891949750929550565b60008060006060848603121561251a57600080fd5b83356003811061252957600080fd5b92506020840135915061234a60408501612298565b634e487b7160e01b600052603260045260246000fd5b60006020828403121561256657600080fd5b5051919050565b60006020828403121561257f57600080fd5b815160ff8116811461068157600080fd5b634e487b7160e01b600052601160045260246000fd5b600181815b8085111561200c5781600019048211156125c7576125c7612590565b808516156125d457918102915b93841c93908002906125ab565b6000826125f057506001610de0565b816125fd57506000610de0565b8160018114612613576002811461261d57612639565b6001915050610de0565b60ff84111561262e5761262e612590565b50506001821b610de0565b5060208310610133831016604e8410600b841016171561265c575081810a610de0565b61266683836125a6565b806000190482111561267a5761267a612590565b029392505050565b600061068160ff8416836125e1565b634e487b7160e01b600052601260045260246000fd5b6000826126c457634e487b7160e01b600052601260045260246000fd5b500490565b6020808252818101527f4f776e61626c653a2063616c6c6572206973206e6f7420746865206f776e6572604082015260600190565b600061068183836125e1565b634e487b7160e01b600052602160045260246000fd5b600081600019048311821515161561273a5761273a612590565b500290565b6000821982111561275257612752612590565b500190565b60008282101561276957612769612590565b500390565b60005b83811015612789578181015183820152602001612771565b83811115611aea5750506000910152565b60208152600082518060208401526127b981604085016020870161276e565b601f01601f19169190910160400192915050565b6000602082840312156127df57600080fd5b815161068181612398565b600082516127fc81846020870161276e565b919091019291505056fea2646970667358221220e85f61558f227274d20df08def1d1619ba9e218b3a8ec10b1c87647baeeef45864736f6c63430008090033a26469706673582212203c3d0b0dea23bfb238abb3cbd617cdb0da1795780c1a9b30cffc0b90cee0cf1b64736f6c63430008090033",
  "linkReferences": {},
  "deployedLinkReferences": {}
}