{
  "_format": "hh-sol-artifact-1",
  "contractName": "StakingRewards",
  "sourceName": "contracts/modules/staking.sol",
  "abi": [
    {
      "inputs": [
        {
          "internalType": "address",
          "name": "_owner",
          "type": "address"
        },
        {
          "internalType": "address",
          "name": "_rewardsDistribution",
          "type": "address"
        },
        {
          "internalType": "address",
          "name": "_rewardsToken",
          "type": "address"
        },
        {
          "internalType": "address",
          "name": "_stakingToken",
          "type": "address"
        },
        {
          "internalType": "uint256",
          "name": "_rewardsDuration",
          "type": "uint256"
        }
      ],
      "stateMutability": "nonpayable",
      "type": "constructor"
    },
    {
      "anonymous": false,
      "inputs": [
        {
          "indexed": false,
          "internalType": "address",
          "name": "oldOwner",
          "type": "address"
        },
        {
          "indexed": false,
          "internalType": "address",
          "name": "newOwner",
          "type": "address"
        }
      ],
      "name": "OwnerChanged",
      "type": "event"
    },
    {
      "anonymous": false,
      "inputs": [
        {
          "indexed": false,
          "internalType": "address",
          "name": "newOwner",
          "type": "address"
        }
      ],
      "name": "OwnerNominated",
      "type": "event"
    },
    {
      "anonymous": false,
      "inputs": [
        {
          "indexed": false,
          "internalType": "bool",
          "name": "isPaused",
          "type": "bool"
        }
      ],
      "name": "PauseChanged",
      "type": "event"
    },
    {
      "anonymous": false,
      "inputs": [
        {
          "indexed": false,
          "internalType": "address",
          "name": "token",
          "type": "address"
        },
        {
          "indexed": false,
          "internalType": "uint256",
          "name": "amount",
          "type": "uint256"
        }
      ],
      "name": "Recovered",
      "type": "event"
    },
    {
      "anonymous": false,
      "inputs": [
        {
          "indexed": false,
          "internalType": "uint256",
          "name": "reward",
          "type": "uint256"
        }
      ],
      "name": "RewardAdded",
      "type": "event"
    },
    {
      "anonymous": false,
      "inputs": [
        {
          "indexed": true,
          "internalType": "address",
          "name": "user",
          "type": "address"
        },
        {
          "indexed": false,
          "internalType": "uint256",
          "name": "reward",
          "type": "uint256"
        }
      ],
      "name": "RewardPaid",
      "type": "event"
    },
    {
      "anonymous": false,
      "inputs": [
        {
          "indexed": false,
          "internalType": "uint256",
          "name": "newDuration",
          "type": "uint256"
        }
      ],
      "name": "RewardsDurationUpdated",
      "type": "event"
    },
    {
      "anonymous": false,
      "inputs": [
        {
          "indexed": true,
          "internalType": "address",
          "name": "user",
          "type": "address"
        },
        {
          "indexed": false,
          "internalType": "uint256",
          "name": "amount",
          "type": "uint256"
        }
      ],
      "name": "Staked",
      "type": "event"
    },
    {
      "anonymous": false,
      "inputs": [
        {
          "indexed": true,
          "internalType": "address",
          "name": "user",
          "type": "address"
        },
        {
          "indexed": false,
          "internalType": "uint256",
          "name": "amount",
          "type": "uint256"
        }
      ],
      "name": "Withdrawn",
      "type": "event"
    },
    {
      "inputs": [],
      "name": "acceptOwnership",
      "outputs": [],
      "stateMutability": "nonpayable",
      "type": "function"
    },
    {
      "inputs": [
        {
          "internalType": "address",
          "name": "account",
          "type": "address"
        }
      ],
      "name": "balanceOf",
      "outputs": [
        {
          "internalType": "uint256",
          "name": "",
          "type": "uint256"
        }
      ],
      "stateMutability": "view",
      "type": "function"
    },
    {
      "inputs": [
        {
          "internalType": "address",
          "name": "account",
          "type": "address"
        }
      ],
      "name": "earned",
      "outputs": [
        {
          "internalType": "uint256",
          "name": "",
          "type": "uint256"
        }
      ],
      "stateMutability": "view",
      "type": "function"
    },
    {
      "inputs": [],
      "name": "exit",
      "outputs": [],
      "stateMutability": "nonpayable",
      "type": "function"
    },
    {
      "inputs": [],
      "name": "getReward",
      "outputs": [],
      "stateMutability": "nonpayable",
      "type": "function"
    },
    {
      "inputs": [],
      "name": "getRewardForDuration",
      "outputs": [
        {
          "internalType": "uint256",
          "name": "",
          "type": "uint256"
        }
      ],
      "stateMutability": "view",
      "type": "function"
    },
    {
      "inputs": [],
      "name": "lastPauseTime",
      "outputs": [
        {
          "internalType": "uint256",
          "name": "",
          "type": "uint256"
        }
      ],
      "stateMutability": "view",
      "type": "function"
    },
    {
      "inputs": [],
      "name": "lastTimeRewardApplicable",
      "outputs": [
        {
          "internalType": "uint256",
          "name": "",
          "type": "uint256"
        }
      ],
      "stateMutability": "view",
      "type": "function"
    },
    {
      "inputs": [],
      "name": "lastUpdateTime",
      "outputs": [
        {
          "internalType": "uint256",
          "name": "",
          "type": "uint256"
        }
      ],
      "stateMutability": "view",
      "type": "function"
    },
    {
      "inputs": [
        {
          "internalType": "address",
          "name": "_owner",
          "type": "address"
        }
      ],
      "name": "nominateNewOwner",
      "outputs": [],
      "stateMutability": "nonpayable",
      "type": "function"
    },
    {
      "inputs": [],
      "name": "nominatedOwner",
      "outputs": [
        {
          "internalType": "address",
          "name": "",
          "type": "address"
        }
      ],
      "stateMutability": "view",
      "type": "function"
    },
    {
      "inputs": [
        {
          "internalType": "uint256",
          "name": "reward",
          "type": "uint256"
        }
      ],
      "name": "notifyRewardAmount",
      "outputs": [],
      "stateMutability": "nonpayable",
      "type": "function"
    },
    {
      "inputs": [],
      "name": "owner",
      "outputs": [
        {
          "internalType": "address",
          "name": "",
          "type": "address"
        }
      ],
      "stateMutability": "view",
      "type": "function"
    },
    {
      "inputs": [],
      "name": "paused",
      "outputs": [
        {
          "internalType": "bool",
          "name": "",
          "type": "bool"
        }
      ],
      "stateMutability": "view",
      "type": "function"
    },
    {
      "inputs": [],
      "name": "periodFinish",
      "outputs": [
        {
          "internalType": "uint256",
          "name": "",
          "type": "uint256"
        }
      ],
      "stateMutability": "view",
      "type": "function"
    },
    {
      "inputs": [
        {
          "internalType": "address",
          "name": "tokenAddress",
          "type": "address"
        },
        {
          "internalType": "uint256",
          "name": "tokenAmount",
          "type": "uint256"
        }
      ],
      "name": "recoverERC20",
      "outputs": [],
      "stateMutability": "nonpayable",
      "type": "function"
    },
    {
      "inputs": [],
      "name": "rewardPerToken",
      "outputs": [
        {
          "internalType": "uint256",
          "name": "",
          "type": "uint256"
        }
      ],
      "stateMutability": "view",
      "type": "function"
    },
    {
      "inputs": [],
      "name": "rewardPerTokenStored",
      "outputs": [
        {
          "internalType": "uint256",
          "name": "",
          "type": "uint256"
        }
      ],
      "stateMutability": "view",
      "type": "function"
    },
    {
      "inputs": [],
      "name": "rewardRate",
      "outputs": [
        {
          "internalType": "uint256",
          "name": "",
          "type": "uint256"
        }
      ],
      "stateMutability": "view",
      "type": "function"
    },
    {
      "inputs": [
        {
          "internalType": "address",
          "name": "",
          "type": "address"
        }
      ],
      "name": "rewards",
      "outputs": [
        {
          "internalType": "uint256",
          "name": "",
          "type": "uint256"
        }
      ],
      "stateMutability": "view",
      "type": "function"
    },
    {
      "inputs": [],
      "name": "rewardsDistribution",
      "outputs": [
        {
          "internalType": "address",
          "name": "",
          "type": "address"
        }
      ],
      "stateMutability": "view",
      "type": "function"
    },
    {
      "inputs": [],
      "name": "rewardsDuration",
      "outputs": [
        {
          "internalType": "uint256",
          "name": "",
          "type": "uint256"
        }
      ],
      "stateMutability": "view",
      "type": "function"
    },
    {
      "inputs": [],
      "name": "rewardsToken",
      "outputs": [
        {
          "internalType": "contract IERC20",
          "name": "",
          "type": "address"
        }
      ],
      "stateMutability": "view",
      "type": "function"
    },
    {
      "inputs": [
        {
          "internalType": "bool",
          "name": "_paused",
          "type": "bool"
        }
      ],
      "name": "setPaused",
      "outputs": [],
      "stateMutability": "nonpayable",
      "type": "function"
    },
    {
      "inputs": [
        {
          "internalType": "address",
          "name": "_rewardsDistribution",
          "type": "address"
        }
      ],
      "name": "setRewardsDistribution",
      "outputs": [],
      "stateMutability": "nonpayable",
      "type": "function"
    },
    {
      "inputs": [
        {
          "internalType": "uint256",
          "name": "_rewardsDuration",
          "type": "uint256"
        }
      ],
      "name": "setRewardsDuration",
      "outputs": [],
      "stateMutability": "nonpayable",
      "type": "function"
    },
    {
      "inputs": [
        {
          "internalType": "uint256",
          "name": "amount",
          "type": "uint256"
        }
      ],
      "name": "stake",
      "outputs": [],
      "stateMutability": "nonpayable",
      "type": "function"
    },
    {
      "inputs": [],
      "name": "stakingToken",
      "outputs": [
        {
          "internalType": "contract IERC20",
          "name": "",
          "type": "address"
        }
      ],
      "stateMutability": "view",
      "type": "function"
    },
    {
      "inputs": [],
      "name": "totalSupply",
      "outputs": [
        {
          "internalType": "uint256",
          "name": "",
          "type": "uint256"
        }
      ],
      "stateMutability": "view",
      "type": "function"
    },
    {
      "inputs": [
        {
          "internalType": "address",
          "name": "",
          "type": "address"
        }
      ],
      "name": "userRewardPerTokenPaid",
      "outputs": [
        {
          "internalType": "uint256",
          "name": "",
          "type": "uint256"
        }
      ],
      "stateMutability": "view",
      "type": "function"
    },
    {
      "inputs": [
        {
          "internalType": "uint256",
          "name": "amount",
          "type": "uint256"
        }
      ],
      "name": "withdraw",
      "outputs": [],
      "stateMutability": "nonpayable",
      "type": "function"
    }
  ],
  "bytecode": "0x6080604052600060075560006008553480156200001b57600080fd5b5060405162001735380380620017358339810160408190526200003e9162000172565b8480806001600160a01b0381166200009c5760405162461bcd60e51b815260206004820152601960248201527f4f776e657220616464726573732063616e6e6f74206265203000000000000000604482015260640160405180910390fd5b600080546001600160a01b0319166001600160a01b03831690811782556040805192835260208301919091527fb532073b38c83145e3e5135377a08bf9aab55bc0fd7c1179cd4fb995d2a5159c910160405180910390a15050600160045550600580546001600160a01b039485166001600160a01b031991821617909155600680549385169390911692909217909155600380549390921661010002610100600160a81b031990931692909217905560095550620001d9565b80516001600160a01b03811681146200016d57600080fd5b919050565b600080600080600060a086880312156200018b57600080fd5b620001968662000155565b9450620001a66020870162000155565b9350620001b66040870162000155565b9250620001c66060870162000155565b9150608086015190509295509295909350565b61154c80620001e96000396000f3fe608060405234801561001057600080fd5b50600436106101e45760003560e01c806372f702f31161010f578063a694fc3a116100a2578063d1af0c7d11610071578063d1af0c7d146103ec578063df136d65146103ff578063e9fad8ee14610408578063ebe2b12b1461041057600080fd5b8063a694fc3a146103b5578063c8f33c91146103c8578063cc1a378f146103d1578063cd3daf9d146103e457600080fd5b80638980f11f116100de5780638980f11f146103665780638b876347146103795780638da5cb5b1461039957806391b4ded9146103ac57600080fd5b806372f702f31461033a57806379ba50971461034d5780637b0a47ee1461035557806380faa57d1461035e57600080fd5b80632e1a7d4d116101875780633fc6df6e116101565780633fc6df6e146102b157806353a47bb7146102e15780635c975abb146102f457806370a082311461031157600080fd5b80632e1a7d4d1461027a578063386a95251461028d5780633c6b16ab146102965780633d18b912146102a957600080fd5b806316c38b3c116101c357806316c38b3c1461024457806318160ddd14610257578063197621431461025f5780631c1f78eb1461027257600080fd5b80628cc262146101e95780630700037d1461020f5780631627540c1461022f575b600080fd5b6101fc6101f736600461136f565b610419565b6040519081526020015b60405180910390f35b6101fc61021d36600461136f565b600d6020526000908152604090205481565b61024261023d36600461136f565b610497565b005b610242610252366004611398565b6104f4565b600e546101fc565b61024261026d36600461136f565b61056a565b6101fc61059a565b6102426102883660046113b5565b6105b8565b6101fc60095481565b6102426102a43660046113b5565b6106fb565b610242610891565b6003546102c99061010090046001600160a01b031681565b6040516001600160a01b039091168152602001610206565b6001546102c9906001600160a01b031681565b6003546103019060ff1681565b6040519015158152602001610206565b6101fc61031f36600461136f565b6001600160a01b03166000908152600f602052604090205490565b6006546102c9906001600160a01b031681565b610242610977565b6101fc60085481565b6101fc610a61565b6102426103743660046113ce565b610a6f565b6101fc61038736600461136f565b600c6020526000908152604090205481565b6000546102c9906001600160a01b031681565b6101fc60025481565b6102426103c33660046113b5565b610b38565b6101fc600a5481565b6102426103df3660046113b5565b610cde565b6101fc610db8565b6005546102c9906001600160a01b031681565b6101fc600b5481565b610242610e04565b6101fc60075481565b6001600160a01b0381166000908152600d6020908152604080832054600c909252822054610491919061048b90670de0b6b3a7640000906104859061046690610460610db8565b90610e25565b6001600160a01b0388166000908152600f602052604090205490610e6e565b90610eed565b90610f2f565b92915050565b61049f610f8e565b600180546001600160a01b0319166001600160a01b0383169081179091556040519081527f906a1c6bd7e3091ea86693dd029a831c19049ce77f1dce2ce0bab1cacbabce22906020015b60405180910390a150565b6104fc610f8e565b60035460ff16151581151514156105105750565b6003805460ff191682151590811790915560ff161561052e57426002555b60035460405160ff909116151581527f8fb6c181ee25a520cf3dd6565006ef91229fcfe5a989566c2a3b8c115570cec5906020016104e9565b50565b610572610f8e565b600380546001600160a01b0390921661010002610100600160a81b0319909216919091179055565b60006105b3600954600854610e6e90919063ffffffff16565b905090565b6105c0611000565b336105c9610db8565b600b556105d4610a61565b600a556001600160a01b0381161561061b576105ef81610419565b6001600160a01b0382166000908152600d6020908152604080832093909355600b54600c909152919020555b600082116106645760405162461bcd60e51b8152602060048201526011602482015270043616e6e6f74207769746864726177203607c1b60448201526064015b60405180910390fd5b600e546106719083610e25565b600e55336000908152600f602052604090205461068e9083610e25565b336000818152600f60205260409020919091556006546106ba916001600160a01b03909116908461105a565b60405182815233907f7084f5476618d8e60b11ef0d7d3f06914655adb8793e28ff7f018d4c76d505d5906020015b60405180910390a2506105676001600455565b60035461010090046001600160a01b0316331461076d5760405162461bcd60e51b815260206004820152602a60248201527f43616c6c6572206973206e6f742052657761726473446973747269627574696f6044820152691b8818dbdb9d1c9858dd60b21b606482015260840161065b565b6000610777610db8565b600b55610782610a61565b600a556001600160a01b038116156107c95761079d81610419565b6001600160a01b0382166000908152600d6020908152604080832093909355600b54600c909152919020555b6005546107e1906001600160a01b03163330856110c2565b6007544210610800576009546107f8908390610eed565b600855610843565b6007546000906108109042610e25565b9050600061082960085483610e6e90919063ffffffff16565b60095490915061083d906104858684610f2f565b60085550505b42600a8190556009546108569190610f2f565b6007556040518281527fde88a922e0d3b88b24e9623efeb464919c6bf9f66857a65e2bfcf2ce87a9433d906020015b60405180910390a15050565b610899611000565b336108a2610db8565b600b556108ad610a61565b600a556001600160a01b038116156108f4576108c881610419565b6001600160a01b0382166000908152600d6020908152604080832093909355600b54600c909152919020555b336000908152600d6020526040902054801561096957336000818152600d6020526040812055600554610933916001600160a01b03909116908361105a565b60405181815233907fe2403640ba68fed3a2f88b7557551d1993f84b99bb10ff833f0cf8db0c5e04869060200160405180910390a25b50506109756001600455565b565b6001546001600160a01b031633146109ef5760405162461bcd60e51b815260206004820152603560248201527f596f75206d757374206265206e6f6d696e61746564206265666f726520796f7560448201527402063616e20616363657074206f776e65727368697605c1b606482015260840161065b565b600054600154604080516001600160a01b0393841681529290911660208301527fb532073b38c83145e3e5135377a08bf9aab55bc0fd7c1179cd4fb995d2a5159c910160405180910390a160018054600080546001600160a01b03199081166001600160a01b03841617909155169055565b60006105b342600754611100565b610a77610f8e565b6006546001600160a01b0383811691161415610adf5760405162461bcd60e51b815260206004820152602160248201527f43616e6e6f7420776974686472617720746865207374616b696e6720746f6b656044820152603760f91b606482015260840161065b565b600054610af9906001600160a01b0384811691168361105a565b604080516001600160a01b0384168152602081018390527f8c1256b8896378cd5044f80c202f9772b9d77dc85c8a6eb51967210b09bfaa289101610885565b610b40611000565b60035460ff1615610bb95760405162461bcd60e51b815260206004820152603c60248201527f5468697320616374696f6e2063616e6e6f7420626520706572666f726d65642060448201527f7768696c652074686520636f6e74726163742069732070617573656400000000606482015260840161065b565b33610bc2610db8565b600b55610bcd610a61565b600a556001600160a01b03811615610c1457610be881610419565b6001600160a01b0382166000908152600d6020908152604080832093909355600b54600c909152919020555b60008211610c555760405162461bcd60e51b815260206004820152600e60248201526d043616e6e6f74207374616b6520360941b604482015260640161065b565b600e54610c629083610f2f565b600e55336000908152600f6020526040902054610c7f9083610f2f565b336000818152600f6020526040902091909155600654610cac916001600160a01b039091169030856110c2565b60405182815233907f9e71bc8eea02a63969f509818f2dafb9254532904319f9dbda79b67bd34a5f3d906020016106e8565b610ce6610f8e565b6007544211610d835760405162461bcd60e51b815260206004820152605860248201527f50726576696f7573207265776172647320706572696f64206d7573742062652060448201527f636f6d706c657465206265666f7265206368616e67696e67207468652064757260648201527f6174696f6e20666f7220746865206e657720706572696f640000000000000000608482015260a40161065b565b60098190556040518181527ffb46ca5a5e06d4540d6387b930a7c978bce0db5f449ec6b3f5d07c6e1d44f2d3906020016104e9565b6000600e5460001415610dcc5750600b5490565b6105b3610dfb600e54610485670de0b6b3a7640000610df5600854610df5600a54610460610a61565b90610e6e565b600b5490610f2f565b336000908152600f6020526040902054610e1d906105b8565b610975610891565b6000610e6783836040518060400160405280601e81526020017f536166654d6174683a207375627472616374696f6e206f766572666c6f770000815250611116565b9392505050565b600082610e7d57506000610491565b6000610e89838561140e565b905082610e96858361142d565b14610e675760405162461bcd60e51b815260206004820152602160248201527f536166654d6174683a206d756c7469706c69636174696f6e206f766572666c6f6044820152607760f81b606482015260840161065b565b6000610e6783836040518060400160405280601a81526020017f536166654d6174683a206469766973696f6e206279207a65726f000000000000815250611150565b600080610f3c838561144f565b905083811015610e675760405162461bcd60e51b815260206004820152601b60248201527f536166654d6174683a206164646974696f6e206f766572666c6f770000000000604482015260640161065b565b6000546001600160a01b031633146109755760405162461bcd60e51b815260206004820152602f60248201527f4f6e6c792074686520636f6e7472616374206f776e6572206d6179207065726660448201526e37b936903a3434b99030b1ba34b7b760891b606482015260840161065b565b600260045414156110535760405162461bcd60e51b815260206004820152601f60248201527f5265656e7472616e637947756172643a207265656e7472616e742063616c6c00604482015260640161065b565b6002600455565b6040516001600160a01b0383166024820152604481018290526110bd90849063a9059cbb60e01b906064015b60408051601f198184030181529190526020810180516001600160e01b03166001600160e01b03199093169290921790915261117e565b505050565b6040516001600160a01b03808516602483015283166044820152606481018290526110fa9085906323b872dd60e01b90608401611086565b50505050565b600081831061110f5781610e67565b5090919050565b6000818484111561113a5760405162461bcd60e51b815260040161065b9190611493565b50600061114784866114c6565b95945050505050565b600081836111715760405162461bcd60e51b815260040161065b9190611493565b506000611147848661142d565b60006111d3826040518060400160405280602081526020017f5361666545524332303a206c6f772d6c6576656c2063616c6c206661696c6564815250856001600160a01b03166112509092919063ffffffff16565b8051909150156110bd57808060200190518101906111f191906114dd565b6110bd5760405162461bcd60e51b815260206004820152602a60248201527f5361666545524332303a204552433230206f7065726174696f6e20646964206e6044820152691bdd081cdd58d8d9595960b21b606482015260840161065b565b606061125f8484600085611267565b949350505050565b6060843b6112b75760405162461bcd60e51b815260206004820152601d60248201527f416464726573733a2063616c6c20746f206e6f6e2d636f6e7472616374000000604482015260640161065b565b600080866001600160a01b031685876040516112d391906114fa565b60006040518083038185875af1925050503d8060008114611310576040519150601f19603f3d011682016040523d82523d6000602084013e611315565b606091505b5091509150811561132957915061125f9050565b8051156113395780518082602001fd5b8360405162461bcd60e51b815260040161065b9190611493565b80356001600160a01b038116811461136a57600080fd5b919050565b60006020828403121561138157600080fd5b610e6782611353565b801515811461056757600080fd5b6000602082840312156113aa57600080fd5b8135610e678161138a565b6000602082840312156113c757600080fd5b5035919050565b600080604083850312156113e157600080fd5b6113ea83611353565b946020939093013593505050565b634e487b7160e01b600052601160045260246000fd5b6000816000190483118215151615611428576114286113f8565b500290565b60008261144a57634e487b7160e01b600052601260045260246000fd5b500490565b60008219821115611462576114626113f8565b500190565b60005b8381101561148257818101518382015260200161146a565b838111156110fa5750506000910152565b60208152600082518060208401526114b2816040850160208701611467565b601f01601f19169190910160400192915050565b6000828210156114d8576114d86113f8565b500390565b6000602082840312156114ef57600080fd5b8151610e678161138a565b6000825161150c818460208701611467565b919091019291505056fea2646970667358221220cbe0a78af14b947236ca160b862112b764970597f5e7fee4b17dc945e95a3fe964736f6c63430008090033",
  "linkReferences": {},
  "deployedLinkReferences": {}
}