{
  "_format": "hh-sol-artifact-1",
  "contractName": "Treasury",
  "sourceName": "contracts/modules/Treasury.sol",
  "abi": [
    {
      "inputs": [
        {
          "internalType": "address",
          "name": "_bondPayoutToken",
          "type": "address"
        },
        {
          "internalType": "address",
          "name": "_stakingPayoutToken",
          "type": "address"
        }
      ],
      "stateMutability": "nonpayable",
      "type": "constructor"
    },
    {
      "anonymous": false,
      "inputs": [
        {
          "indexed": false,
          "internalType": "address",
          "name": "bondContract",
          "type": "address"
        }
      ],
      "name": "BondContractDewhitelisted",
      "type": "event"
    },
    {
      "anonymous": false,
      "inputs": [
        {
          "indexed": false,
          "internalType": "address",
          "name": "bondContract",
          "type": "address"
        }
      ],
      "name": "BondContractWhitelisted",
      "type": "event"
    },
    {
      "anonymous": false,
      "inputs": [
        {
          "indexed": false,
          "internalType": "address",
          "name": "",
          "type": "address"
        },
        {
          "indexed": false,
          "internalType": "uint256",
          "name": "",
          "type": "uint256"
        }
      ],
      "name": "BondPayoutToken",
      "type": "event"
    },
    {
      "anonymous": false,
      "inputs": [
        {
          "indexed": false,
          "internalType": "address",
          "name": "stakingContract",
          "type": "address"
        }
      ],
      "name": "StakingContractDewhitelisted",
      "type": "event"
    },
    {
      "anonymous": false,
      "inputs": [
        {
          "indexed": false,
          "internalType": "address",
          "name": "stakingContract",
          "type": "address"
        }
      ],
      "name": "StakingContractWhitelisted",
      "type": "event"
    },
    {
      "anonymous": false,
      "inputs": [
        {
          "indexed": false,
          "internalType": "address",
          "name": "",
          "type": "address"
        },
        {
          "indexed": false,
          "internalType": "uint256",
          "name": "",
          "type": "uint256"
        }
      ],
      "name": "StakingReward",
      "type": "event"
    },
    {
      "inputs": [
        {
          "internalType": "address",
          "name": "",
          "type": "address"
        }
      ],
      "name": "bondContract",
      "outputs": [
        {
          "internalType": "bool",
          "name": "",
          "type": "bool"
        }
      ],
      "stateMutability": "view",
      "type": "function"
    },
    {
      "inputs": [],
      "name": "bondPayoutToken",
      "outputs": [
        {
          "internalType": "address",
          "name": "",
          "type": "address"
        }
      ],
      "stateMutability": "view",
      "type": "function"
    },
    {
      "inputs": [
        {
          "internalType": "address",
          "name": "_bondContract",
          "type": "address"
        }
      ],
      "name": "dewhitelistBondContract",
      "outputs": [],
      "stateMutability": "nonpayable",
      "type": "function"
    },
    {
      "inputs": [],
      "name": "policy",
      "outputs": [
        {
          "internalType": "address",
          "name": "",
          "type": "address"
        }
      ],
      "stateMutability": "view",
      "type": "function"
    },
    {
      "inputs": [
        {
          "internalType": "uint256",
          "name": "_amountPayoutToken",
          "type": "uint256"
        }
      ],
      "name": "sendPayoutTokens",
      "outputs": [],
      "stateMutability": "nonpayable",
      "type": "function"
    },
    {
      "inputs": [
        {
          "internalType": "address",
          "name": "_staking_contract",
          "type": "address"
        },
        {
          "internalType": "uint256",
          "name": "_amount",
          "type": "uint256"
        }
      ],
      "name": "sendStakingReward",
      "outputs": [],
      "stateMutability": "nonpayable",
      "type": "function"
    },
    {
      "inputs": [
        {
          "internalType": "address",
          "name": "",
          "type": "address"
        }
      ],
      "name": "stakingContract",
      "outputs": [
        {
          "internalType": "bool",
          "name": "",
          "type": "bool"
        }
      ],
      "stateMutability": "view",
      "type": "function"
    },
    {
      "inputs": [],
      "name": "stakingPayoutToken",
      "outputs": [
        {
          "internalType": "address",
          "name": "",
          "type": "address"
        }
      ],
      "stateMutability": "view",
      "type": "function"
    },
    {
      "inputs": [
        {
          "internalType": "address",
          "name": "_newOwner",
          "type": "address"
        }
      ],
      "name": "transferManagment",
      "outputs": [],
      "stateMutability": "nonpayable",
      "type": "function"
    },
    {
      "inputs": [
        {
          "internalType": "address",
          "name": "_principalTokenAddress",
          "type": "address"
        },
        {
          "internalType": "uint256",
          "name": "_amount",
          "type": "uint256"
        }
      ],
      "name": "valueOfToken",
      "outputs": [
        {
          "internalType": "uint256",
          "name": "value_",
          "type": "uint256"
        }
      ],
      "stateMutability": "view",
      "type": "function"
    },
    {
      "inputs": [
        {
          "internalType": "address",
          "name": "_new_bond",
          "type": "address"
        }
      ],
      "name": "whitelistBondContract",
      "outputs": [],
      "stateMutability": "nonpayable",
      "type": "function"
    }
  ],
  "bytecode": "0x60c060405234801561001057600080fd5b50604051610d32380380610d3283398101604081905261002f9161009b565b600080546001600160a01b031916331790556001600160a01b03821661005457600080fd5b6001600160a01b03808316608052811661006d57600080fd5b6001600160a01b031660a052506100ce565b80516001600160a01b038116811461009657600080fd5b919050565b600080604083850312156100ae57600080fd5b6100b78361007f565b91506100c56020840161007f565b90509250929050565b60805160a051610c2a610108600039600081816101e201526103ee0152600081816101640152818161027501526104e10152610c2a6000f3fe608060405234801561001057600080fd5b50600436106100a95760003560e01c8063406b704311610071578063406b70431461014c578063651cf4cc1461015f578063d1b317e514610186578063d4d99433146101a7578063da2d9740146101ca578063dc722878146101dd57600080fd5b80630505c8c9146100ae5780630b04f918146100de5780631a32666c146100f357806324705db3146101065780633bfdd7de14610139575b600080fd5b6000546100c1906001600160a01b031681565b6040516001600160a01b0390911681526020015b60405180910390f35b6100f16100ec366004610937565b610204565b005b6100f161010136600461096c565b6102d9565b61012961011436600461096c565b60016020526000908152604090205460ff1681565b60405190151581526020016100d5565b6100f161014736600461096c565b610358565b6100f161015a366004610987565b6103b7565b6100c17f000000000000000000000000000000000000000000000000000000000000000081565b610199610194366004610987565b61045b565b6040519081526020016100d5565b6101296101b536600461096c565b60026020526000908152604090205460ff1681565b6100f16101d836600461096c565b61058f565b6100c17f000000000000000000000000000000000000000000000000000000000000000081565b3360009081526001602052604090205460ff166102685760405162461bcd60e51b815260206004820152601e60248201527f61646472657373206973206e6f74206120626f6e6420636f6e7472616374000060448201526064015b60405180910390fd5b61029c6001600160a01b037f000000000000000000000000000000000000000000000000000000000000000016338361060a565b60408051338152602081018390527f8ac790455d64f91fe28be2f7719eeb64b32afce2689873f2a99ccc2f8d1f925691015b60405180910390a150565b6000546001600160a01b031633146103035760405162461bcd60e51b815260040161025f906109b1565b6001600160a01b038116600081815260016020818152604092839020805460ff191690921790915590519182527ff77a8f6961cd2a6c1a5c09f5871f9afa593a9be371e6d5db1c49c3c846f27c8e91016102ce565b6000546001600160a01b031633146103825760405162461bcd60e51b815260040161025f906109b1565b6001600160a01b03811661039557600080fd5b600080546001600160a01b0319166001600160a01b0392909216919091179055565b6000546001600160a01b031633146103e15760405162461bcd60e51b815260040161025f906109b1565b6104156001600160a01b037f000000000000000000000000000000000000000000000000000000000000000016838361060a565b604080516001600160a01b0384168152602081018390527fd0738c40db6944b0431635619e5439399d30b1c3201de82a76281ad5e589a331910160405180910390a15050565b6000610588836001600160a01b031663313ce5676040518163ffffffff1660e01b815260040160206040518083038186803b15801561049957600080fd5b505afa1580156104ad573d6000803e3d6000fd5b505050506040513d601f19601f820116820180604052508101906104d191906109e6565b6104dc90600a610b03565b6105827f00000000000000000000000000000000000000000000000000000000000000006001600160a01b031663313ce5676040518163ffffffff1660e01b815260040160206040518083038186803b15801561053857600080fd5b505afa15801561054c573d6000803e3d6000fd5b505050506040513d601f19601f8201168201806040525081019061057091906109e6565b61057b90600a610b03565b8590610661565b906106e9565b9392505050565b6000546001600160a01b031633146105b95760405162461bcd60e51b815260040161025f906109b1565b6001600160a01b038116600081815260016020908152604091829020805460ff1916905590519182527ffc70d1cccd20b1240aa868d1187dc4831d94c6a1e04ceb1875b061c53a24482e91016102ce565b604080516001600160a01b038416602482015260448082018490528251808303909101815260649091019091526020810180516001600160e01b031663a9059cbb60e01b17905261065c90849061072b565b505050565b600082610670575060006106e3565b600061067c8385610b12565b9050826106898583610b31565b146106e05760405162461bcd60e51b815260206004820152602160248201527f536166654d6174683a206d756c7469706c69636174696f6e206f766572666c6f6044820152607760f81b606482015260840161025f565b90505b92915050565b600061058883836040518060400160405280601a81526020017f536166654d6174683a206469766973696f6e206279207a65726f0000000000008152506107fd565b6000610780826040518060400160405280602081526020017f5361666545524332303a206c6f772d6c6576656c2063616c6c206661696c6564815250856001600160a01b03166108349092919063ffffffff16565b80519091501561065c578080602001905181019061079e9190610b53565b61065c5760405162461bcd60e51b815260206004820152602a60248201527f5361666545524332303a204552433230206f7065726174696f6e20646964206e6044820152691bdd081cdd58d8d9595960b21b606482015260840161025f565b6000818361081e5760405162461bcd60e51b815260040161025f9190610ba5565b50600061082b8486610b31565b95945050505050565b6060610843848460008561084b565b949350505050565b6060843b61089b5760405162461bcd60e51b815260206004820152601d60248201527f416464726573733a2063616c6c20746f206e6f6e2d636f6e7472616374000000604482015260640161025f565b600080866001600160a01b031685876040516108b79190610bd8565b60006040518083038185875af1925050503d80600081146108f4576040519150601f19603f3d011682016040523d82523d6000602084013e6108f9565b606091505b5091509150811561090d5791506108439050565b80511561091d5780518082602001fd5b8360405162461bcd60e51b815260040161025f9190610ba5565b60006020828403121561094957600080fd5b5035919050565b80356001600160a01b038116811461096757600080fd5b919050565b60006020828403121561097e57600080fd5b61058882610950565b6000806040838503121561099a57600080fd5b6109a383610950565b946020939093013593505050565b6020808252818101527f4f776e61626c653a2063616c6c6572206973206e6f7420746865206f776e6572604082015260600190565b6000602082840312156109f857600080fd5b815160ff811681146106e057600080fd5b634e487b7160e01b600052601160045260246000fd5b600181815b80851115610a5a578160001904821115610a4057610a40610a09565b80851615610a4d57918102915b93841c9390800290610a24565b509250929050565b600082610a71575060016106e3565b81610a7e575060006106e3565b8160018114610a945760028114610a9e57610aba565b60019150506106e3565b60ff841115610aaf57610aaf610a09565b50506001821b6106e3565b5060208310610133831016604e8410600b8410161715610add575081810a6106e3565b610ae78383610a1f565b8060001904821115610afb57610afb610a09565b029392505050565b600061058860ff841683610a62565b6000816000190483118215151615610b2c57610b2c610a09565b500290565b600082610b4e57634e487b7160e01b600052601260045260246000fd5b500490565b600060208284031215610b6557600080fd5b815180151581146106e057600080fd5b60005b83811015610b90578181015183820152602001610b78565b83811115610b9f576000848401525b50505050565b6020815260008251806020840152610bc4816040850160208701610b75565b601f01601f19169190910160400192915050565b60008251610bea818460208701610b75565b919091019291505056fea26469706673582212202375cfc727840ffc043cbe0ae57ef439c34c99b402a193d15084e7cd6cdeeea364736f6c63430008090033",
  "linkReferences": {},
  "deployedLinkReferences": {}
}